:020000040800F2
:10000000F0090020CD010008D50100081F100008EC
:10001000B117000851080008133000080000000064
:10002000000000000000000000000000DF010008E8
:10003000E101000800000000E301000811230008AE
:10004000E7010008E7010008E7010008E7010008F0
:10005000E7010008E7010008E7010008E7010008E0
:10006000E7010008E7010008E7010008E7010008D0
:10007000E7010008E7010008E7010008E7010008C0
:10008000E7010008E7010008BD040008E7010008D7
:10009000E7010008E7010008E7010008E7010008A0
:1000A000E70100085D240008E7010008E7010008F7
:1000B000E7010008E7010008E7010008E701000880
:1000C000E7010008E7010008E7010008E701000870
:1000D000E7010008E7010008592E0008E7010008C1
:1000E000E7010008E7010008E7010008E701000850
:1000F000E7010008D9260008D1250008E70100081B
:10010000E7010008E7010008E7010008E70100082F
:10011000E7010008E7010008FD240008E7010008E6
:10012000E7010008E7010008E7010008E70100080F
:1001300000F002F800F03AF80AA090E8000C8244BF
:100140008344AAF10107DA4501D100F02FF8AFF29C
:10015000090EBAE80F0013F0010F18BFFB1A43F0A5
:1001600001031847AC380000CC380000103A24BF17
:1001700078C878C1FAD8520724BF30C830C144BF0C
:1001800004680C607047000000230024002500264E
:10019000103A28BF78C1FBD8520728BF30C148BFEA
:1001A0000B6070471FB51FBD10B510BD00F04EF9B4
:1001B0001146FFF7F7FF02F032FF00F06CF903B4CD
:1001C000FFF7F2FF03BC00F071F900000948804717
:1001D00009480047FEE7FEE7FEE7FEE7FEE7FEE729
:1001E000FEE7FEE7FEE7FEE704480549054A064B41
:1001F000704700002523000831010008F0030020AB
:10020000F0090020F0050020F0050020431A28BF67
:100210009A4240F26780032A1044114440F226803B
:1002200010F0030F1EBF11F8013D521E00F8013DF2
:1002300010F0030F7FF4F6AF11F0030300F0AA8073
:10024000083AC0F00B8051F8043D083A51F804CD4B
:1002500040F8043D40F804CDFFF7F3BF121D5CBF2A
:1002600051F8043D40F8043DAFF30080D20724BFAD
:1002700011F8013D11F801CD48BF11F8012C24BF40
:1002800000F8013D00F801CD48BF00F8012C70478F
:100290004FF0000200B5134694469646203922BF1F
:1002A000A0E80C50A0E80C50B1F12001BFF4F7AF6A
:1002B000090728BFA0E80C5048BF0CC05DF804EB4C
:1002C000890028BF40F8042B08BF704748BF20F8BA
:1002D000022B11F0804F18BF00F8012B70477047B8
:1002E00070477047032A40F2308010F0030C00F092
:1002F000158011F8013BBCF1020F624498BF11F860
:1003000001CB00F8013B38BF11F8013BA2F1040218
:1003100098BF00F801CB38BF00F8013B11F0030390
:1003200000F06280083AC0F0088051F8043B083AB7
:1003300051F804CBA0E80810F5E7121D5CBF51F896
:10034000043B40F8043BAFF30080D20724BF11F810
:10035000013B11F801CB48BF11F8012B24BF00F875
:10036000013B00F801CB48BF00F8012B7047431A4E
:1003700028BF9A4240F23880104410F0030F114415
:100380001EBF11F8013D521E00F8013D10F0030F91
:100390007FF4F6AF103AC0F00A8010B531E918507A
:1003A000103A20E91850BFF4F9AFBDE810405307E8
:1003B00024BF31E9081020E9081044BF51F8043D7A
:1003C00040F8043D12F0030F08BF7047D20728BF62
:1003D00031F8023D48BF11F8012C28BF20F8023D3A
:1003E00048BF00F8012C704710B5203AC0F00B80D0
:1003F000B1E81850203AA0E81850B1E81850A0E829
:100400001850BFF4F5AF5FEA027C24BFB1E8185082
:10041000A0E8185044BF18C918C0BDE810405FEAF2
:10042000827C24BF51F8043B40F8043B08BF70476E
:10043000D20728BF31F8023B48BF11F8012B28BF73
:1004400020F8023B48BF00F8012B7047754600F0CA
:1004500029F8AE4605006946534620F00700854658
:1004600018B020B5FFF7C0FEBDE820404FF00006F1
:100470004FF000074FF000084FF0000B21F007018C
:10048000AC46ACE8C009ACE8C009ACE8C009ACE8CF
:10049000C0098D4670470446AFF300802046FFF741
:1004A0008EFE00000048704790030020014918208C
:1004B000ABBEFEE726000200704700002DE9F041C8
:1004C0000E211E4800F04CF81D4C2079002833D036
:1004D0001C4D28781C4900EB4000096801EB8000A6
:1004E00000F07EFD002802DD184A194B01E0194B8F
:1004F0000022124816463C301F46006802F0F4FF06
:100500004FF06632144B03F003F86FF00B0203F068
:1005100019FA32463B4602F04BFE00220F4B02F026
:10052000F7FF02F09DFF297840EAC12081B2042044
:1005300000F0A6FB00202071BDE8F08100280140FA
:10054000240000200A0000202000002046175D74CF
:10055000D1453B4000C0724066660A400088C340F7
:10056000C943016070470029816802D041F0010150
:1005700001E021F00101816070470029816802D00B
:1005800041F4004101E021F400418160704782683C
:1005900022F4E0420A4382607047014600208968E5
:1005A000490700D501207047C06C80B270470246F1
:1005B000002012680A4200D0012070470146002046
:1005C0008968090700D501207047002A4268C9B22E
:1005D00001D00A4300E08A434260704710B5426888
:1005E0000E4B0C791A400B6842EA04221343436015
:1005F00082680B4B1A40D1E9024323434C7942EA0B
:10060000440213438360C26A097C22F47002491ECB
:10061000C9B242EA0151C16210BD0000FFFEF0FF05
:10062000FDF7F1FF70B5072609290AD9C568A1F1C0
:100630000A0404EB4404A640B543A3401D43C5602F
:1006400007E0056901EB4104A640B543A3401D4303
:100650000561836BC3F30154121B921C02EB8202EF
:100660001F249440A34391400B43836370BD70B536
:10067000072609290AD9C568A1F10A0404EB440434
:10068000A640B543A3401D43C56007E0056901EBE3
:100690004104A640B543A3401D4305611F23072A1B
:1006A00009D2446B521E02EB820293409C4391405C
:1006B0000C43446370BD0D2A09D2046BD21F02EBB8
:1006C000820293409C4391400C43046370BDC46A12
:1006D0000D3A02EB820293409C4391400C43C4626A
:1006E00070BD816841F00801816070470029816810
:1006F00002D041F4A00101E021F4A0018160704723
:10070000816841F0040181607047000010B50F4C12
:100710000121204602F058F801221146204602F03D
:10072000FFF80121204602F052F8094C2021204612
:1007300002F0DAFB012240F22551204602F0E8FBEC
:100740002046BDE81040012102F0D1BB001000405E
:100750000044004010B586B000214FF46020CDE980
:1007600002018DF804100120284C00918DF805102D
:100770008DF8100069462046FFF730FF072301225D
:1007800008212046FFF773FF01212046FFF7EBFE0B
:100790002046FFF7A6FF2046FFF710FF0028FAD1FA
:1007A0002046FFF7ADFF2046FFF7F7FE0028FAD1FD
:1007B000174C69462046FFF711FF01231A4609210D
:1007C0002046FFF72FFF4FF4C0412046FFF7DFFE22
:1007D0000121104800F0ECFA01212046FFF7CDFE80
:1007E00001212046FFF7BFFE2046FFF77AFF204693
:1007F000FFF7E4FE0028FAD12046FFF781FF2046EC
:10080000FFF7CBFE0028FAD106B010BD002401404E
:10081000002801400800200010B501214FF0C05011
:1008200001F056F8BDE81040012001F035B8000095
:1008300008B5024908440090008808BD006C0040DB
:1008400008B5024A10440090016008BD006C0040E9
:1008500003210420FFF7F4FF00F0E2FFF0B50022CF
:1008600041F288364FF4FA6741F2253565E002EB34
:10087000420300EB8303B3F9024004F57A74BC42EF
:1008800002D947F2030007E0B3F9044004F57A7493
:10089000BC4204D947F2050040EA42104AE05C78C5
:1008A00044B1012C06D0802C04D0812C02D047F218
:1008B0000D00F1E7DC888CB1643CAC420ED302EB56
:1008C000420100EB8100C088B04201D9012000E064
:1008D000002040EA421047F206012AE01C898CB150
:1008E000643CAC420ED302EB420100EB8100008974
:1008F000B04201D9012000E0002040EA421047F256
:10090000080116E05B894BF68134A3F5FA63A34234
:1009100012D302EB420100EB81004CF250314089CE
:10092000884201D9012000E0002040EA421047F24D
:100930000A01084380B2F0BD521C8A4297DB0020B6
:10094000F0BD000070B5134D04462878F8B1B4F836
:100950000100411E1F2915D8C1B20F4A28699042D3
:1009600002D102F5C07000E00B48FFF777FF18B125
:10097000BDE8704001F05CB8607868700120E870F4
:10098000002000E00C20BDE8704001F072B80D209E
:10099000F9E70000100000209000002030B4124958
:1009A0000278124B0C7802F00F016CB10F2904D2BF
:1009B00053F82110B1B90B200FE081780029FAD14A
:1009C0000A49091F09680DE0120709D00E2902D152
:1009D000B0F8012022B10648007830BC01F049B8D7
:1009E00053F8211030BC084710000020D43900080B
:1009F00009000020044B01228240186809B110430D
:100A000000E09043186070470074004030B5084C17
:100A1000236840F6FE7282409343D1E900252A43C1
:100A2000D1E902510D432A4382401A43226030BD6E
:100A300000740040034A08B510440830009001607B
:100A400008BD00000074004010B5114C8CB0204669
:100A500000F030F80F4800900F48019010200290ED
:100A600001200021CDE90301059120200691CDE967
:100A700007104FF44050CDE909016946204600F0C7
:100A80008BF80121204600F009F80CB010BD0000E1
:100A90001C0402400C3001400800002000290168BD
:100AA00002D041F0010102E04FF6FE7211400160F8
:100AB0007047000001684FF6FE721140016000218E
:100AC000016041608160C1603149314A083990421A
:100AD00003D1486840F00F0006E02D4A14329042DE
:100AE00004D1486840F0F00048607047284A283236
:100AF000904203D1486840F47060F5E7244A3C32E4
:100B0000904203D1486840F47040EDE7204A5032EB
:100B1000904203D1486840F47020E5E71C4A6432F3
:100B2000904203D1486840F47000DDE7184A7832FB
:100B3000904203D1486840F07060D5E7154A111F14
:100B4000904203D1086840F00F0006E0114A1432C9
:100B5000904204D1086840F0F000086070470D4AE8
:100B60002832904203D1086840F47060F5E7094AE2
:100B70003C32904203D1086840F47040EDE7054AEA
:100B800050329042EAD1086840F47020E5E7000056
:100B9000080002400804024030B5026847F6F073CE
:100BA0009A430C6A8B682343D1E904452C432343C1
:100BB0008C692343CC6923434C6A23438C6A2343C7
:100BC00013430360CA6842600A6882604968C16072
:100BD00030BD1FB50C200090002001900290022033
:100BE000039069460020FFF711FF01210020FFF765
:100BF00001FF1FBD70B5164C032202EB820304EB0C
:100C0000830393F9005093F90160B54201D19D78B7
:100C1000CDB102EB820504EB850494F9004003EBAF
:100C20004405641E1C70AC880480521C0A7093F941
:100C30000000002801DA07201870987808B1002019
:100C40009870012070BD521ED7D5002070BD0000E5
:100C50004000002010B500F0BDFE00F0D9F802F011
:100C60001BF902F01FF800F0EDFDFFF773FDFFF731
:100C7000B0FF00F015FFBDE81040FFF7E5BE000033
:100C800000EB8002114800EB820010F8122C0AB130
:100C90000020704710F9132C00EB4203521E00F89D
:100CA000132C23F8101C10F9131C002902DA072159
:100CB00000F8131C10F9131C10F9142C914202D1E6
:100CC000012100F8121C01207047000040000020A4
:100CD0000548016841F010010160034810300168C7
:100CE00041F4E0210160704714ED00E010B58A077F
:100CF00021F003040649120F21440F238C6893400E
:100D00009C438C608B68904003438B6010BD000057
:100D100000000140F0B5CC78002204F00F03E40697
:100D200001D58C7823430C784FF00F0C14F0FF0F93
:100D30004FF0010E1BD005680E880EFA02F4264013
:100D4000A64210D196000CFA06F725EA070703FA27
:100D500006F5CE783D43282E02D0482E02D002E080
:100D6000446100E00461521C082AE5D305600A884A
:100D7000FF2A1CD94468002202F108060EFA06F583
:100D80000E882E40AE420ED196000CFA06F7BC43F8
:100D900003FA06F7CE783C43282E00D14561CE7881
:100DA000482E00D10561521C082AE5D34460F0BDED
:100DB000F0B5144C002801DAE36900E06368450DE2
:100DC0002E0185B2C0F30157B540C0F30342032F93
:100DD00005D0C6020AD503269640B34307E023F0A8
:100DE0007062636823F07063636002E0AB4343F0BA
:100DF000706201B12A43002801DAE261F0BD62604D
:100E0000F0BD000000000140416170470161704782
:100E10002DE9F84F4FF48060ADF80000DFF818A11D
:100E200004258DF8035069465046FFF773FF4FF4D1
:100E30004070ADF8000003248DF8024018268DF8AC
:100E4000036069465046FFF765FFAF01ADF80070DB
:100E50008DF8035069465046FFF75CFFE001ADF89E
:100E60000000DFF8D8908DF802408DF803606946E5
:100E70004846FFF74FFF8020ADF800006946504616
:100E8000FFF748FF4FF4C4614846FFF7BFFF40211A
:100E90004846FFF7B9FF4FF4CC60ADF800004FF0C3
:100EA00010088DF803808DF8024069464846FFF728
:100EB00031FF0820ADF800008DF803506946504618
:100EC000FFF728FFADF800508DF802408DF8036061
:100ED00069465046FFF71EFFADF800400020184D50
:100EE0008DF8030069462846FFF714FF0120ADF88E
:100EF000000069465046FFF70DFF39462846FFF7C8
:100F000083FFADF800708DF803808DF802406946CC
:100F10002846FFF7FFFE6815ADF8000028208DF881
:100F2000030069462846FFF7F5FE09210120FFF777
:100F3000DDFEBDE8F88F0000000801400010014010
:100F4000000C01402DE9F047DFF89090002506469F
:100F5000B9F800102C462F4641F00401A9F8001002
:100F6000DFF87880A8F10C082021404601F0C9FF85
:100F70000028F9D0404602F039F8C10509D500240F
:100F80002746254610F0F00FEED1C5B23570741C1F
:100F9000EAE7002CE8D03178C943090709D0F11CF1
:100FA0008C420FD204F8010B2844C5B2DCE70024C0
:100FB000DAE7711C8C4203D1C1B28F19FF1CF1E733
:100FC000BC42EFD1C0B2A842F1D1B9F8001021F073
:100FD0000401A9F80010A01BBDE8F0870C380140FF
:100FE000C2880189AAB189B1B0F90210002907DAD3
:100FF000B0F90420002A03DA914205DB104670475D
:10100000B0F904008142FADD08467047B0F90200E9
:10101000704711B1B0F904007047002070470621F5
:101020000420FFF70DFC00F0FBFB000010B5B0F84A
:1010300001204FF69C7152B1012A11D0022A17D01B
:101040000A2A1BD0BDE810400B2000F012BD002082
:1010500000F013FDFFF75AFB0E490120087012E063
:101060000078BDE8104000F00F00082100F005BD39
:10107000BDE810400821084800F0DEBC002000F068
:10108000FCFC01F00FF90021BDE810400120FFF742
:10109000F7BD000010000020000000202DE9F04105
:1010A000FE4CA078FE4D00EB4000FE4E296801EB9F
:1010B00080004189304601F074FDA078296800EB7A
:1010C000400001EB80004189304601F06EFDA078C0
:1010D000F44A00EB40012868303210F821101180EA
:1010E000F0490C310A8822F001020A80ED4A1432DC
:1010F000138843F0010313800A1D138823F00103B2
:1011000013800A8842F001020A80A178E64E01EBC2
:10111000410100EB81014FF0010849786FF01D0794
:101120000906A178424601EB410100EB81004FF036
:101130000001B0F902007DD400F0BAFEA07800EB07
:101140004001286800EB81014988E180A178A278FC
:1011500001EB410100EB8101C98802EB420200EB87
:101160008202B2F90220BA421ADBA27802EB4202F2
:1011700000EB8202B2F902201E327CD0A27802EB90
:10118000420200EB8202B2F90220143274D0A2783B
:1011900002EB420200EB8200B0F902000A306CD090
:1011A0000620084481B2304601F0FFFC6022042191
:1011B000304601F0BBFCA078A27800EB4001286823
:1011C00000EB8101C98802EB420200EB8202B2F916
:1011D0000220BA421ADBA27802EB420200EB820242
:1011E000B2F902201E327CD0A27802EB420200EB60
:1011F0008202B2F90220143274D0A27802EB4202C9
:1012000000EB8200B0F902000A306CD006200844DE
:1012100081B2304601F0C7FCA0782A6800EB40019B
:1012200002EB8100C088001F81B2304601F0C1FC92
:10123000012200E0E9E00421304601F0B7FAA0788D
:1012400000EB4001286800EB8101098900297DD06D
:10125000A178A27801EB410100EB8101C98802EB82
:10126000420200EB8202B2F90220BA421EDBA278EF
:1012700002EB420202E07EE07FE080E000EB8202CF
:10128000B2F902201E3274D0A27802EB420200EBC7
:101290008202B2F9022014327CD0A27802EB420220
:1012A00000EB8200B0F902000A3075D00620084435
:1012B00081B2304601F07BFC70220821304601F0FB
:1012C00035FCA07800EB4001286800EB8101CA885A
:1012D000A17801EB410100EB810109891144A27859
:1012E00002E04EE04FE051E002EB420200EB8202EE
:1012F000B2F90220BA421ADBA27802EB420200EBFA
:101300008202B2F902201E3248D0A27802EB4202D9
:1013100000EB8202B2F90220143241D0A27802EB33
:10132000420200EB8200B0F902000A303AD00620F7
:10133000084481B2304601F036FCA078296800EB01
:10134000400001EB8000FFF74BFE00E05AE0014651
:10135000A07800EB4002286800EB8202B2F902207C
:101360009142A17801EB41011ED100EB8100C088C0
:1013700024E00DE00EE00E2013E7142011E72120F9
:101380000FE70E2043E7142041E705E021203EE768
:101390000E208CE714208AE7212088E70E20C7E77B
:1013A0001420C5E72120C3E700EB8101CA88A1789A
:1013B00001EB410100EB810000891044001F81B264
:1013C000304601F0F6FB01220821304601F0EEF92B
:1013D000A07800EB4001286800EB8101B1F9022000
:1013E000A17801EB410100EB8100B0F904008242D9
:1013F0007ED084F803800421304601F0E2F9012216
:10140000042171E10022082174E100F051FDA0786F
:1014100000EB4001286800EB81014988E180A17858
:10142000A27801EB410100EB8101C98802EB420285
:1014300000EB8202B2F90220BA421ADBA27802EB78
:10144000420200EB8202B2F902201E327DD0A27865
:1014500002EB420200EB8202B2F90220143275D094
:10146000A27802EB420200EB8200B0F902000A30DF
:101470006DD00620084481B2304601F098FB60220E
:101480000821304601F052FBA078A27800EB400121
:10149000286800EB8101C98808E0000008000020EE
:1014A00020000020002C01400034014002EB4202E9
:1014B00000EB8202B2F90220BA421CDBA27802EBF6
:1014C000420200EB8202B2F902201E327ED0A278E4
:1014D00002EB420200EB8202B2F90220143276D013
:1014E000A27802EB420200EB8200B0F9020000E0B9
:1014F000FDE00A306CD00620084481B2304601F08D
:1015000052FBA0782A6800EB400102EB8100C08802
:10151000001F81B2304601F04CFB01220821304609
:1015200001F044F9A07800EB4001286800EB81014C
:10153000098900297ED0A178A27801EB410100EB56
:101540008101C98802EB420202E087E088E089E07D
:1015500000EB8202B2F90220BA421ADBA27802EB57
:10156000420200EB8202B2F902201E3274D0A2784D
:1015700002EB420200EB8202B2F9022014327CD06C
:10158000A27802EB420200EB8200B0F902000A30BE
:1015900075D00620084481B2304601F006FB702267
:1015A0000421304601F0C2FAA07800EB400128681F
:1015B00000EB8101CA88A17801EB410100EB8101B8
:1015C00009891144A27802EB420202E04CE04DE0AE
:1015D0004EE000EB8202B2F90220BA421ADBA27896
:1015E00002EB420200EB8202B2F902201E3248D026
:1015F000A27802EB420200EB8202B2F9022014321E
:1016000041D0A27802EB420200EB8200B0F9020066
:101610000A303AD00620084481B2304601F0C3FABD
:10162000A078296800EB400001EB8000FFF7D8FCB0
:10163000014600E05CE0A07800EB4002286800EB87
:101640008202B2F902209142A17801EB41011ED140
:1016500000EB8100C08824E00DE00EE00E2009E7D9
:10166000142007E7212005E70E2045E7142043E773
:10167000212041E703E00E208CE714208AE7212097
:1016800088E70E20C7E71420C5E72120C3E700EB59
:101690008101CA88A17801EB410100EB810000893A
:1016A0001044001F81B2304601F083FA0122042168
:1016B000304601F07BF8A07800EB4001286800EB91
:1016C0008101B1F90220A17801EB410100EB810019
:1016D000B0F90400824210D084F80380082130461B
:1016E00001F06FF801220821304601F019F904E0F9
:1016F00000220421304601F059F8A078802141EA07
:1017000080002070A078296800EB400001EB800089
:101710004078C1070A4809D0016941F400710161AC
:10172000416941F480614161BDE8F081416941F462
:1017300000714161016941F480610161F4E70000D9
:101740000010014070B5184C217851B3174A216937
:101750009142C17801EB410101D102F5C07202EB67
:10176000810241780C23491EB1FBF3F503FB1511EF
:1017700021B16420BDE8704000F07BB9012105E093
:1017800043185518DB7805F8013C491C43788B4217
:10179000F6DC002000F06DF90120A0700020E07060
:1017A00070BD0D20E6E70000100000209000002032
:1017B00004210846FFF744F800F032F830B50F2353
:1017C000C27801780125F2B1144A126801F1E021D2
:1017D00002F4E062C2F5E062120AC2F10404D340EE
:1017E0004278A24084781C401443220181F80024EE
:1017F000007800F01F018D404009800000F1E020DA
:10180000C0F8005130BD01F01F008540480980003C
:1018100000F1E020C0F8805130BD00000CED00E088
:10182000BFF34F8F05480168054A01F4E061114399
:101830000160BFF34F8F00BFFDE700000CED00E03B
:101840000400FA0508B519208DF8000001208DF874
:1018500003006846FFF7B2FF2D208DF800006846B0
:10186000FFF7ACFF2E208DF800006846FFF7A6FFBB
:1018700036208DF800006846FFF7A0FF26208DF87F
:1018800000006846FFF79AFF12208DF800006846B6
:10189000FFF794FF08BD000001490862704700008F
:1018A00000000E42034A516821F440410143516057
:1018B0007047000000100240044A0029516901D01D
:1018C000014300E081435161704700000010024075
:1018D000044A0029D16901D0014300E08143D1616C
:1018E0007047000000100240044A0029916901D0AD
:1018F000014300E081439161704700000010024005
:101900000248416A41F08071416270470010024014
:1019100030B5204A5168204B11F00C0103D0042946
:1019200001D0082901D0036012E05168536801F426
:1019300070114FF0020413F4803F04EB914102D088
:1019400053689B0301D5154B00E0134B59430160CD
:1019500051680F2303EA1111114B5C5C0168E140EF
:1019600041605468072505EA14241C5D21FA04F43B
:101970008460546805EAD4241B5DD940C160526874
:10198000032303EA9232064B1B1F9A5CB1FBF2F170
:10199000016130BD0010024000127A0000093D00D4
:1019A0002E000020034600205909094A01290AD0C7
:1019B00002290AD0516A03F01F02012393400B420F
:1019C00000D0012070471168F5E7116AF3E70000C5
:1019D0000010024010B5012147F61D60FFF784FF9B
:1019E0004FF48040FFF75EFF4FF4C06000F016F840
:1019F00001210648FFF76CFF01210220FFF75CFF81
:101A0000BDE81040042000F003B8000010000220E0
:101A10000149C8717047000000100240034A516834
:101A200021F4E06101435160704700000010024062
:101A30000146002000F021B810B5C2B00C469DF858
:101A40000010621E21F0F00141F00F018DF800102E
:101A5000611E8DF8011001788DF80210411C0DF106
:101A60000300FEF7D3FBA11C684600F0C3F842B0A8
:101A700010BD01460020AFF3008000B5C1B09DF855
:101A8000002060F3030222F0F0008DF80000ADF8B2
:101A900001100321684600F0ADF841B000BD000020
:101AA00010B586B04FF440400121ADF80000ADF80C
:101AB00008104FF482704902ADF80200ADF80A1028
:101AC00000201821ADF80C10ADF80400ADF80600A8
:101AD000ADF80E000520064CADF810006946204612
:101AE00000F012F80121204600F004F806B010BD05
:101AF000003001400029018802D041F0400101E09E
:101B000021F040010180704730B502884C8802F412
:101B100041530A88CD8822438C882C4322430C8968
:101B200022434C8922438C892243CC8922431A4385
:101B30000280828B22F400628283098A018230BD96
:101B400010B5FFF7C5F8FEF767FE7C20FFF72AFF08
:101B5000144C012819D07B20FFF724FF01281DD049
:101B60007A20FFF71FFF012818D07E20FFF71AFF09
:101B7000012815D07D20FFF715FF012810D0072080
:101B80006070BDE81040FFF7BBBE0420FEF750FEBA
:101B9000607000210420FEF753FEF2E70120EFE71A
:101BA0000220EDE7080000200349B0F80100888119
:101BB0000020FFF75EBF0000100000200349B0F8CE
:101BC0000100C8810020FFF754BF00001000002072
:101BD000064B10B500221A710143054801F00AFABC
:101BE000BDE8104044F61D1000F06EBA0800002059
:101BF000004400402DE9F041164F884606468021FA
:101C0000384601F07EF90028F9D03578384645F499
:101C1000807101F0EFF901240DE08021384601F0D8
:101C200070F90028F9D0315D4819C5B2384601F085
:101C3000E1F9641CE4B24445EFD38021384601F059
:101C400060F90028F9D029463846BDE8F04101F096
:101C5000D1B9000000380140184B1978012900D093
:101C600000219A781142154A126906D014498A4215
:101C700002D101F5C07200E0114A99891F291BD8D1
:101C80005B785B1E994214DCB0F9010000F57A73B1
:101C9000B3F5FA6F06D947F2030040EA411080B26B
:101CA000FFF7C6BE01EB410102EB81014880002035
:101CB00000E06620FFF7DDBE6520FBE71000002096
:101CC000900000201F4B30B41978012900D000216A
:101CD0009A7811421B4A126906D01B498A4202D1E6
:101CE00001F5C07200E0184A99891F2927D85B784E
:101CF0005B1E99421FDCB0F80100A8B1A0F164039B
:101D000041F22534A3420FD341F28832904201D9E7
:101D1000012000E0002040EA411047F2060108439C
:101D200030BC80B2FFF784BE01EB410102EB8101C0
:101D3000C880002000E0662030BCFFF79ABE652016
:101D4000FAE700001000002090000020194B1978DD
:101D5000012900D000219A781142164A126906D052
:101D600015498A4202D101F5C07200E0124A9989F0
:101D70001F291DD85B785B1E994216DCB0F8010064
:101D800060B101280AD0802808D0812806D047F207
:101D90000D0040EA411080B2FFF74ABE01EB41015D
:101DA00002EB81014870002000E06620FFF761BE71
:101DB0006520FBE71000002090000020184B1978E8
:101DC000012900D000219A781142154A126906D0E3
:101DD00014498A4202D101F5C07200E0114A998982
:101DE0001F291BD85B785B1E994214DCB0F90100F7
:101DF00000F57A73B3F5FA6F06D947F2050040EAA9
:101E0000411080B2FFF714BE01EB410102EB8101EA
:101E10008880002000E06620FFF72BBE6520FBE7EE
:101E200010000020900000201F4B30B419780129C9
:101E300000D000219A7811421B4A126906D01B4932
:101E40008A4202D101F5C07200E0184A99891F291F
:101E500027D85B785B1E99421FDCB0F80100A8B15F
:101E6000A0F1640341F22534A3420FD341F288323A
:101E7000904201D9012000E0002040EA411047F2E1
:101E80000601084330BC80B2FFF7D2BD01EB41012F
:101E900002EB81010881002000E0662030BCFFF7E2
:101EA000E8BD6520FAE70000100000209000002047
:101EB00070B50C4605465AB11B48002D04DD01697A
:101EC00041F04001016103E0416941F0400141619D
:101ED000280000D5684201F0F0FA002D02DD134A17
:101EE000134B01E0134A144B01F012FB6D1C18D088
:101EF000124A134B01F0ACF801F0B2FA81B20020A3
:101F0000FEF798FD002C0BD00E480168026842F0E5
:101F100038020260021D136843F001031360016080
:101F200070BD00221346E5E700100140E760D7DFEF
:101F3000BB140B40CB1DA0DC01CA0D403218158824
:101F4000C5ED5640007400400CB5002226480092B2
:101F50000192016841F4803101604FF4A06301688F
:101F600001F4003101910099491C0091019911B9C6
:101F700000999942F3D10168890333D50121019178
:101F80001A490A6842F010020A600A6822F0030245
:101F90000A600A6842F001020A60416841604168D3
:101FA0004160416841F480614160416821F47C11E5
:101FB0004160416841F488114160016841F08071DD
:101FC000016001688901FCD5416821F0030141608D
:101FD000416841F0020141604168C1F38101022979
:101FE000FAD10CBD01920CBD00100240002002404D
:101FF000124B197801290BD0002299780A420F4917
:10200000096908D00E4A914204D102F5C07102E07C
:102010000122F2E70A499A891F2A0DD85B785B1ED4
:102020009A4206DC02EB4202407801F822000020CE
:1020300000E06620FFF71DBD6520FBE710000020D3
:10204000900000201E4B30B41978012900D00021E7
:102050009A7811421A4A126906D01A498A4202D164
:1020600001F5C07200E0174A99891F2926D85B78CC
:102070005B1E99421EDCB0F801004BF68134A0F5DE
:10208000FA63A3420FD34CF25032904201D901209F
:1020900000E0002040EA411047F20A01084330BC4A
:1020A00080B2FFF7C5BC01EB410102EB8101488121
:1020B000002000E0662030BCFFF7DBBC6520FAE7BB
:1020C000100000209000002000B5024600F0E2F869
:1020D00002EB42000001401EB0F1807F01D30020DE
:1020E00000BD4FF0E0214861044AF02082F8140D51
:1020F0000020886107200861012000BD0FE000E09A
:102100001F4B10B51878002248B11E491E4C0868B4
:10211000A04201D11D4800E01B4808601A701C480D
:102120008270FEF7BBFF1B4C04212046FEF718FA15
:1021300001224FF490612046FEF747FA164C012227
:102140009103204600F04DFB4221204600F039FB70
:1021500001224221204600F0E3FB104C01212046E1
:1021600000F02FFB01221146204600F0D9FB402150
:10217000204600F0CDFC0A490220087010BD000086
:1021800012000020200000209000002010020020FB
:10219000080000200028014000340140002C0140CC
:1021A0001000002070B50A4C05462178022901D1A3
:1021B00000F078F8B5F801002081E07818B1FFF759
:1021C0009FFF002000E00D20BDE87040FFF751BCEC
:1021D0001000002070B5164C0546207828B36878AA
:1021E0006179884220790AD128B16189A079BDE856
:1021F0007040FFF742BCBDE87040FFF73ABC08B141
:10220000002020710A49891D081DFEF7F3FC30B13A
:102210006189A079FFF731FC0120207102E00020E4
:10222000FFF727FC6878607170BD02480078E2E72C
:102230001000002009000020F0B50022134E0227F4
:102240001446A6F5C07564234FF00A0C02EB420059
:1022500006EB800106F8207005F8207005EB800081
:102260004C7044704B8043808B808380CC80C480D2
:102270000B810381A1F80AC0521CA0F80AC0202AD1
:10228000E4DB0348202141700561F0BD100200200D
:10229000100000204FF0E020016921F001010161F0
:1022A0007047000070B5164C2188C907FCD1204644
:1022B00000F02EFC134D00220421284600F076FA8F
:1022C00000220821284600F071FA00224FF48041D4
:1022D000284600F086FA00220121204600F020FB6B
:1022E00000224221284600F01BFB00224FF490619F
:1022F0000548FEF76AF905490120087070BD000025
:10230000002C014000340140002801401000002052
:1023100010B5FFF7BFFF4FF0E020016921F48031D5
:10232000016110BD0F4810B5016841F00101016065
:1023300041680D4A1140416001680C4A114001603A
:10234000016821F480210160416821F4FE014160AF
:102350004FF41F018160FFF7F7FD05494FF0006062
:10236000086010BD001002400000FFF8FFFFF6FEFD
:1023700008ED00E070B5048C24F001040484058BA2
:10238000048C4FF6FF7606EA0313134325F0F3059A
:102390000E4A2B4390420ED00D4A90420BD0B0F122
:1023A000804F08D00B4A904205D00B4A904202D091
:1023B0000A4A904202D124F0020201E024F00A020B
:1023C0000A4342F001010383018470BD002C0140E7
:1023D000003401400004004000080040000C0040B0
:1023E000F0B5048C24F010040484078B048C4FF6A1
:1023F000FF7527F4734705EA03333B4305EA0222DE
:102400001A43114B05EA011698420ED00F4B984221
:102410000BD0B0F1804F08D00D4B984205D00D4B3A
:10242000984202D00C4B984205D124F02001314350
:1024300041F0100104E024F0A0030B4343F010012D
:1024400002830184F0BD0000002C014000340140F3
:102450000004004000080040000C004010B5204C73
:102460000121204600F0B0F9208820F001002080F2
:102470001021204600F085FB01221146901EFFF737
:1024800017FD184C0120002120711748E1700288C7
:1024900042F480420280154A1078401CC0B210708D
:1024A000134B1B78984200D311701248027832B156
:1024B00001700D4800220C210C3800F031FAFEF7B3
:1024C000EDFD0D49088838B10888401E0004000C55
:1024D000088001D1FFF7E6FEA078401CA07010BD77
:1024E000002C0140240000200C3401400A00002090
:1024F000110000200B0000201800002010B5012161
:102500002A4800F061F92A4C01212046FEF7EEF836
:1025100002212046FEF74BF80028F9D02046FEF7AE
:1025200043F800F0E1FF4FF06632224B00F0F0FF7D
:102530006FF00B0201F006FA00221F4B00F0E8FFDB
:1025400000221E4B00F034FE00F08AFF81B21C48CE
:10255000B1F5997F04D3026942F02002026106E0DE
:10256000B1F58E7F03D8426942F020024261154CDA
:102570006079401CC0B26071222804D10220FEF7AD
:102580007FFB0020607110480078104900EB40008C
:10259000096801EB80004078000601D4012100E0C9
:1025A0000221BDE810408020FFF712BB0010004060
:1025B0000024014066660A409B066341804FF2405A
:1025C00000100140240000200A000020200000200C
:1025D00070B536480188364E364D374C88073DD5A4
:1025E000208820F00100208030483430018821F418
:1025F0000041018001221146901EFFF759FC2F482F
:1026000001220021B0F90000FFF752FC2C480078AD
:1026100090B13178012201EB4100296801EB800083
:102620000021B0F90200FFF743FC2648016821F0C1
:10263000380141F0080101602348C1784A1CC2708A
:10264000224A1288914205D120491C390A8842F059
:1026500001020A804178491C41701BE011F00C0F07
:1026600018D01B48016841F480710160307800EB9C
:102670004001286800EB8100B0F9041015480029DA
:1026800004DD016941F04001016103E0416941F06D
:10269000400141610E21204600F096F80C48001DD3
:1026A000016841F48071016070BD00001034014088
:1026B0000A00002020000020003401400E0000200D
:1026C0000B0000200074004024000020302C01404A
:1026D000100C0140001001401F4810B5018841F066
:1026E000010101801C483030018841F40041018023
:1026F00019484021143800F067F8184C207978B157
:102700005021174800F03DFA13480838018821F499
:1027100080410180134801898907FCD5002181810E
:1027200011480078A0B111480078114900EB400031
:102730000022096801EB80001146B0F90400FFF7A0
:10274000B7FB0C48016821F0080141F0300101603D
:102750002078401C207010BD14340140240000205B
:10276000002C0140003001400B0000200A00002036
:10277000200000200074004010B50A884B88CC88E7
:102780001A438B8823431A430B891A434B8989893F
:102790001A430A43A0F8442010BD00210180418063
:1027A0008180C180018141818181704710B5012301
:1027B000048C8B409C430484038C8A401343038421
:1027C00010BDC94301827047C94301827047002987
:1027D000018802D041F0010101E021F001010180F6
:1027E0007047002A828901D00A4300E08A4382812F
:1027F000704700002DE9F84F0D4604460888434F06
:10280000DFF80CC1DFF80C81DFF80C914988AA8849
:102810002B894FF0804A48B3042830D04FF6FF761A
:102820000828934634D0208C9E4620F48050208483
:10283000A38B208C06EA0132009223F4734306EA4C
:102840000B221A4306EA0E331343BC420AD06445F6
:1028500008D0544506D0444504D04C4502D02F4AF8
:10286000944245D120F40050009943E02046FFF700
:1028700081FDE9882046BDE8F84F00F09DB920466B
:10288000FFF7AEFDE9882046BDE8F84F00F09CB99F
:10289000208C20F480702084B4F81CE0208C06EAA0
:1028A000031306EA01222EF0F30E43EA0B0343EA78
:1028B0000E030092BC420AD0644508D0544506D0AD
:1028C000444504D04C4502D0144A944203D120F42C
:1028D0000070009901E020F42060084340F480700B
:1028E000A3832084E9882046BDE8F84F00F078B93A
:1028F00020F40240084340F48050A3832084E988F8
:102900002046BDE8F84F00F073B90000002C0140EC
:10291000003401400004004000080040000C00406A
:10292000002A828901D00A4300E08A4382817047ED
:1029300030B5028C22F001020284028C8388048B61
:1029400022F0020224F073050C882C430D891543F4
:102950004A882A43114DA8420BD0114DA84208D0F5
:10296000104DA84205D0104DA84202D00F4DA842EC
:102970000DD122F008054A8923F440732A4322F03E
:1029800004058A882A438D891D43CB892B43838084
:102990000483C9888186028430BD0000002C014078
:1029A0000034014000400140004401400048014023
:1029B00070B5028C22F010020284028C8388048B92
:1029C0000D8824F4E6464FF6FF7404EA05253543E6
:1029D0000E8922F0200204EA061616434A8804EA09
:1029E00002123243104EB04202D0104EB04215D106
:1029F00022F080064A8923F4406304EA021232433B
:102A000022F040068A8804EA021232438E8904EAE0
:102A100086061E43CB8904EA830333438380058300
:102A2000C9880187028470BD002C01400034014038
:102A300070B5028C22F480720284028C8388848BAD
:102A40000D8824F0730425430E894FF6FF7422F499
:102A5000007204EA062616434A8804EA0222324338
:102A6000104EB04202D0104EB04215D122F4006692
:102A70004A8923F4405304EA0222324322F4806656
:102A80008A8804EA022232438E8904EA06161E432B
:102A9000CB8904EA0313334383808583C988818704
:102AA000028470BD002C01400034014070B5028CDE
:102AB00022F480520284058C8288838B0C8823F454
:102AC000E6464FF6FF7303EA0424344325F4005628
:102AD0000D8903EA053535434E8803EA06362E4351
:102AE000094DA84202D0094DA84205D122F48045E3
:102AF0008A8903EA82122A4382808483C988A0F8E3
:102B00004010068470BD0000002C014000340140DC
:102B1000028922F070020A4302817047028922F082
:102B20008002028102890A430281704730B5012484
:102B3000058C00F118038C40A543058489B1082950
:102B40000FD0091FC1F34E001844016821F4E04181
:102B5000016001684FF6FF7303EA0222114301602E
:102B600030BD03EB5100016821F070010160016884
:102B7000F4E7028822F00802028002880A430280F9
:102B80007047828822F07002828082880A438280A5
:102B90007047028922F00702028102890A430281FA
:102BA00070478185704781867047018770478187AC
:102BB0007047A0F840107047028B22F00C0202838D
:102BC000028B0A4302837047028B22F44062028325
:102BD000028B4FF6FF7303EA01210A430283704719
:102BE000828B22F00C028283828B0A43828370479D
:102BF000828B22F440628283828B4FF6FF7303EA5A
:102C000001210A438283704730B502881B4C1C4D5A
:102C1000A0420DD0A8420BD0B0F1804F08D0194B84
:102C2000984205D0184B984202D0184B984203D1D5
:102C300022F070034A881A43154B984206D0154B70
:102C4000984203D022F44073CA881A4302808A88CB
:102C500082850A880285A0420AD0A84208D00E4A7E
:102C6000904205D00D4A904202D00D4A904201D1C7
:102C7000097A01860121818230BD0000002C0140CB
:102C8000003401400004004000080040000C0040F7
:102C9000001000400014004000400140004401408A
:102CA000004801402DE9F04F8FB000242F260A275D
:102CB000DFF89881ADF81060ADF81470ADF81240EF
:102CC000ADF816408DF8184004A94046FFF79CFF68
:102CD000ADF81C40ADF822404FF0010AADF8244099
:102CE000ADF81E40ADF820A007A94046FFF782FDD1
:102CF0007025ADF80050ADF80240ADF80840ADF8D1
:102D0000067069464046FFF753FE08214046FFF72C
:102D100030FF10214046FFF734FF00214046FFF707
:102D2000F7FE06214046FFF734FF80214046FFF7BB
:102D3000F5FE01214046FFF744FD4FF6FF70ADF868
:102D40001400DFF80CB1ADF81060ADF81240ADF82A
:102D500016408DF8184004A95846FFF755FF022782
:102D6000F801ADF80C0060264000ADF80060ADF849
:102D70000440ADF808704FF00808ADF80E004FF0B1
:102D80006409ADF80240ADF80A80ADF806906946D6
:102D90005846FFF70DFEADF80050ADF80440ADF811
:102DA0000870ADF80240ADF80A80ADF806906946AB
:102DB0005846FFF73DFEADF80440C820ADF800606E
:102DC000ADF80A40ADF80600ADF80240ADF8084095
:102DD00069465846FFF7ACFD0AA8FFF7DEFCB802CB
:102DE000ADF828000AA95846FFF7C6FC002158464E
:102DF000FFF78EFE06215846FFF7CBFE42215846CC
:102E0000FFF7DFFCADF80050ADF802A0ADF80840C8
:102E1000ADF8064069465846FFF748FE102158466F
:102E2000FFF7AFFE47F23050ADF814000B20ADF8BD
:102E30001000ADF81640ADF812408DF8184004A906
:102E40000448FFF7E1FE0FB0BDE8F08F002C014011
:102E5000003401400010004070B50D4C204600F0D9
:102E6000C5F805462021204600F03EF8094C2078A0
:102E700058B1FFF70FFA00202070E80607D0294666
:102E8000BDE870400320FDF7FBBE0120207070BD3F
:102E9000004400400C0000207FB5684600F0AEF80A
:102EA00046F2A81000904FF480500D4DADF804008C
:102EB0000024ADF808406946284600F041F8012199
:102EC000284600F014F8684600F098F84FF4966031
:102ED0000090ADF804406946024800F031F87FBD2B
:102EE0000038014000440040C94301807047002978
:102EF000818902D041F4005101E021F40051818127
:102F000070470246002012880A4200D00120704714
:102F100010B5C1F3421301F01F040121A140012BA0
:102F200007D0022B07D01430002A026805D00A43CC
:102F300004E00C30F8E71030F6E78A43026010BD79
:102F400030B50446008A85B00D464CF6FF71084046
:102F5000E98801432182A0894EF6F3110840A9882F
:102F60002A8911436A8902431143A181A08A4FF63D
:102F7000FF410840A9890143A1826846FEF7C8FCC9
:102F80001948844201D1039800E00298A1890904FC
:102F900000EBC00101EB0010296801D5490000E0F9
:102FA0008900B0FBF1F06422B0FBF2F109010B09DA
:102FB0006FF018056B4300EB8300A3891D044FF0ED
:102FC000320306D503EBC000B0FBF2F000F00700BF
:102FD00005E003EB0010B0FBF2F000F00F00084337
:102FE000208105B030BD0000003801408088C0F36A
:102FF00008007047C1F30801818070474FF41651F3
:10300000016000218180C18001810C224281818187
:10301000704705210420FDF713FCFEF701FCC2B048
:103020004FF482716846FDF733F9FEF789FDFDF72D
:1030300011FE012211460020FEF73AFFFFF7FCF8CF
:103040006846FDF77FFF6846FDF7A8FCF8E700003B
:1030500010B591EA030F48BF83F0004300F15E838F
:10306000841A71EB030C05D2121943EB0C03001BFD
:1030700061EB0C01DFF824E14FEA1154A4EB135C7F
:103080001EEA430F18BF9EEA445F73D023EA0E0383
:10309000DCF1200E21EA045143F4801332D322FAEA
:1030A0000CFE10EB0E0023FA0CFE41EB0E01CCF1EE
:1030B000200E03FA0EFE10EB0E0051F10001B1F5E7
:1030C000801FCCF1200E32D201EB045112FA0EF225
:1030D000BDE8104058BF7047401C38BF5FEA42024D
:1030E00018BF7047002814BF20F0010041F1000113
:1030F0004FEA410313F5001F38BF7047A1F1C041EB
:1031000000F0FEBA012A43EB0302ACF1200CDCF123
:103110001F0E32BF4FF0000E23FA0CF310EB03002A
:1031200041EB0451B4EB115FD0D0A1EB045101F598
:10313000801149085FEA300001EB04510ED350F1D1
:10314000000038BF12FA0EFE08D1BDE81040C9E7F2
:10315000401C38BF5FEA4202CAD1C3E7BDE8104055
:103160004FEA410313F5001F38BF7047A1F1C0417A
:1031700000F0C6BA9EEA445F08D011EA5E0FBDE8CF
:10318000104004BF01F0004100207047BDE810402E
:1031900070B500F067FA00BF64FBBE3E0000E0FFC0
:1031A00002494FF0000000F09BBB00BF0000F87F19
:1031B0002DE9C04130B4DFF8A0C23CEA111418BFB9
:1031C0003CEA131400F0EC8081EA03051CEA1114B8
:1031D00044EAD57418BF1CEA131500F0C780A4EBAD
:1031E00005044FF0004545EAC12145EAC32341EA01
:1031F000505143EA525304F17F74994204F500346C
:103200004FEAC0204FEAC22208BF904200F09C80E3
:103210004FEA13650FF24016765D4FEA134506FB41
:1032200005F7C7F1807706FB07F74FEAD737A7FB0B
:1032300003687642C8F58038A7FB06CE38BFA8F1F0
:10324000010807FB08E64FF0000EA6FB028CE6FB28
:1032500003CEDCF1000CCEF1004E38BFAEF1010E12
:10326000A6FB0C584FF000074FF00005E6FB0E8759
:10327000A1FB08C6A0FB07CE16EB0E0645F1000524
:10328000E1FB076515F1E04E7EBFA4F580345FEAEF
:1032900046066D4116F1800745F100054FEA1727F4
:1032A0004FEA066647EA0567A6F1DE46B6F1805F9B
:1032B0004FEA15251FD9384624F0010C05EBC471DF
:1032C000BCF1FE6F01EB0C1102D8F0BCBDE800812F
:1032D00024425CBF01F5801E9EEAC47F02D4F0BC8C
:1032E000BDE80081244238D4F0BCA1F1C041BDE862
:1032F000004100F005BA4FEAD22242EA43524FEAB7
:10330000D323A7FB02864FEAD02040EA415007FBB7
:1033100003661EEA0E0F4FEAD12105FB026658BF75
:10332000A6EB0056B6EB00564FEA520E4EEAC37EAD
:1033300018EB0E0E56EB530EBDD518EB02085E418E
:103340007F1C55F10005B6E74FF480154FF00007DC
:103350004FF000064FF00008ADE7F0BC4FF0000062
:1033600001F1C04101F00041BDE8008111EA0C1FEC
:103370000CEA131500D00CE013EA0C1F00F02580B6
:103380004FF00000F0BC81EA030101F00041BDE80C
:103390000081F0BCBDE8004181EA030100F0B0B952
:1033A000F0BCBDE8004170B500F05CF9097EFC3E60
:1033B00000F007B881EA03014FF0000001F000417E
:1033C000704781EA030100F09BB9F0BCBDE8004101
:1033D0004FF0000021497047FFFDFBF9F7F5F4F2CB
:1033E000F0EEEDEBE9E8E6E4E3E1E0DEDDDBDAD8A0
:1033F000D7D5D4D3D1D0CFCDCCCBCAC8C7C6C5C4FE
:10340000C2C1C0BFBEBDBCBBBAB9B8B7B6B5B4B314
:10341000B2B1B0AFAEADACABAAA9A8A8A7A6A5A4FF
:10342000A3A3A2A1A09F9F9E9D9C9C9B9A999998C3
:103430009797969595949393929191908F8F8E8E66
:103440008D8C8C8B8B8A89898888878786858584F3
:1034500084838382828181800000FF070000F87FDF
:103460004FEA1153A3F58063D3F11E03A8BFD3F134
:10347000200C08DB4FF0004242EAC12252EA5052CF
:1034800032FA03F0704709420BD4102BC4BF00205E
:10349000704703F5787CBCF1FF3F05D04FF0FF305B
:1034A00070474FF00000704770B500F0DBF800BFC8
:1034B0004992248000207047F0E710F0004248BF96
:1034C0004042B0FA80F310FA03F10AD0C3F11D03B1
:1034D00003F580634FEA415002EB035202EBD12126
:1034E00070474FF000007047B0FA80F310FA03F114
:1034F0000AD0C3F11D0303F580634FEA41504FEA40
:10350000035202EBD12170474FF0000070470000DA
:10351000DFF848C170B51CEA111E1EBF1CEA131566
:103520009EEA0C0F95EA0C0F00F06F8081EA03040D
:1035300023EA4C134EEAD47E21EA4C1141F4801167
:1035400043F48013AE44A1FB024CA0FB0365AEF133
:103550007F7E361955EB0C05A1FB034C4CF10003A3
:10356000A0FB021C16EB0C06654153F10003094257
:1035700018BF46F0010613F4007F0BD14FEA033168
:103580004FEA0530340341EA155140EA16506FF016
:1035900003020AE04FEAC3214FEAC520F40241EAE0
:1035A000555140EA56506FF0020202EB2E4201EBF9
:1035B000025585EACE710AD05FEA440C18BF24F0A8
:1035C000004450F1000041F1000120EAD47040F2C3
:1035D000FE7C624500D270BDA84214BF4FF080440B
:1035E0004FF04044002E08BF0024BEF1806FA8BFFA
:1035F000A1F1C041BDE8704080F282804FF0000030
:1036000001F1C04101F0004170479EEA0C0F0CEA45
:10361000131518BF95EA0C0F06D04FF0000081EA91
:10362000030E0EF0004170BD00F01CF88900013E51
:1036300000F007B800F009B84FEA430C5FEA5C5CA1
:1036400008D081EA030100F05BB84FEA410C5FEA61
:103650005C5CF6D14FF00000014970470000FF07A5
:103660000000F87F0EF1020E2EF0030E5EF8046BE0
:10367000364205D4012A43EB030515F5001F12D885
:10368000012841EB010C1CF5001F0CD80ED14FEAAC
:10369000D17C15F5001F0CEB4C0C0CF1020C08BF93
:1036A0004CEBD37C04E04FF0080C01E04FEAD37CF4
:1036B0000CEB4C0526FA05F606F00706B6F1040CED
:1036C00006D20EEB860CBDE870404CF0010C604752
:1036D000DFE80CF0090B02024FF000414FF0000050
:1036E000A1F5002170BD19461046012851EB0104D7
:1036F00018BFD4F5001484BF002001F0004170BD54
:103700000808A0F500114FEA3101704710B591EAA1
:10371000030F48BF83F000433FF5A2AC841A71EB5E
:10372000030C07D212198CF0004C43EB0C03001B66
:1037300061EB0C01DFF8A4E14FEA1154A4EB135C38
:103740001EEA430F18BF9EEA445F00F0B08023EAF0
:103750006E03524221EA0451C3EB6E0338BF5B1E75
:10376000DCF1200E25D322FA0CFE10EB0E0043FAFA
:103770000CFE41EB0E01CCF1200E03FA0EFE10EB15
:103780000E0051F10001CCF1200E29D412FA0EF2F4
:1037900001EB0451BDE8104058BF7047401C1CBFEE
:1037A000B2F1004F704700280CBF491C20F0010007
:1037B000704712EB020E43EB030218BF4FF0010EED
:1037C0004EEA4202ACF1200CDCF11E0E54D943FA51
:1037D0000CFE10EB0E0051F1FF31CCF11E0ED5D5D1
:1037E0000EF1010E12FA0EFE404141EB010101EB18
:1037F000445C5FEA5C5C10D910EBDE7001EB0451B5
:1038000038BFBEF1004FBDE8104018BF7047002818
:103810000CBF491C20F00100704730D24FEAD42C75
:1038200011F5001124F400641BD0B1FA81F20B3AB7
:10383000A41AA41ED2F12003914030FA03F31943D5
:10384000904001EBCC71002C01EB0451BDE810401D
:10385000A8BF704701F1C0414FF0000001F00041E6
:103860007047B0FA80F310FA03F100D110BDE41AEA
:10387000173C4805C90AE4E701EB045110BD4910A3
:1038800001EB0451BDE810404FEA300002E04FF078
:10389000000170474A0008BF0042F8D0B2F5001F8F
:1038A00028BF704701F000414FF0000070479EEACA
:1038B000445F07D011EA5E0FBDE8104004BF00214D
:1038C00000207047BDE8104070B5FFF7CBFE00BF89
:1038D00040DFF63E83F00041104670470000E0FFF5
:1038E0000CF00F03092B08BF082000F059800A2BA9
:1038F0000BD0082B18BF704708BF1CF0400F0AD030
:103900004FF000004FF0000170471CF0400F18BF4F
:103910004FF0004070471CF0100F08D020F07043AB
:1039200000F07F4242EAD3014FEA4370704700F053
:10393000604021F07F4242EA000201F07F4040EA0D
:10394000727070474FF0FF0C4CF4E06C1CEA11539E
:103950001CBF9CEA030C9445C2BFDA4201EB025142
:103960007047002B0DD0BCF1000F0FD0002A01F0E2
:103970000041A4BF41F0E04141F07F614FF0000001
:10398000704701F000414FF00000704750EA0133EA
:103990004FF09B0C18BF4CF0806C7FF401AC70476B
:1039A0001CF4801F11D01CF4E02F03D06FEACC313F
:1039B000490070474FF04050EFF3008222F0704210
:1039C00042EA000282F3008870474FF0000070471F
:1039D00045170008D5210008A91B0008BD1B0008D9
:1039E000591C0008BD1D0008F11F00084D1D0008EE
:1039F000C51C0008291E00084520000845090008CC
:103A0000A521000800000000000000002D100008A3
:103A1000303A000800000020400000006C0100085F
:103A2000703A000840000020B0090000880100083A
:103A30000100000000000000000000000000000085
:103A40000000000100000000000000000000000075
:103A5000000000000000000001140204060800003D
:103A60000000010203040102030406070809000024
:0400000508000131BD
:00000001FF
