:020000040800F2
:1000000078060020CD010008D5010008C9030008CA
:10001000D5030008B5020008D7070008000000005B
:10002000000000000000000000000000DF010008E8
:10003000E101000800000000E3010008E5010008FC
:10004000E7010008E7010008E7010008E7010008F0
:10005000E7010008E7010008E7010008E7010008E0
:10006000E7010008E7010008E7010008E7010008D0
:10007000E7010008E7010008E7010008E7010008C0
:10008000E7010008E7010008E7010008E7010008B0
:10009000E7010008E7010008E7010008E7010008A0
:1000A000E7010008E7010008E7010008E701000890
:1000B000E7010008E7010008E7010008E701000880
:1000C000E7010008E7010008E7010008E701000870
:1000D000E7010008E7010008E7010008E701000860
:1000E000E7010008E7010008E7010008E701000850
:1000F000E7010008E7010008E7010008E701000840
:10010000E7010008E7010008E7010008E70100082F
:10011000E7010008E7010008E7010008E70100081F
:10012000E7010008E7010008E7010008E70100080F
:1001300000F002F800F03AF80AA090E8000C8244BF
:100140008344AAF10107DA4501D100F02FF8AFF29C
:10015000090EBAE80F0013F0010F18BFFB1A43F0A5
:1001600001031847A4060000C4060000103A24BF8B
:1001700078C878C1FAD8520724BF30C830C144BF0C
:1001800004680C607047000000230024002500264E
:10019000103A28BF78C1FBD8520728BF30C148BFEA
:1001A0000B6070471FB51FBD10B510BD00F031F8D2
:1001B0001146FFF7F7FF00F015FB00F04FF803B40E
:1001C000FFF7F2FF03BC00F053F800000948804736
:1001D00009480047FEE7FEE7FEE7FEE7FEE7FEE729
:1001E000FEE7FEE7FEE7FEE704480549054A064B41
:1001F0007047000065060008310100087800002003
:1002000078060020780200207802002070477047AE
:100210007047754600F028F8AE460500694653461B
:1002200020F00700854618B020B5FFF7DDFFBDE8D8
:1002300020404FF000064FF000074FF000084FF04D
:10024000000B21F00701AC46ACE8C009ACE8C009DE
:10025000ACE8C009ACE8C0098D4670470446AFF36E
:1002600000802046FFF7ABFF0048704718000020D1
:1002700001491820ABBEFEE726000200704710B50A
:1002800001214FF0C05000F0C3F8BDE8104001203C
:1002900000F0B8B808B5024908440090008808BDCD
:1002A000006C004008B5024A10440090016008BD8F
:1002B000006C004003210420FFF7F4FF00F090F8E9
:1002C00010B500F027F900F061F8BDE8104000F02B
:1002D000F1B900000548016841F0100101600348D0
:1002E0001030016841F4E0210160704714ED00E036
:1002F000F0B5CC78002204F00F03E40601D58C7829
:1003000023430C784FF00F0C14F0FF0F4FF0010E49
:100310001BD005680E880EFA02F42640A64210D1C2
:1003200096000CFA06F725EA070703FA06F5CE78D9
:100330003D43282E02D0482E02D002E0446100E066
:100340000461521C082AE5D305600A88FF2A1CD9DB
:100350004468002202F108060EFA06F50E882E40C7
:10036000AE420ED196000CFA06F7BC4303FA06F72C
:10037000CE783C43282E00D14561CE78482E00D15E
:100380000561521C082AE5D34460F0BD38B54FF42E
:100390008060ADF8000004200A4C8DF80300694627
:1003A0002046FFF7A5FF4FF44071ADF80010032180
:1003B0008DF8021018218DF8031069462046FFF7CA
:1003C00097FF38BD0008014006210420FFF76AFFAF
:1003D00000F006F804210846FFF764FF00F000F87B
:1003E000BFF34F8F05480168054A01F4E0611143EE
:1003F0000160BFF34F8F00BFFDE700000CED00E090
:100400000400FA05014908627047000000000E422E
:10041000044A0029D16901D0014300E08143D16140
:100420007047000000100240044A0029916901D081
:10043000014300E0814391617047000000100240D9
:100440000248416A41F080714162704700100240E9
:1004500030B5204A5168204B11F00C0103D004291B
:1004600001D0082901D0036012E05168536801F4FB
:1004700070114FF0020413F4803F04EB914102D05D
:1004800053689B0301D5154B00E0134B59430160A2
:1004900051680F2303EA1111114B5C5C0168E140C4
:1004A00041605468072505EA14241C5D21FA04F410
:1004B0008460546805EAD4241B5DD940C160526849
:1004C000032303EA9232064B1B1F9A5CB1FBF2F145
:1004D000016130BD0010024000127A0000093D00A9
:1004E00005000020034600205909094A01290AD0C5
:1004F00002290AD0516A03F01F02012393400B42E4
:1005000000D0012070471168F5E7116AF3E7000099
:100510000010024010B5012144F20500FFF784FFEE
:100520004FF4C06000F00CF8BDE81040042000F06B
:1005300001B800000149C871704700000010024076
:10054000034A516821F4E0610143516070470000A3
:100550000010024010B5FFF7BDFEFFF790FE7C20B3
:10056000FFF7C0FF144C012819D07B20FFF7BAFF1A
:1005700001281DD07A20FFF7B5FF012818D07E2072
:10058000FFF7B0FF012815D07D20FFF7ABFF012852
:1005900010D007202070BDE81040FFF751BF0420A5
:1005A000FFF778FE207000210420FFF77BFEF2E7C2
:1005B0000120EFE70220EDE7000000200CB500224B
:1005C000264800920192016841F4803101604FF4A5
:1005D000A063016801F4003101910099491C009168
:1005E000019911B900999942F3D10168890333D572
:1005F000012101911A490A6842F010020A600A6852
:1006000022F003020A600A6842F001020A604168AF
:10061000416041684160416841F4806141604168E6
:1006200021F47C114160416841F488114160016806
:1006300041F08071016001688901FCD5416821F0B9
:1006400003014160416841F0020141604168C1F32A
:1006500081010229FAD10CBD01920CBD00100240AB
:10066000002002400F4810B5016841F0010101600F
:1006700041680D4A1140416001680C4A1140016017
:10068000016821F480210160416821F4FE0141608C
:100690004FF41F018160FFF791FF05494FF00060A3
:1006A000086010BD001002400000FFF8FFFFF6FEDA
:1006B00008ED00E01FB5684600F082F846F2A81089
:1006C00000904FF48050ADF804000020054CADF8C8
:1006D00008006946204600F019F80121204600F084
:1006E00003F81FBD003801400029818902D041F480
:1006F000005101E021F40051818170470246002041
:1007000012880A4200D001207047000030B504462C
:10071000008A85B00D464CF6FF710840E988014318
:100720002182A0894EF6F3110840A9882A89114335
:100730006A8902431143A181A08A4FF6FF41084014
:10074000A9890143A1826846FFF782FE19488442C5
:1007500001D1039800E00298A189090400EBC001CF
:1007600001EB0010296801D5490000E08900B0FBC9
:10077000F1F06422B0FBF2F109010B096FF01805EA
:100780006B4300EB8300A3891D044FF0320306D5B1
:1007900003EBC000B0FBF2F000F0070005E003EB54
:1007A0000010B0FBF2F000F00F000843208105B00C
:1007B00030BD000000380140C1F30801818070475E
:1007C0004FF41651016000218180C18001810C220B
:1007D00042818181704705210420FFF763FDFFF707
:1007E000FFFD0000FFF7B6FEFFF76AFD054C55213F
:1007F0002046FFF7E1FF80212046FFF77FFF00281A
:10080000F9D0FEE700380140280800080000002069
:10081000180000006C0100084008000818000020C3
:1008200060060000880100080002040608000000BD
:100830000001020304010203040607080900000086
:0400000508000131BD
:00000001FF
