:020000040800F2
:10000000D8060020CD010008D501000861070008CE
:10001000AB070008F10400080F0D00080000000005
:10002000000000000000000000000000DF010008E8
:10003000E101000800000000E3010008E5010008FC
:10004000E7010008E7010008E7010008E7010008F0
:10005000E7010008E7010008E7010008E7010008E0
:10006000E7010008E7010008E7010008E7010008D0
:10007000E7010008E7010008E7010008E7010008C0
:10008000E7010008E7010008E7010008E7010008B0
:10009000E7010008E7010008E7010008E7010008A0
:1000A000E7010008E7010008E7010008E701000890
:1000B000E7010008E7010008E7010008E701000880
:1000C000E7010008E7010008E7010008E701000870
:1000D000E7010008E7010008E7010008E701000860
:1000E000E7010008E7010008E7010008E701000850
:1000F000E7010008E7010008E7010008E701000840
:10010000E7010008E7010008E7010008E70100082F
:10011000E7010008E7010008E7010008E70100081F
:10012000E7010008E7010008E7010008E70100080F
:1001300000F002F800F03AF80AA090E8000C8244BF
:100140008344AAF10107DA4501D100F02FF8AFF29C
:10015000090EBAE80F0013F0010F18BFFB1A43F0A5
:1001600001031847180C0000380C0000103A24BF97
:1001700078C878C1FAD8520724BF30C830C144BF0C
:1001800004680C607047000000230024002500264E
:10019000103A28BF78C1FBD8520728BF30C148BFEA
:1001A0000B6070471FB51FBD10B510BD00F04EF9B4
:1001B0001146FFF7F7FF00F0B0FD00F06CF903B453
:1001C000FFF7F2FF03BC00F071F900000948804717
:1001D00009480047FEE7FEE7FEE7FEE7FEE7FEE729
:1001E000FEE7FEE7FEE7FEE704480549054A064B41
:1001F00070470000950B000831010008D80000206E
:10020000D8060020D8020020D8020020431A28BFB8
:100210009A4240F26780032A1044114440F226803B
:1002200010F0030F1EBF11F8013D521E00F8013DF2
:1002300010F0030F7FF4F6AF11F0030300F0AA8073
:10024000083AC0F00B8051F8043D083A51F804CD4B
:1002500040F8043D40F804CDFFF7F3BF121D5CBF2A
:1002600051F8043D40F8043DAFF30080D20724BFAD
:1002700011F8013D11F801CD48BF11F8012C24BF40
:1002800000F8013D00F801CD48BF00F8012C70478F
:100290004FF0000200B5134694469646203922BF1F
:1002A000A0E80C50A0E80C50B1F12001BFF4F7AF6A
:1002B000090728BFA0E80C5048BF0CC05DF804EB4C
:1002C000890028BF40F8042B08BF704748BF20F8BA
:1002D000022B11F0804F18BF00F8012B70477047B8
:1002E00070477047032A40F2308010F0030C00F092
:1002F000158011F8013BBCF1020F624498BF11F860
:1003000001CB00F8013B38BF11F8013BA2F1040218
:1003100098BF00F801CB38BF00F8013B11F0030390
:1003200000F06280083AC0F0088051F8043B083AB7
:1003300051F804CBA0E80810F5E7121D5CBF51F896
:10034000043B40F8043BAFF30080D20724BF11F810
:10035000013B11F801CB48BF11F8012B24BF00F875
:10036000013B00F801CB48BF00F8012B7047431A4E
:1003700028BF9A4240F23880104410F0030F114415
:100380001EBF11F8013D521E00F8013D10F0030F91
:100390007FF4F6AF103AC0F00A8010B531E918507A
:1003A000103A20E91850BFF4F9AFBDE810405307E8
:1003B00024BF31E9081020E9081044BF51F8043D7A
:1003C00040F8043D12F0030F08BF7047D20728BF62
:1003D00031F8023D48BF11F8012C28BF20F8023D3A
:1003E00048BF00F8012C704710B5203AC0F00B80D0
:1003F000B1E81850203AA0E81850B1E81850A0E829
:100400001850BFF4F5AF5FEA027C24BFB1E8185082
:10041000A0E8185044BF18C918C0BDE810405FEAF2
:10042000827C24BF51F8043B40F8043B08BF70476E
:10043000D20728BF31F8023B48BF11F8012B28BF73
:1004400020F8023B48BF00F8012B7047754600F0CA
:1004500029F8AE4605006946534620F00700854658
:1004600018B020B5FFF7C0FEBDE820404FF00006F1
:100470004FF000074FF000084FF0000B21F007018C
:10048000AC46ACE8C009ACE8C009ACE8C009ACE8CF
:10049000C0098D4670470446AFF300802046FFF741
:1004A0008EFE0000004870477800002001491820A7
:1004B000ABBEFEE726000200704710B501214FF0E9
:1004C000C05000F091F9BDE81040012000F086B95D
:1004D00008B5024908440090008808BD006C00403F
:1004E00008B5024A10440090016008BD006C00404D
:1004F00003210420FFF7F4FF00F05EF930B4134944
:100500000278134B0C7802F00F01012C04D0120773
:1005100018D00E290ED010E00F2904D253F8211064
:1005200091B90B200BE081780029FAD10849091F05
:10053000096809E0B0F8012022B10648007830BC13
:1005400000F010BA53F8211030BC08470A00002010
:10055000400D00080800002070B5164C032202EB85
:10056000820304EB830393F9005093F90160B542D1
:1005700001D19D78CDB102EB820504EB850494F99D
:10058000004003EB4405641E1C70AC880480521CC0
:100590000A7093F90000002801DA07201870987893
:1005A00008B100209870012070BD521ED7D50020E0
:1005B00070BD00002800002010B500F097F900F091
:1005C00061F8BDE8104000F00DBB0000054801686F
:1005D00041F01001016003481030016841F4E0214E
:1005E0000160704714ED00E0F0B5CC78002204F013
:1005F0000F03E40601D58C7823430C784FF00F0CE1
:1006000014F0FF0F4FF0010E1BD005680E880EFA94
:1006100002F42640A64210D196000CFA06F725EA0D
:10062000070703FA06F5CE783D43282E02D0482E60
:1006300002D002E0446100E00461521C082AE5D3C4
:1006400005600A88FF2A1CD94468002202F10806C6
:100650000EFA06F50E882E40AE420ED196000CFA28
:1006600006F7BC4303FA06F7CE783C43282E00D1A8
:100670004561CE78482E00D10561521C082AE5D389
:100680004460F0BD38B54FF48060ADF80000042040
:100690000A4C8DF8030069462046FFF7A5FF4FF48A
:1006A0004071ADF8001003218DF8021018218DF86B
:1006B000031069462046FFF797FF38BD0008014048
:1006C0002DE9F047DFF8949000250646B9F80010B0
:1006D0002C462F4641F00401A9F80010DFF87C8079
:1006E000A8F10C082021404600F0A0FA0028F9D01B
:1006F000404600F0F9FAC10509D5002427462546F1
:1007000010F0F00FEED1C5B23570741CEAE7002C82
:10071000E8D031780F22B2EB111F09D0F11C8C42C6
:100720000FD204F8010B2844C5B2DBE70024D9E757
:10073000711C8C4203D1C1B28F19FF1CF1E7BC427E
:10074000EFD1C0B2A842F1D1B9F8001021F00401F4
:10075000A9F80010A01BBDE8F08700000C3801408C
:1007600006210420FFF7BCFE00F026F8B0F80110C7
:1007700031B101290AD002290ED00B2000F0F2B8C5
:100780000749012008700021084603E0007808218D
:1007900000F00F0000F0EAB80821024800F0C6B8E7
:1007A0000A00002000000020704704210846FFF7DF
:1007B00097FE00F001F80000BFF34F8F0548016875
:1007C000054A01F4E06111430160BFF34F8F00BFA0
:1007D000FDE700000CED00E00400FA0501490862A5
:1007E0007047000000000E42044A0029D16901D080
:1007F000014300E08143D1617047000000100240D6
:10080000044A0029916901D0014300E081439161CC
:1008100070470000001002400248416A41F08071B8
:10082000416270470010024030B5204A5168204BA9
:1008300011F00C0103D0042901D0082901D0036074
:1008400012E05168536801F470114FF0020413F480
:10085000803F04EB914102D053689B0301D5154BB7
:1008600000E0134B5943016051680F2303EA111153
:10087000114B5C5C0168E14041605468072505EA62
:1008800014241C5D21FA04F48460546805EAD4241D
:100890001B5DD940C1605268032303EA9232064BC4
:1008A0001B1F9A5CB1FBF2F1016130BD00100240E8
:1008B00000127A0000093D001800002003460020C5
:1008C0005909094A01290AD002290AD0516A03F0BC
:1008D0001F02012393400B4200D001207047116892
:1008E000F5E7116AF3E700000010024010B501219E
:1008F00044F20500FFF784FF4FF4C06000F00CF8ED
:10090000BDE81040042000F001B800000149C871A2
:100910007047000000100240034A516821F4E06172
:1009200001435160704700000010024010B5C2B092
:100930000C469DF80010621E21F0F00141F00F01FD
:100940008DF80010611E8DF8011001788DF80210ED
:10095000014601A8FFF75AFCA11C684600F060F8A8
:1009600042B010BD01460020AFF3008000B5C1B019
:100970009DF8002060F3030222F0F0008DF80000E3
:10098000ADF801100321684600F04AF841B000BDFF
:1009900010B5FFF71BFEFFF790FD7C20FFF78EFFE1
:1009A000144C012819D07B20FFF788FF01281DD0A7
:1009B0007A20FFF783FF012818D07E20FFF77EFF03
:1009C000012815D07D20FFF779FF012810D00720DE
:1009D0002070BDE81040FFF71FBF0420FFF778FD2F
:1009E000207000210420FFF77BFDF2E70120EFE7F4
:1009F0000220EDE7080000200349B0F80100C8809C
:100A00000020FFF7AFBF00000A0000200349B0F844
:100A1000010008810020FFF7A5BF00000A000020A8
:100A20002DE9F041164F884606468021384600F0F1
:100A3000FDF80028F9D03578384645F4807100F08B
:100A400057F901240DE08021384600F0EFF8002826
:100A5000F9D0315D4819C5B2384600F049F9641C37
:100A6000E4B24445EFD38021384600F0DFF8002897
:100A7000F9D029463846BDE8F04100F039B9000008
:100A8000003801400CB5002226480092019201680E
:100A900041F4803101604FF4A063016801F400313A
:100AA00001910099491C0091019911B9009999424D
:100AB000F3D10168890333D5012101911A490A68EC
:100AC00042F010020A600A6822F003020A600A6813
:100AD00042F001020A60416841604168416041683A
:100AE00041F480614160416821F47C1141604168BA
:100AF00041F488114160016841F080710160016832
:100B00008901FCD5416821F003014160416841F051
:100B1000020141604168C1F381010229FAD10CBD93
:100B200001920CBD001002400020024070B5174C2D
:100B300005462078012802D0154800780BE0687837
:100B4000A178884260780AD128B1A188E078BDE810
:100B50007040FFF70BBFBDE87040FFF703BF08B15F
:100B6000002060700949C91C481CFFF7F5FC30B132
:100B7000A188E078FFF7FAFE0120607002E0002013
:100B8000FFF7F0FE6878A07070BD00000A0000203A
:100B9000080000200F4810B5016841F00101016014
:100BA00041680D4A1140416001680C4A11400160E2
:100BB000016821F480210160416821F4FE01416057
:100BC0004FF41F018160FFF75DFF05494FF00060A2
:100BD000086010BD001002400000FFF8FFFFF6FEA5
:100BE00008ED00E01FB5684600F086F846F2A81050
:100BF00000904FF48050ADF804000020054CADF893
:100C000008006946204600F019F80121204600F04E
:100C100003F81FBD003801400029818902D041F44A
:100C2000005101E021F4005181817047024600200B
:100C300012880A4200D001207047000030B50446F7
:100C4000008A85B00D464CF6FF710840E9880143E3
:100C50002182A0894EF6F3110840A9882A89114300
:100C60006A8902431143A181A08A4FF6FF410840DF
:100C7000A9890143A1826846FFF7D6FD194884423D
:100C800001D1039800E00298A189090400EBC0019A
:100C900001EB0010296801D5490000E08900B0FB94
:100CA000F1F06422B0FBF2F109010B096FF01805B5
:100CB0006B4300EB8300A3891D044FF0320306D57C
:100CC00003EBC000B0FBF2F000F0070005E003EB1F
:100CD0000010B0FBF2F000F00F000843208105B0D7
:100CE00030BD0000003801408088C0F30800704724
:100CF000C1F30801818070474FF416510160002153
:100D00008180C18001810C2242818181704705214F
:100D10000420FFF7E5FBFFF74FFDC2B04FF48271EF
:100D20006846FFF7B5FAFFF733FEFFF745FC684664
:100D3000FFF7C6FC6846FFF7E1FBF8E7A9070008E4
:100D40002D0B0008F90900080D0A0008000000003A
:100D50000000000000000000000000000000000093
:100D60000000000000000000000000000000000083
:100D700000000000000000006D0700089C0D000846
:100D800000000020280000006C010008C40D0008CD
:100D900028000020B00600008801000801000000C3
:100DA0000000000000000000000000000000000043
:100DB000020406080000000001020304010203040B
:040DC0000607080911
:0400000508000131BD
:00000001FF
