:020000040800F2
:10000000F0090020CD010008D50100085F0F0008AD
:10001000951200082D080008A7290008000000001C
:10002000000000000000000000000000DF010008E8
:10003000E101000800000000E3010008111D0008B4
:10004000E7010008E7010008E7010008E7010008F0
:10005000E7010008E7010008E7010008E7010008E0
:10006000E7010008E7010008E7010008E7010008D0
:10007000E7010008E7010008E7010008E7010008C0
:10008000E7010008E7010008BD040008E7010008D7
:10009000E7010008E7010008E7010008E7010008A0
:1000A000E70100085D1E0008E7010008E7010008FD
:1000B000E7010008E7010008E7010008E701000880
:1000C000E7010008E7010008E7010008E701000870
:1000D000E7010008E7010008ED270008E701000834
:1000E000E7010008E7010008E7010008E701000850
:1000F000E701000875200008B11F0008E7010008AB
:10010000E7010008E7010008E7010008E70100082F
:10011000E7010008E7010008F51E0008E7010008F4
:10012000E7010008E7010008E7010008E70100080F
:1001300000F002F800F03AF80AA090E8000C8244BF
:100140008344AAF10107DA4501D100F02FF8AFF29C
:10015000090EBAE80F0013F0010F18BFFB1A43F0A5
:1001600001031847202F0000402F0000103A24BF41
:1001700078C878C1FAD8520724BF30C830C144BF0C
:1001800004680C607047000000230024002500264E
:10019000103A28BF78C1FBD8520728BF30C148BFEA
:1001A0000B6070471FB51FBD10B510BD00F04EF9B4
:1001B0001146FFF7F7FF02F0FDFB00F06CF903B406
:1001C000FFF7F2FF03BC00F071F900000948804717
:1001D00009480047FEE7FEE7FEE7FEE7FEE7FEE729
:1001E000FEE7FEE7FEE7FEE704480549054A064B41
:1001F00070470000251D000831010008F0030020B1
:10020000F0090020F0050020F0050020431A28BF67
:100210009A4240F26780032A1044114440F226803B
:1002200010F0030F1EBF11F8013D521E00F8013DF2
:1002300010F0030F7FF4F6AF11F0030300F0AA8073
:10024000083AC0F00B8051F8043D083A51F804CD4B
:1002500040F8043D40F804CDFFF7F3BF121D5CBF2A
:1002600051F8043D40F8043DAFF30080D20724BFAD
:1002700011F8013D11F801CD48BF11F8012C24BF40
:1002800000F8013D00F801CD48BF00F8012C70478F
:100290004FF0000200B5134694469646203922BF1F
:1002A000A0E80C50A0E80C50B1F12001BFF4F7AF6A
:1002B000090728BFA0E80C5048BF0CC05DF804EB4C
:1002C000890028BF40F8042B08BF704748BF20F8BA
:1002D000022B11F0804F18BF00F8012B70477047B8
:1002E00070477047032A40F2308010F0030C00F092
:1002F000158011F8013BBCF1020F624498BF11F860
:1003000001CB00F8013B38BF11F8013BA2F1040218
:1003100098BF00F801CB38BF00F8013B11F0030390
:1003200000F06280083AC0F0088051F8043B083AB7
:1003300051F804CBA0E80810F5E7121D5CBF51F896
:10034000043B40F8043BAFF30080D20724BF11F810
:10035000013B11F801CB48BF11F8012B24BF00F875
:10036000013B00F801CB48BF00F8012B7047431A4E
:1003700028BF9A4240F23880104410F0030F114415
:100380001EBF11F8013D521E00F8013D10F0030F91
:100390007FF4F6AF103AC0F00A8010B531E918507A
:1003A000103A20E91850BFF4F9AFBDE810405307E8
:1003B00024BF31E9081020E9081044BF51F8043D7A
:1003C00040F8043D12F0030F08BF7047D20728BF62
:1003D00031F8023D48BF11F8012C28BF20F8023D3A
:1003E00048BF00F8012C704710B5203AC0F00B80D0
:1003F000B1E81850203AA0E81850B1E81850A0E829
:100400001850BFF4F5AF5FEA027C24BFB1E8185082
:10041000A0E8185044BF18C918C0BDE810405FEAF2
:10042000827C24BF51F8043B40F8043B08BF70476E
:10043000D20728BF31F8023B48BF11F8012B28BF73
:1004400020F8023B48BF00F8012B7047754600F0CA
:1004500029F8AE4605006946534620F00700854658
:1004600018B020B5FFF7C0FEBDE820404FF00006F1
:100470004FF000074FF000084FF0000B21F007018C
:10048000AC46ACE8C009ACE8C009ACE8C009ACE8CF
:10049000C0098D4670470446AFF300802046FFF741
:1004A0008EFE0000004870478C0300200149182090
:1004B000ABBEFEE7260002007047000070B50E21BB
:1004C0001D4800F04BF81D484078002833D01C4CE4
:1004D00020781C4900EB4000096801EB800000F027
:1004E0001FFD002802DD184A184B01E0184B0022BE
:1004F000114815463C301E46006802F019FC4FF0CA
:100500006632144B02F028FC6FF00B0202F054FD2F
:100510002A46334602F070FA00220F4B02F01CFC10
:1005200002F0C2FB2178BDE8704040EAC12081B2F0
:10053000042000F08DBB70BD002801402400002085
:100540000A0000202000002046175D74D1453B4082
:1005500000C0724066660A400088C340C94301601B
:1005600070470029816802D041F0010101E021F0CB
:100570000101816070470029816802D041F4004187
:1005800001E021F4004181607047826822F4E0427A
:100590000A4382607047014600208968490700D5F8
:1005A00001207047C06C80B2704701460020896806
:1005B000090700D501207047002A4268C9B201D05E
:1005C0000A4300E08A4342607047000010B5426869
:1005D0000E4B0C791A400B6842EA04221343436025
:1005E00082680B4B1A40D1E9024323434C7942EA1B
:1005F000440213438360C26A097C22F47002491EDC
:10060000C9B242EA0151C16210BD0000FFFEF0FF15
:10061000FDF7F1FF70B5072609290AD9C568A1F1D0
:100620000A0404EB4404A640B543A3401D43C5603F
:1006300007E0056901EB4104A640B543A3401D4313
:100640000561836BC3F30154121B921C02EB8202FF
:100650001F249440A34391400B43836370BD70B546
:10066000072609290AD9C568A1F10A0404EB440444
:10067000A640B543A3401D43C56007E0056901EBF3
:100680004104A640B543A3401D4305611F23072A2B
:1006900009D2446B521E02EB820293409C4391406C
:1006A0000C43446370BD0D2A09D2046BD21F02EBC8
:1006B000820293409C4391400C43046370BDC46A22
:1006C0000D3A02EB820293409C4391400C43C4627A
:1006D00070BD816841F0080181607047816841F018
:1006E000040181607047000010B50F4C01212046C5
:1006F00001F038FD01221146204601F0DFFD012105
:10070000204601F032FD094C2021204602F0B6F8C7
:10071000012240F22551204602F0C4F82046BDE8EF
:100720001040012102F0ADB800100040004400402C
:1007300010B586B000214FF46020CDE902018DF89C
:1007400004100120284C00918DF805108DF8100040
:1007500069462046FFF73AFF072301220821204679
:10076000FFF77DFF01212046FFF7FBFE2046FFF744
:10077000B0FF2046FFF719FF0028FAD12046FFF707
:10078000ADFF2046FFF707FF0028FAD1174C694656
:100790002046FFF71BFF01231A4609212046FFF7D9
:1007A00039FF4FF4C0412046FFF7EFFE012110480A
:1007B00000F0D2FA01212046FFF7DDFE012120469C
:1007C000FFF7CFFE2046FFF784FF2046FFF7EDFE40
:1007D0000028FAD12046FFF781FF2046FFF7DBFE15
:1007E0000028FAD106B010BD0024014000280140C5
:1007F0000800200010B501214FF0C05000F0DAFDD4
:10080000BDE81040012000F0B9BD000008B5024964
:1008100008440090008808BD006C004008B5024AFA
:1008200010440090016008BD006C004003210420CA
:10083000FFF7F4FF00F066FDF0B5002241F28836C4
:100840004FF4FA6741F225355EE002EB420300EB1C
:100850008303B3F9024004F57A74BC4202D947F22B
:10086000030007E0B3F9044004F57A74BC4204D9EC
:1008700047F2050040EA421043E05C7824B1012CC5
:1008800002D047F20D00F5E7DC88643CAC420ED3A1
:1008900002EB420100EB8100C088B04201D9012087
:1008A00000E0002040EA421047F2060128E01C89DF
:1008B000643CAC420ED302EB420100EB81000089A4
:1008C000B04201D9012000E0002040EA421047F286
:1008D000080115E05B8942F207740A3BA34212D378
:1008E00002EB420100EB810042F210714089884224
:1008F00001D9012000E0002040EA421047F20A013D
:10090000084380B2F0BD521C8A429EDB0020F0BD3D
:1009100070B5134D04462878012801D00D201BE046
:10092000B4F80100411E1F2915D2C1B20D4A286931
:10093000904202D102F5C07000E00A48FFF77CFF48
:1009400018B1BDE8704000F0E5BD60786870012026
:10095000E870002000E00C20BDE8704000F0FABD17
:10096000100000208C00002030B413490278134B93
:100970000C7802F00F01012C04D0120718D00E29B8
:100980000ED010E00F2904D253F8211091B90B209A
:100990000BE081780029FAD10849091F096809E0AC
:1009A000B0F8012022B10648007830BC00F0D2BD7A
:1009B00053F8211030BC08471000002048300008D0
:1009C00009000020044B01228240186809B110433D
:1009D00000E09043186070470074004030B5084C48
:1009E000236840F6FE7282409343D1E900252A43F2
:1009F000D1E902510D432A4382401A43226030BD9F
:100A000000740040034A08B51044083000900160AB
:100A100008BD00000074004010B5114C8CB0204699
:100A200000F030F80F4800900F480190102002901D
:100A300001200021CDE90301059120200691CDE997
:100A400007104FF44050CDE909016946204600F0F7
:100A50008BF80121204600F009F80CB010BD000011
:100A60001C0402400C3001400800002000290168ED
:100A700002D041F0010102E04FF6FE721140016028
:100A80007047000001684FF6FE72114001600021BE
:100A9000016041608160C1603149314A083990424A
:100AA00003D1486840F00F0006E02D4A143290420E
:100AB00004D1486840F0F00048607047284A283266
:100AC000904203D1486840F47060F5E7244A3C3214
:100AD000904203D1486840F47040EDE7204A50321C
:100AE000904203D1486840F47020E5E71C4A643224
:100AF000904203D1486840F47000DDE7184A78322C
:100B0000904203D1486840F07060D5E7154A111F44
:100B1000904203D1086840F00F0006E0114A1432F9
:100B2000904204D1086840F0F000086070470D4A18
:100B30002832904203D1086840F47060F5E7094A12
:100B40003C32904203D1086840F47040EDE7054A1A
:100B500050329042EAD1086840F47020E5E7000086
:100B6000080002400804024030B5026847F6F073FE
:100B70009A430C6A8B682343D1E904452C432343F1
:100B80008C692343CC6923434C6A23438C6A2343F7
:100B900013430360CA6842600A6882604968C160A2
:100BA00030BD1FB50C200090002001900290022063
:100BB000039069460020FFF711FF01210020FFF795
:100BC00001FF1FBD70B5164C032202EB820304EB3C
:100BD000830393F9005093F90160B54201D19D78E8
:100BE000CDB102EB820504EB850494F9004003EBE0
:100BF0004405641E1C70AC880480521C0A7093F972
:100C00000000002801DA07201870987808B1002049
:100C10009870012070BD521ED7D5002070BD000015
:100C20003C00002010B500F047FC00F0C5F801F0D2
:100C3000FDFD01F005FD00F077FBFFF779FDFFF703
:100C4000B0FF00F09DFCBDE81040FFF7E5BE0000DE
:100C500000EB8002114800EB820010F8122C0AB160
:100C60000020704710F9132C00EB4203521E00F8CD
:100C7000132C23F8101C10F9131C002902DA072189
:100C800000F8131C10F9131C10F9142C914202D116
:100C9000012100F8121C0120704700003C000020D8
:100CA0000548016841F010010160034810300168F7
:100CB00041F4E0210160704714ED00E0F0B5CC781C
:100CC000002204F00F03E40601D58C7823430C784E
:100CD0004FF00F0C14F0FF0F4FF0010E1BD0056802
:100CE0000E880EFA02F42640A64210D196000CFAA5
:100CF00006F725EA070703FA06F5CE783D43282EC6
:100D000002D0482E02D002E0446100E00461521C8F
:100D1000082AE5D305600A88FF2A1CD94468002206
:100D200002F108060EFA06F50E882E40AE420ED1EC
:100D300096000CFA06F7BC4303FA06F7CE783C435C
:100D4000282E00D14561CE78482E00D10561521C75
:100D5000082AE5D34460F0BDF0B5144C002801DA50
:100D6000E36900E06368450D2E0185B2C0F30157C9
:100D7000B540C0F30342032F05D0C6020AD50326AF
:100D80009640B34307E023F07062636823F070631A
:100D9000636002E0AB4343F0706201B12A43002874
:100DA00001DAE261F0BD6260F0BD000000000140C8
:100DB0004161704701617047F8B54FF48060ADF84C
:100DC00000002C4F04268DF8036069463846FFF773
:100DD00075FF4FF44070ADF8000003248DF8024019
:100DE00018258DF8035069463846FFF767FFB001B4
:100DF000ADF800008DF8036069463846FFF75EFFE6
:100E0000E001ADF800008DF802408DF803501A4D56
:100E100069462846FFF752FF8020ADF8000069467A
:100E20003846FFF74BFF4FF4C4612846FFF7C2FF77
:100E300040212846FFF7BCFF4FF4CC60ADF800001E
:100E400010208DF803008DF8024069462846FFF710
:100E500035FFADF8004000208DF8030069460748D3
:100E6000FFF72CFF0120ADF8000069463846FFF778
:100E700025FFF8BD0008014000100140000C0140B2
:100E80002DE9F047DFF8949000250646B9F80010E8
:100E90002C462F4641F00401A9F80010DFF87C80B1
:100EA000A8F10C082021404601F0F5FC0028F9D0FB
:100EB000404601F065FDC10509D5002427462546B9
:100EC00010F0F00FEED1C5B23570741CEAE7002CBB
:100ED000E8D031780F22B2EB111F09D0F11C8C42FF
:100EE0000FD204F8010B2844C5B2DBE70024D9E790
:100EF000711C8C4203D1C1B28F19FF1CF1E7BC42B7
:100F0000EFD1C0B2A842F1D1B9F8001021F004012C
:100F1000A9F80010A01BBDE8F08700000C380140C4
:100F2000C2880189AAB189B1B0F90210002907DA93
:100F3000B0F90420002A03DA914205DB104670471D
:100F4000B0F904008142FADD08467047B0F90200AA
:100F5000704711B1B0F904007047002070470621B6
:100F60000420FFF75BFC00F0CDF9000010B5B0F8ED
:100F7000011041B101290ED0022914D0BDE8104062
:100F80000B2000F0E7BAFFF7AFFB0A490120087019
:100F90000021084603E00078082100F00F00BDE8BA
:100FA000104000F0DBBABDE810400821024800F014
:100FB000B5BA0000100000200000002070B5954C6C
:100FC000A078954D00EB4000944E296801EB80001D
:100FD0004189304601F0B3FAA078296800EB40005F
:100FE00001EB80004189304601F0ADFAA0788C4ECB
:100FF00000EB4001286800EB8101C9880029A17835
:1010000001EB410177D000EB81000021B0F9020033
:1010100000F06AFCA078296800EB400001EB80003A
:10102000C188304601F08FFA60220421304601F079
:101030004BFAA078296800EB400001EB8000C188E2
:10104000304601F07EFAA078296800EB400001EB01
:101050008000C0880A3881B2304601F078FA012257
:101060000421304601F070F8A07800EB40012868B8
:1010700000EB81010989002968D0A17801EB4101C9
:1010800000EB81000189304601F05FFA012208215E
:10109000304601F059F870220821304601F014FA68
:1010A000A0782A6800EB400002EB8000A178C3889A
:1010B00001EB410102EB81000089184481B2304606
:1010C00001F03FFAA078296800EB400001EB8000B6
:1010D000FFF726FFA17801EB4102296801EB8202AC
:1010E000B2F902209042A07800EB400001EB8000B2
:1010F00002D1C08808E02FE0C288A07800EB400051
:1011000001EB8000008910440A3881B2304601F0BA
:101110001EFAA07800EB4001286800EB8101B1F9CC
:101120000220A17801EB410100EB8100B0F904003D
:1011300082424ED00120E0700421304601F00FF8C9
:1011400001220421304601F0B9F842E000220821D2
:10115000304600F0F9FF3CE000EB81010989C1B3A2
:10116000A17801EB410100EB81000021B0F90400FE
:1011700000F0BAFBA078296800EB400001EB80008A
:101180000189304601F0E1F901220821304600F0E2
:10119000DBFF00220421304600F0D6FF6022082148
:1011A000304601F091F9A078296800EB400001EB8E
:1011B00080000189304601F0C4F9A078296800EB6D
:1011C000400001EB800000890A3881B2304601F00E
:1011D000BEF9A078802141EA80002070A0782968BB
:1011E00000EB400001EB800041780E4841B10169FD
:1011F00041F400710161416941F48061416170BD58
:10120000416941F400714161016941F4806101610A
:1012100070BD00000800002020000020002C0140CC
:10122000003401400010014070B5184C21780129AC
:1012300001D00D2013E0164A21699142C17801EBDB
:10124000410101D102F5C07202EB810241780C2309
:10125000491EB1FBF3F503FB151121B16420BDE874
:10126000704000F077B9012105E043185518DB788C
:1012700005F8013C491C43788B42F6DC002000F065
:1012800069F90120A0700020E07070BD10000020FE
:101290008C00002004210846FFF7C0FA00F032F865
:1012A00030B50F23C27801780125F2B1144A1268D3
:1012B00001F1E02102F4E062C2F5E062120AC2F13B
:1012C0000404D3404278A24084781C401443220195
:1012D00081F80024007800F01F018D404009800053
:1012E00000F1E020C0F8005130BD01F01F00854042
:1012F0004809800000F1E020C0F8805130BD0000B6
:101300000CED00E0BFF34F8F05480168054A01F47A
:10131000E06111430160BFF34F8F00BFFDE70000A4
:101320000CED00E00400FA0508B519208DF8000066
:1013300001208DF803006846FFF7B2FF2D208DF8DD
:1013400000006846FFF7ACFF2E208DF800006846CD
:10135000FFF7A6FF36208DF800006846FFF7A0FFD4
:1013600026208DF800006846FFF79AFF12208DF8BE
:1013700000006846FFF794FF08BD000001490862BD
:101380007047000000000E42034A516821F44041BA
:10139000014351607047000000100240044A0029D8
:1013A000516901D0014300E0814351617047000061
:1013B00000100240044A0029D16901D0014300E035
:1013C0008143D1617047000000100240044A0029A7
:1013D000916901D0014300E08143916170470000B1
:1013E000001002400248416A41F08071416270473A
:1013F0000010024030B5204A5168204B11F00C011A
:1014000003D0042901D0082901D0036012E05168FB
:10141000536801F470114FF0020413F4803F04EBA1
:10142000914102D053689B0301D5154B00E0134B4B
:101430005943016051680F2303EA1111114B5C5CA1
:101440000168E14041605468072505EA14241C5DE9
:1014500021FA04F48460546805EAD4241B5DD94061
:10146000C1605268032303EA9232064B1B1F9A5C49
:10147000B1FBF2F1016130BD0010024000127A00B0
:1014800000093D002B000020034600205909094AAD
:1014900001290AD002290AD0516A03F01F02012350
:1014A00093400B4200D0012070471168F5E7116AA4
:1014B000F3E700000010024010B5012147F61D605F
:1014C000FFF784FF4FF48040FFF75EFF4FF4C060EA
:1014D00000F016F801210648FFF76CFF01210220F9
:1014E000FFF75CFFBDE81040042000F003B80000E7
:1014F000100002200149C87170470000001002402E
:10150000034A516821F4E0610143516070470000D3
:10151000001002400146002000F020B810B5C2B013
:101520000C469DF80010621E21F0F00141F00F0101
:101530008DF80010611E8DF8011001788DF80210F1
:10154000014601A8FEF762FEA11C684600F0C2F841
:1015500042B010BD01460020AFF3008000B5C1B01D
:101560009DF8002060F3030222F0F0008DF80000E7
:10157000ADF801100321684600F0ACF841B000BDA1
:1015800010B586B04FF44040ADF800004FF48270C3
:10159000ADF802000020ADF804000121ADF80C0008
:1015A000ADF80600ADF80810ADF80E0049020520B0
:1015B000074CADF80A10ADF810006946204600F05F
:1015C00013F80121204600F005F806B010BD000018
:1015D000003001400029018802D041F0400101E0C3
:1015E00021F040010180704730B502884C8802F438
:1015F00041530A88CD8822438C882C4322430C898E
:1016000022434C8922438C892243CC8922431A43AA
:101610000280828B22F400628283098A018230BDBB
:1016200010B5FFF73DFBFFF7E5F87C20FFF72CFF37
:10163000144C012819D07B20FFF726FF01281DD06C
:101640007A20FFF721FF012818D07E20FFF71CFF2A
:10165000012815D07D20FFF717FF012810D00720A3
:101660006070BDE81040FFF7BDBE0420FFF7CEF864
:10167000607000210420FFF7D1F8F2E70120EFE7C6
:101680000220EDE7080000200349B0F8010088813E
:101690000020FFF75FBF0000100000200349B0F8F2
:1016A0000100C8810020FFF755BF00001000002096
:1016B000064B10B500221A710143054801F064F988
:1016C000BDE8104044F61D1000F002BA08000020EA
:1016D000004400402DE9F041164F8846064680211F
:1016E000384601F0D8F80028F9D03578384645F466
:1016F000807101F049F901240DE08021384601F0A4
:10170000CAF80028F9D0315D4819C5B2384601F051
:101710003BF9641CE4B24445EFD38021384601F024
:10172000BAF80028F9D029463846BDE8F04101F062
:101730002BB9000000380140244B30B41A46997888
:10174000126931B122498A4202D101F5C07200E02A
:101750001F4A99891F2937D85C78641EA1422FDC63
:10176000DB894FF4FA641BB1012B12D00C2028E066
:10177000B0F8013003F57A73A34202D947F20300AF
:101780000FE001EB410102EB8101B0F8010048805C
:1017900014E0B0F8013003F57A73A34207D947F299
:1017A000050040EA411030BC80B2FFF7B3BE01EB48
:1017B000410102EB8101B0F801008880002000E0C7
:1017C000662030BCFFF7C6BE6520FAE71000002097
:1017D0008C0000202A4B30B41A469978126931B136
:1017E00028498A4202D101F5C07200E0254A998950
:1017F0001F2942D85C78641EA1423ADCDB8941F2A1
:10180000253441F288351BB1012B17D00C2031E073
:10181000B0F80100A0F16403A34209D3A84201D9A2
:10182000012000E0002040EA411047F2060114E0E8
:1018300001EB410102EB8101C88018E0B0F8010022
:10184000A0F16403A3420DD3A84201D9012000E016
:10185000002040EA411047F20801084330BC80B242
:10186000FFF758BE01EB410102EB81010881002026
:1018700000E0662030BCFFF76DBE6520FAE700008F
:10188000100000208C000020154B1A469978126930
:1018900031B114498A4202D101F5C07200E0114A07
:1018A00099891F2919D85B785B1E994212DCB0F820
:1018B000010040B1012806D047F20D0040EA411076
:1018C00080B2FFF727BE01EB410102EB81014870B6
:1018D000002000E06620FFF73DBE6520FBE700002A
:1018E000100000208C00002070B5041E17480D4623
:1018F00004DD016941F04001016103E0416941F00B
:1019000040014161204600DA604201F0FAF9002C02
:1019100002DD0F4A0F4B01E00F4A104B01F01CFA99
:1019200001F0C2F981B20020FFF76CF8002D0BD056
:101930000B480168026842F038020260021D136819
:1019400043F001031360016070BD0000001001400E
:10195000134593B79ADF1140623255302AA91340DC
:10196000007400400CB500222648009201920168E4
:1019700041F4803101604FF4A063016801F400314B
:1019800001910099491C0091019911B9009999425E
:10199000F3D10168890333D5012101911A490A68FD
:1019A00042F010020A600A6822F003020A600A6824
:1019B00042F001020A60416841604168416041684B
:1019C00041F480614160416821F47C1141604168CB
:1019D00041F488114160016841F080710160016843
:1019E0008901FCD5416821F003014160416841F063
:1019F000020141604168C1F381010229FAD10CBDA5
:101A000001920CBD00100240002002400F4B19460D
:101A10009A78096932B10E4A914202D102F5C07139
:101A200000E00B499A891F2A0DD85B785B1E9A4209
:101A300006DC02EB4202407801F82200002000E0C0
:101A40006620FFF787BD6520FBE70000100000203F
:101A50008C0000201C4B30B41A469978126931B1C1
:101A60001A498A4202D101F5C07200E0174A9989E9
:101A70001F2926D85B785B1E99421EDCB0F8010056
:101A800042F20774A0F10A03A3420FD342F210728C
:101A9000904201D9012000E0002040EA411047F2C5
:101AA0000A01084330BC80B2FFF734BD01EB4101AD
:101AB00002EB81014881002000E0662030BCFFF786
:101AC00049BD6520FAE70000100000208C000020CE
:101AD00000B5024600F0E2F802EB42000001401EB1
:101AE000B0F1807F01D3002000BD4FF0E0214861BC
:101AF000044AF02082F8140D002088610720086154
:101B0000012000BD0FE000E070B51F4B00221878E7
:101B100048B11E491E4C0868A04201D11D4800E092
:101B20001B4808601A701C488270FFF747FA1B4C6C
:101B30000121204600F013FB194D4221284600F0F8
:101B40000EFB01221146204600F0B8FB0122422183
:101B5000284600F0B3FB134E04213046FEF7FEFC8E
:101B600001224FF490613046FEF726FD01229103D9
:101B7000284600F004FB01220021204600F0E4FA90
:101B800009490220087070BD1200002020000020CA
:101B90008C0000200C02002008000020002C0140D6
:101BA00000340140002801401000002070B50A4CAC
:101BB00005462178022901D100F078F8B5F8010036
:101BC0002081E07818B1FFF79FFF002000E00D2092
:101BD000BDE87040FFF7BEBC1000002070B5174C88
:101BE00005462078012802D0154800780BE0687877
:101BF0006179884220790AD128B16189A079BDE84C
:101C00007040FFF7ABBCBDE87040FFF7A3BC08B164
:101C1000002020710949891D081DFEF7D3FF30B14E
:101C20006189A079FFF79AFC0120207102E0002071
:101C3000FFF790FC6878607170BD00001000002014
:101C400009000020F0B50022124E0A2713464FF07B
:101C5000010CA6F5C075642402EB420006EB80017E
:101C600006F820C005F820C005EB80004B704370DB
:101C70004F8047808B808380CC80C4800B81038120
:101C80004F81521C4781202AE6DB03482021417006
:101C90000561F0BD0C020020100000204FF0E02094
:101CA000016921F0010101617047000070B5144C19
:101CB0002188C907FCD100221146204600F044FAD1
:101CC000104D00220421284600F03EFA002208218F
:101CD000284600F039FA00220121204600F0EEFAF1
:101CE00000224221284600F0E9FA00224FF49061D8
:101CF0000548FEF761FC05490120087070BD000031
:101D0000002C014000340140002801401000002058
:101D100010B5FFF7C3FF4FF0E020016921F48031D7
:101D2000016110BD0F4810B5016841F0010101606B
:101D300041680D4A1140416001680C4A1140016040
:101D4000016821F480210160416821F4FE014160B5
:101D50004FF41F018160FFF705FE05494FF0006059
:101D6000086010BD001002400000FFF8FFFFF6FE03
:101D700008ED00E070B5048C24F001040484058BA8
:101D8000048C4FF6FF7606EA0313134325F0F305A0
:101D90000E4A2B4390420ED00D4A90420BD0B0F128
:101DA000804F08D00B4A904205D00B4A904202D097
:101DB0000A4A904202D124F0020201E024F00A0211
:101DC0000A4342F001010383018470BD002C0140ED
:101DD000003401400004004000080040000C0040B6
:101DE000F0B5048C24F010040484078B048C4FF6A7
:101DF000FF7527F4734705EA03333B4305EA0222E4
:101E00001A43114B05EA011698420ED00F4B984227
:101E10000BD0B0F1804F08D00D4B984205D00D4B40
:101E2000984202D00C4B984205D124F02001314356
:101E300041F0100104E024F0A0030B4343F0100133
:101E400002830184F0BD0000002C014000340140F9
:101E50000004004000080040000C004010B51E4C7B
:101E60000121204600F07EF91021204600F057FBAA
:101E700001210020FFF738FD1848012141700021A1
:101E800001701748028842F480420280154A107897
:101E9000401CC0B21070144B1B78984200D31170D4
:101EA0001248027832B101700D48002204210C382A
:101EB00000F004FAFFF782F80D490888002809D0DD
:101EC0000888401E0004000C088003D1BDE81040C3
:101ED000FFF7ECBE10BD0000002C014024000020E4
:101EE0000C3401400A000020110000200B000020EB
:101EF0001800002010B50121244800F033F9244CCB
:101F0000A078401CC0B2A07022282DD12148FEF735
:101F100049FB00F00DFF4FF066321F4B00F01CFF35
:101F20006FF00B0201F048F800221C4B00F014FF88
:101F300000221B4B00F060FD00F0B6FE81B2194894
:101F4000B1F5997F04D3026942F02002026106E0F4
:101F5000B1F58E7F03D8426942F02002426102202F
:101F6000FEF776FE0020A0700F4800780F4900EBC6
:101F70004000096801EB8000C08808B1012100E041
:101F80000221BDE810408020FFF792BB0010004006
:101F9000240000200024014066660A409B0663413D
:101FA000804FF240001001400A0000202000002075
:101FB0002DE9F04127480488274F284D284EA007D7
:101FC0002CD5388820F00100388022483430018830
:101FD00021F4004101802348007888B128783168D5
:101FE00000EB400001EB80000021B0F90200FFF798
:101FF0007BFC381D018821F0700141F01001018047
:1020000019490878421C0A7018490988884205D184
:1020100016481C38018841F001010180600713D582
:102020002878316800EB400001EB8000B0F9041023
:102030000F48002904DD016941F04001016103E01E
:10204000416941F0400141613846BDE8F041062157
:1020500000F088B810340140003401400A0000202C
:10206000200000200B00002024000020302C014024
:1020700000100140204810B5018841F001010180A5
:102080001D483030018841F4004101801A48402148
:10209000143800F067F819480024417879B1447089
:1020A0005021174800F03BFA13480838018821F402
:1020B00080410180134801898907FCD58481124839
:1020C0000078A0B111480078114900EB4000096880
:1020D00001EB80000021B0F90400FFF705FC064881
:1020E0001038018821F0700141F05001018004484E
:1020F0002430048010BD000014340140240000206E
:10210000002C0140003001400B0000200A0000209C
:102110002000002010B50A884B88CC881A438B8891
:1021200023431A430B891A434B8989891A430A436B
:10213000A0F8442010BD0021018041808180C18031
:10214000018141818181704710B50123048C8B404E
:102150009C430484038C8A401343038410BDC94309
:1021600001827047C943018270470029018802D06B
:1021700041F0010101E021F0010101807047002AD6
:10218000828901D00A4300E08A43828170470000BF
:102190002DE9F84F0D4604460888434FDFF80CC17F
:1021A000DFF80C81DFF80C914988AA882B894FF061
:1021B000804A48B3042830D04FF6FF76082893466B
:1021C00034D0208C9E4620F480502084A38B208C19
:1021D00006EA0132009223F4734306EA0B221A4303
:1021E00006EA0E331343BC420AD0644508D0544576
:1021F00006D0444504D04C4502D02F4A944245D1E4
:1022000020F40050009943E02046FFF7B3FDE98831
:102210002046BDE8F84F00F09DB92046FFF7E0FDED
:10222000E9882046BDE8F84F00F09CB9208C20F4E6
:1022300080702084B4F81CE0208C06EA031306EAC0
:1022400001222EF0F30E43EA0B0343EA0E03009241
:10225000BC420AD0644508D0544506D0444504D059
:102260004C4502D0144A944203D120F400700099E6
:1022700001E020F42060084340F48070A3832084B0
:10228000E9882046BDE8F84F00F078B920F4024014
:10229000084340F48050A3832084E9882046BDE8A9
:1022A000F84F00F073B90000002C014000340140E9
:1022B0000004004000080040000C0040002A828911
:1022C00001D00A4300E08A438281704730B5028C16
:1022D00022F001020284028C8388048B22F0020225
:1022E00024F073050C882C430D8915434A882A4332
:1022F000114DA8420BD0114DA84208D0104DA84254
:1023000005D0104DA84202D00F4DA8420DD122F0A9
:1023100008054A8923F440732A4322F004058A8879
:102320002A438D891D43CB892B4383800483C9882D
:102330008186028430BD0000002C01400034014041
:1023400000400140004401400048014070B5028C4B
:1023500022F010020284028C8388048B0D8824F4FE
:10236000E6464FF6FF7404EA052535430E8922F050
:10237000200204EA061616434A8804EA021232438F
:10238000104EB04202D0104EB04215D122F080065D
:102390004A8923F4406304EA0212324322F04006E1
:1023A0008A8804EA021232438E8904EA86061E43B2
:1023B000CB8904EA8303334383800583C98801877B
:1023C000028470BD002C01400034014070B5028CC5
:1023D00022F480720284028C8388848B0D8824F01E
:1023E000730425430E894FF6FF7422F4007204EA49
:1023F000062616434A8804EA02223243104EB042AF
:1024000002D0104EB04215D122F400664A8923F45E
:10241000405304EA0222324322F480668A8804EAA6
:10242000022232438E8904EA06161E43CB8904EA4F
:102430000313334383808583C9888187028470BDF9
:10244000002C01400034014070B5028C22F480520F
:102450000284058C8288838B0C8823F4E6464FF631
:10246000FF7303EA0424344325F400560D8903EA7C
:10247000053535434E8803EA06362E43094DA842FA
:1024800002D0094DA84205D122F480458A8903EA89
:1024900082122A4382808483C988A0F8401006846F
:1024A00070BD0000002C014000340140028922F080
:1024B00070020A4302817047028922F08002028181
:1024C00002890A430281704730B50124058C00F16E
:1024D00018038C40A543058489B108290FD0091F32
:1024E000C1F34E001844016821F4E0410160016825
:1024F0004FF6FF7303EA02221143016030BD03EB84
:102500005100016821F0700101600168F4E7028860
:1025100022F00802028002880A4302807047828803
:1025200022F07002828082880A438280704702898A
:1025300022F00702028102890A43028170478185E5
:102540007047818670470187704781877047A0F880
:1025500040107047028B22F00C020283028B0A4368
:1025600002837047028B22F440620283028B4FF693
:10257000FF7303EA01210A4302837047828B22F032
:102580000C028283828B0A4382837047828B22F4FF
:1025900040628283828B4FF6FF7303EA01210A4374
:1025A0008283704730B502881B4C1C4DA0420DD071
:1025B000A8420BD0B0F1804F08D0194B984205D0FB
:1025C000184B984202D0184B984203D122F0700366
:1025D0004A881A43154B984206D0154B984203D0AF
:1025E00022F44073CA881A4302808A8882850A8846
:1025F0000285A0420AD0A84208D00E4A904205D0D7
:102600000D4A904202D00D4A904201D1097A0186CA
:102610000121818230BD0000002C014000340140C6
:102620000004004000080040000C00400010004082
:1026300000140040004001400044014000480140B7
:102640002DE9F0478EB04BF680300024ADF8100035
:102650000A26634FADF81460ADF81240ADF816408D
:102660008DF8184004A93846FFF79CFFADF82240CA
:102670000120ADF81C40ADF82000ADF82440ADF8C5
:102680001E4007A93846FFF783FD7025ADF80050BE
:10269000ADF80240ADF80840ADF80660694638462E
:1026A000FFF754FE08213846FFF731FF1021384666
:1026B000FFF735FF40213846FFF7F8FE0621384680
:1026C000FFF735FF80213846FFF7F6FE0121384637
:1026D000FFF745FD3020ADF810004FF6FF70ADF864
:1026E0001400DFF800A1ADF81240ADF816408DF8E7
:1026F000184004A95046FFF755FF0227F801ADF82E
:102700000C0060264000ADF80060ADF80440ADF864
:1027100008704FF00808ADF80E004FF06409ADF8EE
:102720000240ADF80A80ADF8069069465046FFF7C2
:102730000DFEADF80050ADF80440ADF80870ADF8EE
:102740000240ADF80A80ADF8069069465046FFF7A2
:102750003DFEC820ADF80060ADF80600ADF80240BF
:10276000ADF8084069465046FFF7B0FD0AA8FFF7EC
:10277000E2FCB802ADF828000AA95046FFF7CAFCEF
:1027800000215046FFF792FE06215046FFF7CFFE8C
:1027900042215046FFF7E3FCADF80050ADF802408F
:1027A000ADF80840ADF8064069465046FFF74CFECC
:1027B00010215046FFF7B3FE47F23050ADF8140039
:1027C0000B20ADF81000ADF81640ADF812408DF8B2
:1027D000184004A90448FFF7E5FE0EB0BDE8F087F5
:1027E000002C0140003401400010004070B50D4C39
:1027F000204600F0C5F805462021204600F03EF8AE
:10280000094C207858B1FFF749FA00202070E806FB
:1028100007D02946BDE870400320FEF719BA012011
:10282000207070BD004400400C0000207FB5684659
:1028300000F0AEF846F2A81000904FF480500D4D15
:10284000ADF804000024ADF808406946284600F0C1
:1028500041F80121284600F014F8684600F098F885
:102860004FF496600090ADF804406946024800F0CD
:1028700031F87FBD0038014000440040C943018069
:1028800070470029818902D041F4005101E021F410
:102890000051818170470246002012880A4200D010
:1028A0000120704710B5C1F3421301F01F0401214C
:1028B000A140012B07D0022B07D01430002A026858
:1028C00005D00A4304E00C30F8E71030F6E78A43FD
:1028D000026010BD30B50446008A85B00D464CF646
:1028E000FF710840E98801432182A0894EF6F31167
:1028F0000840A9882A8911436A8902431143A181AA
:10290000A08A4FF6FF410840A9890143A182684689
:10291000FEF770FD1948844201D1039800E0029847
:10292000A189090400EBC00101EB0010296801D561
:10293000490000E08900B0FBF1F06422B0FBF2F145
:1029400009010B096FF018056B4300EB8300A389A5
:102950001D044FF0320306D503EBC000B0FBF2F0CC
:1029600000F0070005E003EB0010B0FBF2F000F010
:102970000F000843208105B030BD00000038014041
:102980008088C0F308007047C1F308018180704758
:102990004FF41651016000218180C18001810C2219
:1029A00042818181704705210420FDF737FFFEF742
:1029B000A9FC0000C2B04FF482716846FDF768FCC4
:1029C00008494FF401304860FEF72AFEFEF72AF965
:1029D000FFF738F96846FEF753FA6846FDF7C4FF7B
:1029E000F8E70000002004E002494FF0000000F08A
:1029F000B1BA00BF0000F87F2DE9C04130B4DFF864
:102A0000A0C23CEA111418BF3CEA131400F0EC8099
:102A100081EA03051CEA111444EAD57418BF1CEAC4
:102A2000131500F0C780A4EB05044FF0004545EAFC
:102A3000C12145EAC32341EA505143EA525304F10C
:102A40007F74994204F500344FEAC0204FEAC22255
:102A500008BF904200F09C804FEA13650FF24016C9
:102A6000765D4FEA134506FB05F7C7F1807706FB55
:102A700007F74FEAD737A7FB03687642C8F58038D7
:102A8000A7FB06CE38BFA8F1010807FB08E64FF008
:102A9000000EA6FB028CE6FB03CEDCF1000CCEF1AF
:102AA000004E38BFAEF1010EA6FB0C584FF00007E8
:102AB0004FF00005E6FB0E87A1FB08C6A0FB07CE82
:102AC00016EB0E0645F10005E1FB076515F1E04E3A
:102AD0007EBFA4F580345FEA46066D4116F180079B
:102AE00045F100054FEA17274FEA066647EA0567F2
:102AF000A6F1DE46B6F1805F4FEA15251FD93846AC
:102B000024F0010C05EBC471BCF1FE6F01EB0C115C
:102B100002D8F0BCBDE8008124425CBF01F5801EF4
:102B20009EEAC47F02D4F0BCBDE80081244238D4C0
:102B3000F0BCA1F1C041BDE8004100F005BA4FEA88
:102B4000D22242EA43524FEAD323A7FB02864FEA3E
:102B5000D02040EA415007FB03661EEA0E0F4FEA01
:102B6000D12105FB026658BFA6EB0056B6EB005616
:102B70004FEA520E4EEAC37E18EB0E0E56EB530E82
:102B8000BDD518EB02085E417F1C55F10005B6E784
:102B90004FF480154FF000074FF000064FF000088B
:102BA000ADE7F0BC4FF0000001F1C04101F0004181
:102BB000BDE8008111EA0C1F0CEA131500D00CE0EF
:102BC00013EA0C1F00F025804FF00000F0BC81EAF2
:102BD000030101F00041BDE80081F0BCBDE8004107
:102BE00081EA030100F0B0B9F0BCBDE8004170B566
:102BF00000F05CF9097EFC3E00F007B881EA0301B1
:102C00004FF0000001F00041704781EA030100F03D
:102C10009BB9F0BCBDE800414FF00000214970476E
:102C2000FFFDFBF9F7F5F4F2F0EEEDEBE9E8E6E491
:102C3000E3E1E0DEDDDBDAD8D7D5D4D3D1D0CFCD18
:102C4000CCCBCAC8C7C6C5C4C2C1C0BFBEBDBCBB51
:102C5000BAB9B8B7B6B5B4B3B2B1B0AFAEADACAB4C
:102C6000AAA9A8A8A7A6A5A4A3A3A2A1A09F9F9E26
:102C70009D9C9C9B9A9999989797969595949393D8
:102C8000929191908F8F8E8E8D8C8C8B8B8A89896F
:102C900088888787868585848483838282818180F2
:102CA0000000FF070000F87F4FEA1153A3F580638F
:102CB000D3F11E03A8BFD3F1200C08DB4FF0004274
:102CC00042EAC12252EA505232FA03F070470942F6
:102CD0000BD4102BC4BF0020704703F5787CBCF1E7
:102CE000FF3F05D04FF0FF3070474FF000007047B6
:102CF00070B500F0DBF800BF4992248000207047D7
:102D0000F0E710F0004248BF4042B0FA80F310FAFA
:102D100003F10AD0C3F11D0303F580634FEA41506C
:102D200002EB035202EBD12170474FF000007047D5
:102D3000B0FA80F310FA03F10AD0C3F11D0303F5D2
:102D400080634FEA41504FEA035202EBD1217047B2
:102D50004FF0000070470000DFF848C170B51CEA72
:102D6000111E1EBF1CEA13159EEA0C0F95EA0C0FEC
:102D700000F06F8081EA030423EA4C134EEAD47E0C
:102D800021EA4C1141F4801143F48013AE44A1FBBD
:102D9000024CA0FB0365AEF17F7E361955EB0C05A6
:102DA000A1FB034C4CF10003A0FB021C16EB0C062C
:102DB000654153F10003094218BF46F0010613F4C0
:102DC000007F0BD14FEA03314FEA0530340341EA6B
:102DD000155140EA16506FF003020AE04FEAC32192
:102DE0004FEAC520F40241EA555140EA56506FF0CF
:102DF000020202EB2E4201EB025585EACE710AD0A7
:102E00005FEA440C18BF24F0004450F1000041F187
:102E1000000120EAD47040F2FE7C624500D270BD11
:102E2000A84214BF4FF080444FF04044002E08BF2A
:102E30000024BEF1806FA8BFA1F1C041BDE8704081
:102E400080F282804FF0000001F1C04101F00041AA
:102E500070479EEA0C0F0CEA131518BF95EA0C0F89
:102E600006D04FF0000081EA030E0EF0004170BD65
:102E700000F01CF88900013E00F007B800F009B826
:102E80004FEA430C5FEA5C5C08D081EA030100F082
:102E90005BB84FEA410C5FEA5C5CF6D14FF0000092
:102EA000014970470000FF070000F87F0EF1020E95
:102EB0002EF0030E5EF8046B364205D4012A43EB74
:102EC000030515F5001F12D8012841EB010C1CF574
:102ED000001F0CD80ED14FEAD17C15F5001F0CEB6A
:102EE0004C0C0CF1020C08BF4CEBD37C04E04FF00F
:102EF000080C01E04FEAD37C0CEB4C0526FA05F6F2
:102F000006F00706B6F1040C06D20EEB860CBDE8FF
:102F100070404CF0010C6047DFE80CF0090B020236
:102F20004FF000414FF00000A1F5002170BD19469F
:102F30001046012851EB010418BFD4F5001484BFDA
:102F4000002001F0004170BD0808A0F500114FEA13
:102F5000310170470CF00F03092B08BF082000F067
:102F600059800A2B0BD0082B18BF704708BF1CF0E4
:102F7000400F0AD04FF000004FF0000170471CF0E6
:102F8000400F18BF4FF0004070471CF0100F08D0E2
:102F900020F0704300F07F4242EAD3014FEA4370D1
:102FA000704700F0604021F07F4242EA000201F0E9
:102FB0007F4040EA727070474FF0FF0C4CF4E06CB9
:102FC0001CEA11531CBF9CEA030C9445C2BFDA42B1
:102FD00001EB02517047002B0DD0BCF1000F0FD058
:102FE000002A01F00041A4BF41F0E04141F07F61BF
:102FF0004FF00000704701F000414FF000007047B3
:1030000050EA01334FF09B0C18BF4CF0806C7FF4FA
:10301000EBAC70471CF4801F11D01CF4E02F03D0E0
:103020006FEACC31490070474FF04050EFF3008217
:1030300022F0704242EA000282F3008870474FF0AB
:103040000000704729120008DD1B000889160008DF
:103050009D160008391700080D1A00088918000885
:10306000D5170008551A000811090008AD1B000803
:103070000000000000000000000000000000000050
:103080006D0F0008A4300008000000203C00000084
:103090006C010008E03000083C000020B40900008A
:1030A000880100080100000000000000000000008E
:1030B000000000000000000100000000000000000F
:1030C00000000000000000000001210204060800CA
:1030D00000000001020304010203040607080900BE
:0400000508000131BD
:00000001FF
