:020000040800F2
:10000000700A0020CD010008D5010008D3110008B6
:100010000D1A00085108000887360008000000008B
:10002000000000000000000000000000DF010008E8
:10003000E101000800000000E301000819290008A0
:10004000E7010008E7010008E7010008E7010008F0
:10005000E7010008E7010008E7010008E7010008E0
:10006000E7010008E7010008E7010008E7010008D0
:10007000E7010008E7010008E7010008E7010008C0
:10008000E7010008E7010008BD040008E7010008D7
:10009000E7010008E7010008E7010008E7010008A0
:1000A000E7010008652A0008E7010008E7010008E9
:1000B000E7010008E7010008E7010008E701000880
:1000C000E7010008E7010008E7010008E701000870
:1000D000E7010008E7010008CD340008E701000847
:1000E0002D0D0008E7010008E7010008E7010008FE
:1000F000E7010008052D0008052C0008E7010008AD
:10010000E7010008E7010008E7010008E70100082F
:10011000E7010008E7010008212B0008E7010008BB
:10012000E7010008E7010008E7010008E70100080F
:1001300000F002F800F03AF80AA090E8000C8244BF
:100140008344AAF10107DA4501D100F02FF8AFF29C
:10015000090EBAE80F0013F0010F18BFFB1A43F0A5
:10016000010318473040000050400000103A24BFFF
:1001700078C878C1FAD8520724BF30C830C144BF0C
:1001800004680C607047000000230024002500264E
:10019000103A28BF78C1FBD8520728BF30C148BFEA
:1001A0000B6070471FB51FBD10B510BD00F04EF9B4
:1001B0001146FFF7F7FF03F06DFA00F06CF903B496
:1001C000FFF7F2FF03BC00F071F900000948804717
:1001D00009480047FEE7FEE7FEE7FEE7FEE7FEE729
:1001E000FEE7FEE7FEE7FEE704480549054A064B41
:1001F000704700002D29000831010008700400201C
:10020000700A00207006002070060020431A28BFE4
:100210009A4240F26780032A1044114440F226803B
:1002200010F0030F1EBF11F8013D521E00F8013DF2
:1002300010F0030F7FF4F6AF11F0030300F0AA8073
:10024000083AC0F00B8051F8043D083A51F804CD4B
:1002500040F8043D40F804CDFFF7F3BF121D5CBF2A
:1002600051F8043D40F8043DAFF30080D20724BFAD
:1002700011F8013D11F801CD48BF11F8012C24BF40
:1002800000F8013D00F801CD48BF00F8012C70478F
:100290004FF0000200B5134694469646203922BF1F
:1002A000A0E80C50A0E80C50B1F12001BFF4F7AF6A
:1002B000090728BFA0E80C5048BF0CC05DF804EB4C
:1002C000890028BF40F8042B08BF704748BF20F8BA
:1002D000022B11F0804F18BF00F8012B70477047B8
:1002E00070477047032A40F2308010F0030C00F092
:1002F000158011F8013BBCF1020F624498BF11F860
:1003000001CB00F8013B38BF11F8013BA2F1040218
:1003100098BF00F801CB38BF00F8013B11F0030390
:1003200000F06280083AC0F0088051F8043B083AB7
:1003300051F804CBA0E80810F5E7121D5CBF51F896
:10034000043B40F8043BAFF30080D20724BF11F810
:10035000013B11F801CB48BF11F8012B24BF00F875
:10036000013B00F801CB48BF00F8012B7047431A4E
:1003700028BF9A4240F23880104410F0030F114415
:100380001EBF11F8013D521E00F8013D10F0030F91
:100390007FF4F6AF103AC0F00A8010B531E918507A
:1003A000103A20E91850BFF4F9AFBDE810405307E8
:1003B00024BF31E9081020E9081044BF51F8043D7A
:1003C00040F8043D12F0030F08BF7047D20728BF62
:1003D00031F8023D48BF11F8012C28BF20F8023D3A
:1003E00048BF00F8012C704710B5203AC0F00B80D0
:1003F000B1E81850203AA0E81850B1E81850A0E829
:100400001850BFF4F5AF5FEA027C24BFB1E8185082
:10041000A0E8185044BF18C918C0BDE810405FEAF2
:10042000827C24BF51F8043B40F8043B08BF70476E
:10043000D20728BF31F8023B48BF11F8012B28BF73
:1004400020F8023B48BF00F8012B7047754600F0CA
:1004500029F8AE4605006946534620F00700854658
:1004600018B020B5FFF7C0FEBDE820404FF00006F1
:100470004FF000074FF000084FF0000B21F007018C
:10048000AC46ACE8C009ACE8C009ACE8C009ACE8CF
:10049000C0098D4670470446AFF300802046FFF741
:1004A0008EFE0000004870470C040020014918200F
:1004B000ABBEFEE726000200704700002DE9F041C8
:1004C0000E211E4800F04CF81D4C6078002833D0F7
:1004D0001C4D28781C49C0EBC000096801EB4000A6
:1004E00000F058FE002802DD184A194B01E0194BB4
:1004F0000022124816463C301F46006803F044FBB9
:100500004FF06632144B03F08FFB6FF00B0203F0D9
:10051000DBFD32463B4603F09BF900220F4B03F014
:1005200083FB03F0EDFA297840EAC12081B2042070
:1005300000F066FC00206070BDE8F08100280140FA
:1005400024000020080000202000002046175D74D1
:10055000D1453B4000C0724066660A400088C340F7
:10056000C943016070470029816802D041F0010150
:1005700001E021F00101816070470029816802D00B
:1005800041F4004101E021F400418160704782683C
:1005900022F4E0420A4382607047014600208968E5
:1005A000490700D501207047C06C80B270470246F1
:1005B000002012680A4200D0012070470146002046
:1005C0008968090700D501207047002A4268C9B22E
:1005D00001D00A4300E08A434260704710B5426888
:1005E0000E4B0C791A400B6842EA04221343436015
:1005F00082680B4B1A40D1E9024323434C7942EA0B
:10060000440213438360C26A097C22F47002491ECB
:10061000C9B242EA0151C16210BD0000FFFEF0FF05
:10062000FDF7F1FF70B5072609290AD9C568A1F1C0
:100630000A0404EB4404A640B543A3401D43C5602F
:1006400007E0056901EB4104A640B543A3401D4303
:100650000561836BC3F30154121B921C02EB8202EF
:100660001F249440A34391400B43836370BD70B536
:10067000072609290AD9C568A1F10A0404EB440434
:10068000A640B543A3401D43C56007E0056901EBE3
:100690004104A640B543A3401D4305611F23072A1B
:1006A00009D2446B521E02EB820293409C4391405C
:1006B0000C43446370BD0D2A09D2046BD21F02EBB8
:1006C000820293409C4391400C43046370BDC46A12
:1006D0000D3A02EB820293409C4391400C43C4626A
:1006E00070BD816841F00801816070470029816810
:1006F00002D041F4A00101E021F4A0018160704723
:10070000816841F0040181607047000010B50F4C12
:100710000121204602F076FB01221146204602F01C
:100720001DFC0121204602F070FB094C20212046CF
:1007300002F014FF012240F22551204602F022FF70
:100740002046BDE81040012102F00BBF0010004020
:100750000044004010B586B000214FF46020CDE980
:1007600002018DF804100120284C00918DF805102D
:100770008DF8100069462046FFF730FF072301225D
:1007800008212046FFF773FF01212046FFF7EBFE0B
:100790002046FFF7A6FF2046FFF710FF0028FAD1FA
:1007A0002046FFF7ADFF2046FFF7F7FE0028FAD1FD
:1007B000174C69462046FFF711FF01231A4609210D
:1007C0002046FFF72FFF4FF4C0412046FFF7DFFE22
:1007D0000121104800F0ACFB01212046FFF7CDFEBF
:1007E00001212046FFF7BFFE2046FFF77AFF204693
:1007F000FFF7E4FE0028FAD12046FFF781FF2046EC
:10080000FFF7CBFE0028FAD106B010BD002401404E
:10081000002801400800200010B501214FF0C05011
:1008200001F0B8F9BDE81040012001F097B90000CF
:1008300008B5024908440090008808BD006C0040DB
:1008400008B5024A10440090016008BD006C0040E9
:1008500003210420FFF7F4FF01F01AF92DE9FC5FF2
:100860008B4605460024C3E0C4EBC40305EB4300FC
:100870004FF4FA62B0F9021001F57A71914202D98F
:1008800047F2030007E0B0F9041001F57A719142D4
:1008900004D947F2050040EA44103CE0417841B1F8
:1008A000012906D0802904D0812902D047F20D0009
:1008B000F1E7C788B7B1A7F1640241F22536B24229
:1008C00010D3C4EBC40005EB4000C18841F288306E
:1008D000814201D9012000E0002040EA441047F2A3
:1008E000060117E00689CEB1A6F1640241F2253C6B
:1008F000624513D3C4EBC40005EB4000018941F20B
:100900008830814201D9012000E0002040EA4410F3
:1009100047F20801084380B2BDE8FC9FB0F80A80A6
:100920004BF6813CA8F5FA62624510D3C4EBC400D3
:1009300005EB40004CF250314089884201D901203A
:1009400000E0002040EA441047F20A01E2E7828911
:1009500041F2753CA2F11400604510D3C4EBC40011
:1009600005EB4000818941F28830814201D90120A4
:1009700000E0002040EA441047F21001CAE715F8F1
:100980001300009030B1B8196430404502D947F2E5
:10099000130080E7601CC0B2584528D2C0EBC000ED
:1009A00005EB400021F08001407820F0800081427A
:1009B00002D04FF42F7000E0C8200190104603F0E1
:1009C000E3F800220D4B03F02FF98A468146009987
:1009D000019808FB01713044084403F0D5F84A46F9
:1009E000534603F01FFA02D247F2150053E7641C86
:1009F0005C45FFF639AF00208EE7000000408F40D5
:100A000070B50F4D04462878C0B1B4F80100411EFE
:100A10001F290ED8C1B22869FFF720FF18B1BDE821
:100A2000704001F067B9607868700120A8700020FC
:100A300000E00C20BDE8704001F07DB90D20F9E721
:100A40001000002030B412490278124B0C7802F0EA
:100A50000F016CB10F2904D253F82110B1B90B204A
:100A60000FE081780029FAD10A49091F09680DE0D1
:100A7000120709D00E2902D1B0F8012022B1064890
:100A8000007830BC01F057B953F8211030BC08474A
:100A900010000020584100080A000020044B0122E9
:100AA0008240186809B1104300E090431860704715
:100AB0000074004030B5084C236840F6FE72824056
:100AC0009343D1E900252A43D1E902510D432A433A
:100AD00082401A43226030BD00740040034A08B5CA
:100AE000104408300090016008BD00000074004010
:100AF00010B5114C8CB0204600F030F80F48009033
:100B00000F4801901020029001200021CDE903013F
:100B1000059120200691CDE907104FF44050CDE912
:100B200009016946204600F08BF80121204600F0BB
:100B300009F80CB010BD00001C0402400C38004045
:100B4000090000200029016802D041F0010102E003
:100B50004FF6FE72114001607047000001684FF6C9
:100B6000FE72114001600021016041608160C1603E
:100B70003149314A0839904203D1486840F00F00AA
:100B800006E02D4A1432904204D1486840F0F0004B
:100B900048607047284A2832904203D1486840F4A0
:100BA0007060F5E7244A3C32904203D1486840F433
:100BB0007040EDE7204A5032904203D1486840F43B
:100BC0007020E5E71C4A6432904203D1486840F443
:100BD0007000DDE7184A7832904203D1486840F04F
:100BE0007060D5E7154A111F904203D1086840F0A4
:100BF0000F0006E0114A1432904204D1086840F018
:100C0000F000086070470D4A2832904203D108680E
:100C100040F47060F5E7094A3C32904203D108681D
:100C200040F47040EDE7054A50329042EAD108683E
:100C300040F47020E5E7000008000240080402408C
:100C400030B5026847F6F0739A430C6A8B68234309
:100C5000D1E904452C4323438C692343CC692343C6
:100C60004C6A23438C6A234313430360CA6842607F
:100C70000A6882604968C16030BD1FB50C200090D1
:100C80000020019002900220039069460020FFF7A7
:100C900011FF01210020FFF701FF1FBD70B5164CA9
:100CA000032202EB820304EB830393F9005093F9D0
:100CB0000160B54201D19D78CDB102EB820504EB14
:100CC000850494F9004003EB4405641E1C70AC8855
:100CD0000480521C0A7093F90000002801DA0720F2
:100CE0001870987808B100209870012070BD521ECD
:100CF000D7D5002070BD00003C00002010B500F0EA
:100D0000CBFF00F045F902F001FC02F0E9FA00F037
:100D1000D1FEFFF71FFDFFF7B0FF01F023F8FFF74B
:100D2000E7FEBDE8104000F01DB800000B48018848
:100D300041F00101018009481438018841F00101A6
:100D400001800748016821F4805101600448143093
:100D5000016841F00101016070470000140C00407F
:100D6000000401401CB54FF48050009001208DF824
:100D7000060000248DF8044008208DF80500684620
:100D800000F006F88DF80640684600F001F81CBD3A
:100D900030B51A4A8379016853B313688B431360E3
:100DA000111D0B680468A3430B60017911440B68A3
:100DB000046823430B60114B083319680468A1438E
:100DC00019601C1D21680568A9432160417910291B
:100DD00005D011440A68006802430A6030BD1968F2
:100DE000026811431960216800680143216030BD29
:100DF0000079104402688A43026030BD000401405B
:100E000000EB8002114800EB820010F8122C0AB1AE
:100E10000020704710F9132C00EB4203521E00F81B
:100E2000132C23F8101C10F9131C002902DA0721D7
:100E300000F8131C10F9131C10F9142C914202D164
:100E4000012100F8121C0120704700003C00002026
:100E50000548016841F01001016003481030016845
:100E600041F4E0210160704714ED00E010B58A07FD
:100E700021F003040649120F21440F238C6893408C
:100E80009C438C608B68904003438B6010BD0000D6
:100E900000000140F0B5CC78002204F00F03E40616
:100EA00001D58C7823430C784FF00F0C14F0FF0F12
:100EB0004FF0010E1BD005680E880EFA02F4264092
:100EC000A64210D196000CFA06F725EA070703FAA6
:100ED00006F5CE783D43282E02D0482E02D002E0FF
:100EE000446100E00461521C082AE5D305600A88C9
:100EF000FF2A1CD94468002202F108060EFA06F502
:100F00000E882E40AE420ED196000CFA06F7BC4376
:100F100003FA06F7CE783C43282E00D14561CE78FF
:100F2000482E00D10561521C082AE5D34460F0BD6B
:100F3000F0B5144C002801DAE36900E06368450D60
:100F40002E0185B2C0F30157B540C0F30342032F11
:100F500005D0C6020AD503269640B34307E023F026
:100F60007062636823F07063636002E0AB4343F038
:100F7000706201B12A43002801DAE261F0BD6260CB
:100F8000F0BD000000000140416170470161704701
:100F90002DE9F84F4FF48060ADF80000DFF84CB158
:100FA00004258DF8035069465846FFF773FF4FF448
:100FB0004070ADF8000003248DF8024018268DF82B
:100FC000036069465846FFF765FFE001ADF8000091
:100FD000DFF81C918DF802408DF8036069464846A1
:100FE000FFF758FF6803DFF80CA1ADF80000694671
:100FF0005046FFF74FFF61024846FFF7C7FF402109
:101000004846FFF7C1FF4FF4C860ADF80000102755
:101010008DF803708DF8024069464846FFF73AFFA5
:101020004FF4805841465046FFF7B0FFADF80080BE
:1010300069465046FFF72EFF0820ADF800008DF8F6
:10104000035069465846FFF725FFADF800508DF86C
:1010500002408DF8036069465846FFF71BFFADF864
:10106000004000208DF8030069465046FFF712FF4C
:101070000120ADF8000069465846FFF70BFFAD01AF
:1010800029465046FFF780FFADF800508DF80370F9
:101090008DF8024069465046FFF7FCFE6800ADF847
:1010A000000028258DF8035069465046FFF7F2FEF0
:1010B00009210120FFF7DAFEADF800808DF803501A
:1010C00069464846FFF7E6FE0C210220FFF7CEFEF8
:1010D0000220ADF800008DF803708DF802406946DB
:1010E0005846FFF7D7FEBDE8F88F00000008014022
:1010F00000100140000C01402DE9F047DFF890900E
:1011000000250646B9F800102C462F4641F0040190
:10111000A9F80010DFF87880A8F10C0820214046DB
:1011200002F029FA0028F9D0404602F099FAC105E8
:1011300009D500242746254610F0F00FEED1C5B2A0
:101140003570741CEAE7002CE8D03178C9430907F0
:1011500009D0F11C8C420FD204F8010B2844C5B20F
:10116000DCE70024DAE7711C8C4203D1C1B28F198D
:10117000FF1CF1E7BC42EFD1C0B2A842F1D1B9F8EF
:10118000001021F00401A9F80010A01BBDE8F087B1
:101190000C380140C2880189AAB189B1B0F90210A6
:1011A000002907DAB0F90420002A03DA914205DBAE
:1011B00010467047B0F904008142FADD08467047D6
:1011C000B0F90200704711B1B0F904007047002077
:1011D000704706210420FFF733FB00F059FC0000A4
:1011E00010B5B0F801204FF69C7152B1012A11D010
:1011F000022A17D00A2A1BD0BDE810400B2000F0AD
:101200009ABD002000F09BFDFFF780FA0E490120F7
:10121000087012E00078BDE8104000F00F000821CF
:1012200000F08DBDBDE810400821084800F066BD03
:10123000002000F084FD01F029FB0021BDE81040F2
:101240000120FFF7DDBD000010000020000000209D
:101250000020064B072200EB800103EB81014A705E
:101260000A70401C0428F6DB704700003C00002098
:101270002DE9F041FE4C2078FE4DC0EBC0016FF02F
:101280001D07286810F8111000292178C1EBC10151
:101290007ED000EB41004089DFF8DC8386B2314626
:1012A000404601F09CFF3146404601F09CFF20780B
:1012B000F14AC0EBC0012868303210F811101180DB
:1012C000ED490C310A8822F001020A80EA4A143200
:1012D000138843F0010313800A1D138823F00103D0
:1012E00013800A8842F001020A802178E34AC1EBA8
:1012F000C10100EB41018989491E11802178E04E2E
:10130000C1EBC10100EB41014FF00108497809062A
:1013100021784246C1EBC10100EB41004FF00001D2
:10132000B0F902007ED400F0D9FF2078C0EBC001F4
:10133000286800EB41014988E18021782278C1EBDF
:10134000C10100EB4101C988C2EBC20200EB4202BD
:10135000B2F90220BA421ADB2278C2EBC20200EBD9
:101360004202B2F902201E327ED02278C2EBC202C3
:1013700000EB4202B2F90220143276D02278C2EB9E
:10138000C20200EB4200B0F902000A306ED000E069
:10139000EAE00620084481B2304601F024FF6022D2
:1013A0000421304601F0E0FE20782278C0EBC00135
:1013B000286800EB4101C988C2EBC20200EB42027F
:1013C000B2F90220BA421ADB2278C2EBC20200EB69
:1013D0004202B2F902201E327ED02278C2EBC20253
:1013E00000EB4202B2F90220143276D02278C2EB2E
:1013F000C20200EB4200B0F902000A306ED00620B3
:10140000084481B2304601F0ECFE20782A68C0EB37
:10141000C00102EB4100C088001F81B2304601F0DC
:10142000E6FE00E031E101220421304601F0DCFC5F
:101430002078C0EBC001286800EB41010989002930
:101440007ED021782278C1EBC10100EB4101C9882F
:10145000C2EBC20200EB4202B2F90220BA421EDB2A
:101460002278C2EBC20202E0BAE0BBE0BCE000EBD3
:101470004202B2F902201E3274D02278C2EBC202BC
:1014800000EB4202B2F9022014326CD02278C2EB97
:10149000C20200EB4200B0F902000A307DD0062003
:1014A000084481B2304601F0A0FE70220821304687
:1014B00001F05AFE2078C0EBC001286800EB410122
:1014C000CA882178C1EBC10100EB410109891144AF
:1014D0002278C2EBC20202E088E089E08AE000EBF9
:1014E0004202B2F90220BA421ADB2278C2EBC202EF
:1014F00000EB4202B2F902201E326FD02278C2EB1A
:10150000C20200EB4202B2F9022014327DD02278EE
:10151000C2EBC20200EB4200B0F902000A3076D002
:101520000620084481B2304601F05BFE207829682D
:10153000C0EBC00001EB4000FFF72CFE014600E0CD
:10154000A0E02078C0EBC002286800EB4202B2F9AC
:10155000022091422178C1EBC1015AD100EB410038
:10156000C08860E048E049E000EB4101CA8821788A
:10157000C1EBC10100EB410109890A442178C1EBAB
:10158000C10100EB4101B1F90210B9421CDB217825
:10159000C1EBC10100EB410100E032E0B1F9021002
:1015A0001E3115D02178C1EBC10100EB4101B1F929
:1015B000021014310ED02178C1EBC10100EB4100C3
:1015C000B0F902000A3007D006206430104463E608
:1015D0000E20FAE71420F8E72120F6E713E014E0E4
:1015E0000E20D7E61420D5E62120D3E60E2007E70B
:1015F000142005E7212003E70E2051E714204FE7D0
:1016000005E021204CE70E208BE7142089E72120FC
:1016100087E700EB4101CA882178C1EBC10100EBEB
:10162000410000891044001F81B2304601F0DFFD07
:1016300001220821304601F0D7FB2078C0EBC00121
:10164000286800EB4101B1F902202178C1EBC1010A
:1016500000EB4100B0F9040082427DD084F80380A1
:101660000421304601F0CBFB0122042172E100008D
:101670000800002020000020002C01402C0C00401D
:1016800000340140002208216AE100F027FE2078A2
:10169000C0EBC001286800EB41014988E180217856
:1016A0002278C1EBC10100EB4101C988C2EBC20243
:1016B00000EB4202B2F90220BA421ADB2278C2EBF6
:1016C000C20200EB4202B2F902201E327ED0227822
:1016D000C2EBC20200EB4202B2F90220143276D011
:1016E0002278C2EBC20200EB4200B0F902000A30DD
:1016F0006ED00620084481B2304601F076FD6022AB
:101700000821304601F030FD20782278C0EBC0017E
:10171000286800EB4101C988C2EBC20200EB42021B
:10172000B2F90220BA421CDB2278C2EBC20200EB03
:101730004202B2F902201E327ED02278C2EBC202EF
:1017400000EB4202B2F90220143276D02278C2EBCA
:10175000C20200EB420000E0FFE0B0F902000A30F4
:101760006CD00620084481B2304601F03AFD207862
:101770002A68C0EBC00102EB4100C088001F81B2A3
:10178000304601F034FD01220821304601F02CFBE7
:101790002078C0EBC001286800EB410109890029CD
:1017A0007ED021782278C1EBC10100EB4101C988CC
:1017B000C2EBC20200EB4202B2F90220BA421EDBC7
:1017C0002278C2EBC20200EB420202E07CE07DE044
:1017D0007EE0B2F902201E3274D02278C2EBC2023F
:1017E00000EB4202B2F9022014327CD02278C2EB24
:1017F000C20200EB4200B0F902000A3075D00620A8
:10180000084481B2304601F0EEFC702204213046DB
:1018100001F0AAFC2078C0EBC001286800EB410170
:10182000CA882178C1EBC10100EB4101098911444B
:101830002278C2EBC20202E04CE04DE04EE000EB49
:101840004202B2F90220BA421ADB2278C2EBC2028B
:1018500000EB4202B2F902201E3248D02278C2EBDD
:10186000C20200EB4202B2F90220143241D02278C7
:10187000C2EBC20200EB4200B0F902000A303AD0DB
:101880000620084481B2304601F0ABFC207829687C
:10189000C0EBC00001EB4000FFF77CFC014600E01C
:1018A0005CE02078C0EBC002286800EB4202B2F98D
:1018B000022091422178C1EBC1011ED100EB410011
:1018C000C08824E00DE00EE00E2013E7142011E79D
:1018D00021200FE70E2045E7142043E7212041E7B0
:1018E00003E00E208CE714208AE7212088E70E20F1
:1018F000C7E71420C5E72120C3E700EB4101CA88F0
:101900002178C1EBC10100EB410000891044001FA8
:1019100081B2304601F06BFC01220421304601F017
:1019200063FA2078C0EBC001286800EB4101B1F9EF
:1019300002202178C1EBC10100EB4100B0F90400A5
:10194000824210D084F803800821304601F057FA13
:1019500001220821304601F001FB04E000220421AD
:10196000304601F041FA2078802141EA8000607021
:1019700020782968C0EBC00001EB40004078C10727
:101980000A4809D0016941F400710161416941F4DB
:1019900080614161BDE8F081416941F400714161BC
:1019A000016941F480610161F4E700000010014029
:1019B00070B5154C2178012901D00D200EE0C178B9
:1019C0002269C1EBC10102EB410241780E23491E9D
:1019D000B1FBF3F503FB151121B16420BDE87040A4
:1019E00000F0A9B9012105E043185518DB7805F886
:1019F000013C491C43788B42F6DC002000F09BF947
:101A00000020A07070BD00001000002004210846D6
:101A1000FEF716FF00F03CF830B50F23C2780178CE
:101A20000125F2B1144A126801F1E02102F4E062EA
:101A3000C2F5E062120AC2F10404D3404278A24027
:101A400084781C401443220181F80024007800F0BF
:101A50001F018D404009800000F1E020C0F80051D6
:101A600030BD01F01F0085404809800000F1E020F2
:101A7000C0F8805130BD00000CED00E00249084381
:101A800002490860704700000000FA050CED00E014
:101A9000BFF34F8F05480168054A01F4E061114327
:101AA0000160BFF34F8F00BFFDE700000CED00E0C9
:101AB0000400FA0538B54FF4C060FFF7DFFF1920C6
:101AC0008DF8000000248DF8014003208DF80200FD
:101AD00001258DF803506846FFF79EFF2D208DF8F5
:101AE00000008DF801408DF802506846FFF794FF22
:101AF0002E208DF800008DF8014002208DF80200A4
:101B00006846FFF789FF36208DF800008DF80150F8
:101B10008DF802406846FFF77FFF26208DF8000011
:101B20008DF801508DF802506846FFF775FF1220BE
:101B30008DF800008DF8014004208DF80200684601
:101B4000FFF76AFF28208DF800008DF801408DF81E
:101B500002406846FFF760FF38BD00000149086297
:101B60007047000000000E42034A516821F44041D2
:101B7000014351607047000000100240044A0029F0
:101B8000516901D0014300E0814351617047000079
:101B900000100240044A0029D16901D0014300E04D
:101BA0008143D1617047000000100240044A0029BF
:101BB000916901D0014300E08143916170470000C9
:101BC000001002400248416A41F080714162704752
:101BD0000010024030B5204A5168204B11F00C0132
:101BE00003D0042901D0082901D0036012E0516814
:101BF000536801F470114FF0020413F4803F04EBBA
:101C0000914102D053689B0301D5154B00E0134B63
:101C10005943016051680F2303EA1111114B5C5CB9
:101C20000168E14041605468072505EA14241C5D01
:101C300021FA04F48460546805EAD4241B5DD94079
:101C4000C1605268032303EA9232064B1B1F9A5C61
:101C5000B1FBF2F1016130BD0010024000127A00C8
:101C600000093D002B000020034600205909094AC5
:101C700001290AD002290AD0516A03F01F02012368
:101C800093400B4200D0012070471168F5E7116ABC
:101C9000F3E700000010024010B5012146F61D6078
:101CA000FFF784FF4FF48040FFF75EFF4FF4C06002
:101CB00000F016F801210648FFF76CFF0121022011
:101CC000FFF75CFFBDE81040042000F003B80000FF
:101CD000184002200149C8717047000000100240FE
:101CE000034A516821F4E0610143516070470000EC
:101CF000001002400146002000F021B810B5C2B02B
:101D00000C469DF80010621E21F0F00141F00F0119
:101D10008DF80010611E8DF8011001788DF8021009
:101D2000411C0DF10300FEF771FAA11C684600F09A
:101D3000C3F842B010BD01460020AFF3008000B5EB
:101D4000C1B09DF8002060F3030222F0F0008DF88E
:101D50000000ADF801100321684600F0ADF841B075
:101D600000BD000010B586B04FF440400121ADF831
:101D70000000ADF808104FF482704902ADF802007F
:101D8000ADF80A1000201821ADF80C10ADF80400D1
:101D9000ADF80600ADF80E000520064CADF81000B9
:101DA0006946204600F012F80121204600F004F8B0
:101DB00006B010BD003800400029018802D041F073
:101DC000400101E021F040010180704730B50288F8
:101DD0004C8802F441530A88CD8822438C882C43D6
:101DE00022430C8922434C8922438C892243CC898B
:101DF00022431A430280828B22F400628283098A82
:101E0000018230BD10B5FFF723F8FEF705FD7C20F9
:101E1000FFF72AFF144C012819D07B20FFF724FF7D
:101E200001281DD07A20FFF71FFF012818D07E203F
:101E3000FFF71AFF012815D07D20FFF715FF0128B5
:101E400010D00720A070BDE81040FFF7BBBE0420F3
:101E5000FEF7EEFCA07000210420FEF7F1FCF2E793
:101E60000120EFE70220EDE7080000200349B0F869
:101E7000010048810020FFF75EBF00001000002035
:101E80000349B0F8010088810020FFF754BF00002B
:101E900010000020064B10B500221A7101430548BE
:101EA00001F0E2FBBDE8104044F61D1000F014BC48
:101EB00008000020004400402DE9F041164F8846FC
:101EC00006468021384601F056FB0028F9D03578C7
:101ED000384645F4807101F0C7FB01240DE08021F4
:101EE000384601F048FB0028F9D0315D4819C5B2E9
:101EF000384601F0B9FB641CE4B24445EFD38021BD
:101F0000384601F038FB0028F9D029463846BDE8AC
:101F1000F04101F0A9BB000000380140114B598984
:101F20001A691F291BD85B785B1E994214DCB0F933
:101F3000010000F57A73B3F5FA6F06D947F2030092
:101F400040EA411080B2FFF7D5BEC1EBC10102EB00
:101F500041014880002000E06620FFF7ECBE6520CC
:101F6000FBE70000100000202DE9F84F3A4F8246B1
:101F700078893E691F286CD87978491E884263DCCD
:101F8000C0EBC00106EB41046278E37B22F08002E3
:101F900023F080039A4202D04FF42F7200E0C8224F
:101FA0000092BAF8015095B1A5F1640241F22533CF
:101FB0009A420CD341F288318D4201D9012100E0CF
:101FC000002141EA401047F2060108432DE016F8CF
:101FD00011105FEA010B08D021896289294464311C
:101FE000914202D947F213011DE07978491E8842D7
:101FF00020DAA08901F0C8FD0022184B01F014FE80
:102000008946804621896289009802FB0B11284489
:10201000084401F0B9FD42464B4601F003FF09D2E6
:10202000788947F2150141EA4010BDE8F84F80B2C7
:10203000FFF760BE7889BAF80110C0EBC00006EB6C
:102040004000C180002000E06620BDE8F84FFFF7A7
:1020500072BE6520F9E700001000002000408F40AC
:102060002DE9F84F4A4E8146708935691F287DD881
:102070007178491E88427ADCC0EBC00B05EB4B043B
:10208000B9F80110E37B21F0800223F080074FF4C0
:102090002F73BA4201D01F4600E0C827009714F8FA
:1020A0000D7C27F08007BA4200D1C8239A4651B16F
:1020B000012908D0802906D0812904D047F20D01DA
:1020C00041EA40104AE07178491E88421FDAA0892F
:1020D00001F05AFD00222F4B01F0A6FD074688466D
:1020E0002189628915F81B0002FB0011E288009823
:1020F0001044084401F048FD43463A4601F092FE80
:1021000005D2718947F2150040EA411026E0708936
:1021100048B3C0EBC00005EB400434F8020C0E3CA1
:1021200001F032FD00221B4B01F07EFD0746884680
:1021300020896189227801FB0201E28802EB0A0012
:10214000084401F021FD43463A4601F06BFE0AD2F5
:10215000708947F21501400120380843BDE8F84F67
:1021600080B2FFF7C7BD99F8011001E00DE007E06C
:102170007089C0EBC00005EB40004170002000E01A
:102180006620BDE8F84FFFF7D6BD6520F9E70000EF
:102190001000002000408F40114B59891A691F29F7
:1021A0001BD85B785B1E994214DCB0F9010000F586
:1021B0007A73B3F5FA6F06D947F2050040EA411089
:1021C00080B2FFF797BDC1EBC10102EB41018880EE
:1021D000002000E06620FFF7AEBD6520FBE70000B1
:1021E000100000202DE9F84F3A4F824678893E6969
:1021F0001F286CD87978491E884263DCC0EBC00187
:1022000006EB41046278E37B22F0800223F0800336
:102210009A4202D04FF42F7200E0C8220092BAF81E
:10222000015095B1A5F1640241F225339A420CD3D5
:1022300041F288318D4201D9012100E0002141EABB
:10224000401047F2060108432DE016F811105FEA2E
:10225000010B08D0E188628929446431914202D996
:1022600047F213011DE07978491E884220DAA089DF
:1022700001F08AFC0022184B01F0D6FC894680460A
:10228000E1886289009802FB0B112844084401F0A0
:102290007BFC42464B4601F0C5FD09D2788947F2E6
:1022A000150141EA4010BDE8F84F80B2FFF722BDAA
:1022B0007889BAF80110C0EBC00006EB400001813C
:1022C000002000E06620BDE8F84FFFF734BD652030
:1022D000F9E700001000002000408F4070B50C4668
:1022E00005465AB11B48002D04DD016941F040014B
:1022F000016103E0416941F040014161280000D5DE
:10230000684201F02AFC002D02DD134A134B01E064
:10231000134A144B01F088FC6D1C18D0124A134B61
:1023200001F0DAF901F0ECFB81B20020FEF7D6FBF8
:10233000002C0BD00E480168026842F0380202609F
:10234000021D136843F001031360016070BD002299
:102350001346E5E700100140E760D7DFBB140B40F0
:10236000CB1DA0DC01CA0D4032181588C5ED5640C2
:10237000007400402DE9F05F334E81467189356964
:102380001F295FD87078401E814256DCC1EBC10A1C
:1023900005EB4A046078E27B20F0800022F08002A6
:1023A000904202D04FF42F7000E0C8208346B9F865
:1023B000010041F27533A0F114029A420CD341F2AC
:1023C0008832904201D9012000E0002040EA41100B
:1023D00047F21001084321E07278521E914222DA3E
:1023E00001F0D2FB0022194B01F01EFC0746884683
:1023F000E188628915F81A0002FB0011228902EBBC
:102400000B00084401F0C0FB3A46434601F00AFDC8
:1024100009D2708947F2150141EA4010BDE8F05F2A
:1024200080B2FFF767BC7089B9F80110C0EBC0003B
:1024300005EB40008181002000E06620BDE8F05FF0
:10244000FFF779BC6520F9E71000002000408F40BD
:102450000CB50022264800920192016841F48031B7
:1024600001604FF4A063016801F40031019100990B
:10247000491C0091019911B900999942F3D1016861
:10248000890333D5012101911A490A6842F01002EB
:102490000A600A6822F003020A600A6842F0010238
:1024A0000A604168416041684160416841F480616F
:1024B0004160416821F47C114160416841F4881118
:1024C0004160016841F08071016001688901FCD5BB
:1024D000416821F003014160416841F0020141601F
:1024E0004168C1F381010229FAD10CBD01920CBDF2
:1024F00000100240002002402DE9F047374E804690
:10250000708935691F2866D87178491E88425DDC5C
:102510007278411C914200D10021C9B2C0EBC002C7
:10252000C1EBC10105EB420405EB4101627849783A
:1025300022F0800221F080018A4202D04FF42F71F4
:1025400000E0C8218A467178491E88421DDAA089B8
:1025500001F01AFB0022224B01F066FB81460F4678
:10256000E1886289B8F8010002FB0011228902EBC0
:102570000A00084401F0F1FA4A463B4601F052FCD9
:1025800003D2708947F2150112E0B8F8012012F069
:10259000FF0F14D07089C0EBC00105EB41010B891E
:1025A000CC884989234464338B4208D947F213010C
:1025B000BDE8F04741EA401080B2FFF79BBB70894D
:1025C000C0EBC00005F81020002000E06620BDE848
:1025D000F047FFF7B0BB6520F9E7000010000020CE
:1025E00000408F402DE9F84F394F824678893E6987
:1025F0001F286BD87978491E884262DCC0EBC00185
:1026000006EB41046278E37B22F0800223F0800332
:102610009A4202D04FF42F7200E0C8220092BAF81A
:1026200001504BF68133A5F5FA629A420CD34CF275
:1026300050318D4201D9012100E0002141EA4010D2
:1026400047F20A0108432DE016F811105FEA010B6A
:1026500008D0E188228911446431A94202D947F2A5
:1026600013011DE07978491E884220DAA08901F023
:102670008BFA0022174B01F0D7FA89468046E18891
:102680002289009805FB0B111044084401F07CFAE4
:1026900042464B4601F0C6FB09D2788947F2150144
:1026A00041EA4010BDE8F84F80B2FFF723BB7889BC
:1026B000BAF80110C0EBC00006EB400041810020D9
:1026C00000E06620BDE8F84FFFF735BB6520F9E76D
:1026D0001000002000408F4000B5024600F0CEF808
:1026E00002EB42000001401EB0F1807F01D30020C8
:1026F00000BD4FF0E0214861044AF02082F8140D3B
:102700000020886107200861012000BD0FE000E083
:1027100010B5FEF7ADFD164C04212046FDF720FF55
:1027200001224FF490612046FDF74FFF114C01222A
:102730009103204600F073FB4221204600F05FFB2E
:1027400001224221204600F009FC0B4C01212046C9
:1027500000F055FB01221146204600F0FFFB074820
:10276000016841F48051016005490220087010BDE4
:102770000028014000340140002C014000040140C9
:102780001000002070B50A4C05462178022901D1BD
:1027900000F07CF8B5F80100E080A07818B1FFF7F0
:1027A000B7FF002000E00D20BDE87040FFF7C3BA7E
:1027B0001000002070B5164C0546207828B36878C4
:1027C00021798842E0780AD128B121896079BDE871
:1027D0007040FFF7B4BABDE87040FFF7ACBA08B17B
:1027E0000020E0700A49491DC81CFEF757FA30B1B5
:1027F00021896079FFF7A3FA0120E07002E0002050
:10280000FFF799FA6878207170BD02480078E2E716
:10281000100000200A000020F0B50022154E1446DA
:10282000A6F5E07564234FF4FA674FF0140CC2EB81
:10283000C20006EB400106F8104005F8104005EB19
:1028400040004C7044704B8043808B808380CB80F1
:10285000C3800C8104814F814781A1F80CC0521CB8
:10286000A0F80CC0202AE2DB03482021417005615A
:10287000F0BD00004C020020100000204FF0E020CE
:10288000016921F0010101617047000070B51B4C26
:102890002188C907FCD11A48018821F00101018073
:1028A0001848016821F480510160174D002204216D
:1028B000284600F099FA00220821284600F094FAF0
:1028C00000224FF48041284600F0A9FA002201219D
:1028D000204600F043FB00224221284600F03EFB48
:1028E00000224FF490610948FDF76FFE084900206F
:1028F000087008490120087070BD0000002C0140DC
:10290000000C004000040140003401400028014058
:10291000080000201000002010B5FFF7AFFF4FF0B7
:10292000E020016921F48031016110BD0F4810B52C
:10293000016841F00101016041680D4A11404160A8
:1029400001680C4A11400160016821F48021016096
:10295000416821F4FE0141604FF41F018160FFF7DF
:1029600077FD05494FF00060086010BD001002407F
:102970000000FFF8FFFFF6FE08ED00E070B5048CE4
:1029800024F001040484058B048C4FF6FF7606EADC
:102990000313134325F0F3050E4A2B4390420ED048
:1029A0000D4A90420BD0B0F1804F08D00B4A9042B4
:1029B00005D00B4A904202D00A4A904202D124F03C
:1029C000020201E024F00A020A4342F001010383FB
:1029D000018470BD002C014000340140000400401F
:1029E00000080040000C0040F0B5048C24F01004F6
:1029F0000484078B048C4FF6FF7527F4734705EAB0
:102A000003333B4305EA02221A43114B05EA011640
:102A100098420ED00F4B98420BD0B0F1804F08D0A7
:102A20000D4B984205D00D4B984202D00C4B98426A
:102A300005D124F02001314341F0100104E024F0DD
:102A4000A0030B4343F0100102830184F0BD00009A
:102A5000002C014000340140000400400008004008
:102A6000000C004010B5254C0121204600F0CAF9A9
:102A7000208820F0010020801021204600F09FFBDC
:102A800001221146901EFFF729FC1D480121002458
:102A9000417004701B48018841F4804101801A484C
:102AA000017831B10470174800220C210C3800F075
:102AB00055FA16490878401CC0B20870144A1278BA
:102AC00090420AD30C701348018821F00101018063
:102AD0001148016841F480510160FEF7C9FB0F49BC
:102AE0000888002809D00888401E0004000C0880CF
:102AF00003D1BDE81040FFF7C9BE10BD002C014056
:102B0000240000200C3401400B00002008000020AD
:102B100011000020000C00400004014016000020BD
:102B200010B501212E4800F06DF92E4C01212046F0
:102B3000FDF7DCFD02212046FDF739FD0028F9D024
:102B40002046FDF731FD01F01FF84FF06632264BAD
:102B500001F06AF86FF00B0201F0B6FA0022234B85
:102B600001F062F80022224B00F072FE00F0C8FF74
:102B700081B2B1F5997F01D31E4804E0B1F58E7F93
:102B800005D81C48001D026842F4805202601A4CAD
:102B9000A078401CC0B2A070222804D10220FEF709
:102BA0002FF90020A07015490878C0EBC002144826
:102BB000006800EB42025278520601D000210AE080
:102BC0000978C1EBC10100EB41004078000601D457
:102BD000012100E00221BDE810408020FFF75AB932
:102BE000001000400024014066660A409B066341D5
:102BF000804FF240100C014024000020080000200B
:102C00002000002070B534480188344E344D354CD6
:102C100088073AD5208820F0010020802E483430E3
:102C2000018821F40041018001221146901EFFF726
:102C300055FB2D4801220021B0F90000FFF74EFBA3
:102C40002A48007890B131780122C1EBC10029688F
:102C500001EB40000021B0F90200FFF73FFB2448E0
:102C6000016821F0380141F0080101602148017834
:102C70004A1C027020480088814222D11E481C381C
:102C8000018841F0010101801BE011F00C0F18D008
:102C90001A48016841F4807101603078C0EBC001CE
:102CA000286800EB4100B0F904101548002904DD44
:102CB000016941F04001016103E0416941F04001D7
:102CC00041610E21204600F09DF80C48001D01686E
:102CD00041F48071016070BD103401400800002093
:102CE00020000020003401400E0000200B000020D6
:102CF0000074004024000020302C0140100C0140E2
:102D0000001001401E4810B5018841F0010101800A
:102D10001B483030018841F40041018018484021AF
:102D2000143800F06FF81748407878B150211648F1
:102D300000F045FA12480838018821F480410180EA
:102D4000124801898907FCD500218181104800784B
:102D5000002814D00F4800780F49C0EBC0000022B3
:102D6000096801EB40001146B0F90400FFF7B6FA1C
:102D70000A48016821F0080141F03001016010BDEE
:102D80001434014024000020002C01400030014098
:102D90000B000020080000202000002000740040EC
:102DA0000029018802D041F0800101E021F080017A
:102DB0000180704710B50A884B88CC881A438B88ED
:102DC00023431A430B891A434B8989891A430A43BF
:102DD000A0F8442010BD0021018041808180C18085
:102DE000018141818181704710B50123048C8B40A2
:102DF0009C430484038C8A401343038410BDC9435D
:102E000001827047C943018270470029018802D0BE
:102E100041F0010101E021F0010101807047002A29
:102E2000828901D00A4300E08A4382817047000012
:102E30002DE9F84F0D4604460888434FDFF80CC1D2
:102E4000DFF80C81DFF80C914988AA882B894FF0B4
:102E5000804A48B3042830D04FF6FF7608289346BE
:102E600034D0208C9E4620F480502084A38B208C6C
:102E700006EA0132009223F4734306EA0B221A4356
:102E800006EA0E331343BC420AD0644508D05445C9
:102E900006D0444504D04C4502D02F4A944245D137
:102EA00020F40050009943E02046FFF767FDE988D1
:102EB0002046BDE8F84F00F09DB92046FFF794FD8D
:102EC000E9882046BDE8F84F00F09CB9208C20F43A
:102ED00080702084B4F81CE0208C06EA031306EA14
:102EE00001222EF0F30E43EA0B0343EA0E03009295
:102EF000BC420AD0644508D0544506D0444504D0AD
:102F00004C4502D0144A944203D120F40070009939
:102F100001E020F42060084340F48070A383208403
:102F2000E9882046BDE8F84F00F078B920F4024067
:102F3000084340F48050A3832084E9882046BDE8FC
:102F4000F84F00F073B90000002C0140003401403C
:102F50000004004000080040000C0040002A828964
:102F600001D00A4300E08A438281704730B5028C69
:102F700022F001020284028C8388048B22F0020278
:102F800024F073050C882C430D8915434A882A4385
:102F9000114DA8420BD0114DA84208D0104DA842A7
:102FA00005D0104DA84202D00F4DA8420DD122F0FD
:102FB00008054A8923F440732A4322F004058A88CD
:102FC0002A438D891D43CB892B4383800483C98881
:102FD0008186028430BD0000002C01400034014095
:102FE00000400140004401400048014070B5028C9F
:102FF00022F010020284028C8388048B0D8824F452
:10300000E6464FF6FF7404EA052535430E8922F0A3
:10301000200204EA061616434A8804EA02123243E2
:10302000104EB04202D0104EB04215D122F08006B0
:103030004A8923F4406304EA0212324322F0400634
:103040008A8804EA021232438E8904EA86061E4305
:10305000CB8904EA8303334383800583C9880187CE
:10306000028470BD002C01400034014070B5028C18
:1030700022F480720284028C8388848B0D8824F071
:10308000730425430E894FF6FF7422F4007204EA9C
:10309000062616434A8804EA02223243104EB04202
:1030A00002D0104EB04215D122F400664A8923F4B2
:1030B000405304EA0222324322F480668A8804EAFA
:1030C000022232438E8904EA06161E43CB8904EAA3
:1030D0000313334383808583C9888187028470BD4D
:1030E000002C01400034014070B5028C22F4805263
:1030F0000284058C8288838B0C8823F4E6464FF685
:10310000FF7303EA0424344325F400560D8903EACF
:10311000053535434E8803EA06362E43094DA8424D
:1031200002D0094DA84205D122F480458A8903EADC
:1031300082122A4382808483C988A0F840100684C2
:1031400070BD0000002C014000340140028922F0D3
:1031500070020A4302817047028922F080020281D4
:1031600002890A430281704730B50124058C00F1C1
:1031700018038C40A543058489B108290FD0091F85
:10318000C1F34E001844016821F4E0410160016878
:103190004FF6FF7303EA02221143016030BD03EBD7
:1031A0005100016821F0700101600168F4E70288B4
:1031B00022F00802028002880A4302807047828857
:1031C00022F07002828082880A43828070470289DE
:1031D00022F00702028102890A4302817047818539
:1031E0007047818670470187704781877047A0F8D4
:1031F00040107047028B22F00C020283028B0A43BC
:1032000002837047028B22F440620283028B4FF6E6
:10321000FF7303EA01210A4302837047828B22F085
:103220000C028283828B0A4382837047828B22F452
:1032300040628283828B4FF6FF7303EA01210A43C7
:103240008283704730B502881B4C1C4DA0420DD0C4
:10325000A8420BD0B0F1804F08D0194B984205D04E
:10326000184B984202D0184B984203D122F07003B9
:103270004A881A43154B984206D0154B984203D002
:1032800022F44073CA881A4302808A8882850A8899
:103290000285A0420AD0A84208D00E4A904205D02A
:1032A0000D4A904202D00D4A904201D1097A01861E
:1032B0000121818230BD0000002C0140003401401A
:1032C0000004004000080040000C004000100040D6
:1032D000001400400040014000440140004801400B
:1032E0002DE9F04F8FB01420ADF8140042F6DF60E6
:1032F0000024ADF81000714DADF81640ADF8124045
:103300008DF8184004A92846FFF79CFF01212846A4
:10331000FFF746FD20212846FFF751FF2F260A27F9
:10332000DFF89C81ADF81060ADF81470ADF8124074
:10333000ADF816408DF8184004A94046FFF782FF0B
:10334000ADF81C40ADF822404FF0010AADF8244022
:10335000ADF81E40ADF820A007A94046FFF768FD74
:103360007025ADF80050ADF80240ADF80840ADF85A
:10337000067069464046FFF739FE08214046FFF7D0
:1033800016FF10214046FFF71AFF00214046FFF7C5
:10339000DDFE06214046FFF71AFF80214046FFF779
:1033A000DBFE01214046FFF72AFD4FF6FF70ADF826
:1033B0001400DFF810B1ADF81060ADF81240ADF8B0
:1033C00016408DF8184004A95846FFF73BFF022726
:1033D000F801ADF80C0060264000ADF80060ADF8D3
:1033E0000440ADF808704FF00808ADF80E004FF03B
:1033F0006409ADF80240ADF80A80ADF80690694660
:103400005846FFF7F3FDADF80050ADF80440ADF8B5
:103410000870ADF80240ADF80A80ADF80690694634
:103420005846FFF723FEADF80440C820ADF8006011
:10343000ADF80A40ADF80600ADF80240ADF808401E
:1034400069465846FFF792FD0AA8FFF7C4FCB80288
:10345000ADF828000AA95846FFF7ACFC00215846F1
:10346000FFF774FE06215846FFF7B1FE4221584689
:10347000FFF7C5FCADF80050ADF802A0ADF808406C
:10348000ADF8064069465846FFF72EFE1021584613
:10349000FFF795FE47F23050ADF814000B20ADF861
:1034A0001000ADF81640ADF812408DF8184004A990
:1034B0000548FFF7C7FE0FB0BDE8F08F000C0040D5
:1034C000002C0140003401400010004070B50D4C4C
:1034D000204600F0C5F805462021204600F03EF8C1
:1034E000094C207858B1FFF7C9F900202070E80690
:1034F00007D02946BDE870400320FDF781BC0120BC
:10350000207070BD004400400C0000207FB568466C
:1035100000F0AEF846F2A81000904FF480500D4D28
:10352000ADF804000024ADF808406946284600F0D4
:1035300041F80121284600F014F8684600F098F898
:103540004FF496600090ADF804406946024800F0E0
:1035500031F87FBD0038014000440040C94301807C
:1035600070470029818902D041F4005101E021F423
:103570000051818170470246002012880A4200D023
:103580000120704710B5C1F3421301F01F0401215F
:10359000A140012B07D0022B07D01430002A02686B
:1035A00005D00A4304E00C30F8E71030F6E78A4310
:1035B000026010BD30B50446008A85B00D464CF659
:1035C000FF710840E98801432182A0894EF6F3117A
:1035D0000840A9882A8911436A8902431143A181BD
:1035E000A08A4FF6FF410840A9890143A18268469D
:1035F000FEF7F0FA1948844201D1039800E00298DE
:10360000A189090400EBC00101EB0010296801D574
:10361000490000E08900B0FBF1F06422B0FBF2F158
:1036200009010B096FF018056B4300EB8300A389B8
:103630001D044FF0320306D503EBC000B0FBF2F0DF
:1036400000F0070005E003EB0010B0FBF2F000F023
:103650000F000843208105B030BD00000038014054
:103660008088C0F308007047C1F30801818070476B
:103670004FF41651016000218180C18001810C222C
:1036800042818181704705210420FDF7D9F8FEF7BA
:10369000FFF90000C2B04FF482716846FCF7F8FDF4
:1036A000FEF7B0FBFDF72AFBFDF7D2FD0122114624
:1036B0000020FEF713FEFFF7AFF8064D02242E1D83
:1036C0002C606846FDF718FD34606846FDF7BAF9CE
:1036D000F6E700001008014010B591EA030F48BF5B
:1036E00083F0004300F1DC83841A71EB030C05D2F4
:1036F000121943EB0C03001B61EB0C01DFF824E112
:103700004FEA1154A4EB135C1EEA430F18BF9EEA64
:10371000445F73D023EA0E03DCF1200E21EA04514A
:1037200043F4801332D322FA0CFE10EB0E0023FA7E
:103730000CFE41EB0E01CCF1200E03FA0EFE10EB55
:103740000E0051F10001B1F5801FCCF1200E32D2F4
:1037500001EB045112FA0EF2BDE8104058BF704759
:10376000401C38BF5FEA420218BF7047002814BFF0
:1037700020F0010041F100014FEA410313F5001F61
:1037800038BF7047A1F1C04100F046BB012A43EBAE
:103790000302ACF1200CDCF11F0E32BF4FF0000E23
:1037A00023FA0CF310EB030041EB0451B4EB115F6F
:1037B000D0D0A1EB045101F5801149085FEA300037
:1037C00001EB04510ED350F1000038BF12FA0EFE87
:1037D00008D1BDE81040C9E7401C38BF5FEA42028B
:1037E000CAD1C3E7BDE810404FEA410313F5001FFB
:1037F00038BF7047A1F1C04100F00EBB9EEA445FA4
:1038000008D011EA5E0FBDE8104004BF01F000418E
:1038100000207047BDE8104070B500F0AFFA00BF5F
:1038200064FBBE3E0000E0FF02494FF0000000F0E4
:1038300019BC00BF0000F87F491058BFC1F14041DA
:103840005B1058BFC3F140438B42EFF300807047D9
:103850002DE9C04130B4DFF8A0C23CEA111418BF12
:103860003CEA131400F0EC8081EA03051CEA111411
:1038700044EAD57418BF1CEA131500F0C780A4EB06
:1038800005044FF0004545EAC12145EAC32341EA5A
:10389000505143EA525304F17F74994204F50034C5
:1038A0004FEAC0204FEAC22208BF904200F09C803D
:1038B0004FEA13650FF24016765D4FEA134506FB9B
:1038C00005F7C7F1807706FB07F74FEAD737A7FB65
:1038D00003687642C8F58038A7FB06CE38BFA8F14A
:1038E000010807FB08E64FF0000EA6FB028CE6FB82
:1038F00003CEDCF1000CCEF1004E38BFAEF1010E6C
:10390000A6FB0C584FF000074FF00005E6FB0E87B2
:10391000A1FB08C6A0FB07CE16EB0E0645F100057D
:10392000E1FB076515F1E04E7EBFA4F580345FEA48
:1039300046066D4116F1800745F100054FEA17274D
:103940004FEA066647EA0567A6F1DE46B6F1805FF4
:103950004FEA15251FD9384624F0010C05EBC47138
:10396000BCF1FE6F01EB0C1102D8F0BCBDE8008188
:1039700024425CBF01F5801E9EEAC47F02D4F0BCE5
:10398000BDE80081244238D4F0BCA1F1C041BDE8BB
:10399000004100F041BA4FEAD22242EA43524FEAD4
:1039A000D323A7FB02864FEAD02040EA415007FB11
:1039B00003661EEA0E0F4FEAD12105FB026658BFCF
:1039C000A6EB0056B6EB00564FEA520E4EEAC37E07
:1039D00018EB0E0E56EB530EBDD518EB02085E41E8
:1039E0007F1C55F10005B6E74FF480154FF0000736
:1039F0004FF000064FF00008ADE7F0BC4FF00000BC
:103A000001F1C04101F00041BDE8008111EA0C1F45
:103A10000CEA131500D00CE013EA0C1F00F025800F
:103A20004FF00000F0BC81EA030101F00041BDE865
:103A30000081F0BCBDE8004181EA030100F0ECB96F
:103A4000F0BCBDE8004170B500F098F9097EFC3E7D
:103A500000F007B881EA03014FF0000001F00041D7
:103A6000704781EA030100F0D7B9F0BCBDE800411E
:103A70004FF0000021497047FFFDFBF9F7F5F4F224
:103A8000F0EEEDEBE9E8E6E4E3E1E0DEDDDBDAD8F9
:103A9000D7D5D4D3D1D0CFCDCCCBCAC8C7C6C5C457
:103AA000C2C1C0BFBEBDBCBBBAB9B8B7B6B5B4B36E
:103AB000B2B1B0AFAEADACABAAA9A8A8A7A6A5A459
:103AC000A3A3A2A1A09F9F9E9D9C9C9B9A9999981D
:103AD0009797969595949393929191908F8F8E8EC0
:103AE0008D8C8C8B8B8A898988888787868585844D
:103AF00084838382828181800000FF070000F87F39
:103B00004FEA1153A3F58063D3F11E03A8BFD3F18D
:103B1000200C08DB4FF0004242EAC12252EA505228
:103B200032FA03F0704709420BD4102BC4BF0020B7
:103B3000704703F5787CBCF1FF3F05D04FF0FF30B4
:103B400070474FF00000704770B500F017F900BFE4
:103B50004992248000207047F0E710F0004248BFEF
:103B60004042B0FA80F310FA03F10AD0C3F11D030A
:103B700003F580634FEA415002EB035202EBD1217F
:103B800070474FF000007047B0FA80F310FA03F16D
:103B90000AD0C3F11D0303F580634FEA41504FEA99
:103BA000035202EBD12170474FF000007047000034
:103BB00051EA030C17D41CF5801F58BFBCF5801FB9
:103BC00000F10680994218BF704708BF90427047C5
:103BD00007D711F5801F58BF13F5801F19D49942DC
:103BE0007047894270471CF5801F08D5BCF5801FBF
:103BF000F7D58B4218BF704708BF824270474FF419
:103C0000001C1CEB410F38BF1CEB430F01D28B4251
:103C1000704770B500F0B2F8922449004FF000519F
:103C20004FF08053FFF708BEDFF848C170B51CEABB
:103C3000111E1EBF1CEA13159EEA0C0F95EA0C0F0D
:103C400000F06F8081EA030423EA4C134EEAD47E2D
:103C500021EA4C1141F4801143F48013AE44A1FBDE
:103C6000024CA0FB0365AEF17F7E361955EB0C05C7
:103C7000A1FB034C4CF10003A0FB021C16EB0C064D
:103C8000654153F10003094218BF46F0010613F4E1
:103C9000007F0BD14FEA03314FEA0530340341EA8C
:103CA000155140EA16506FF003020AE04FEAC321B3
:103CB0004FEAC520F40241EA555140EA56506FF0F0
:103CC000020202EB2E4201EB025585EACE710AD0C8
:103CD0005FEA440C18BF24F0004450F1000041F1A9
:103CE000000120EAD47040F2FE7C624500D270BD33
:103CF000A84214BF4FF080444FF04044002E08BF4C
:103D00000024BEF1806FA8BFA1F1C041BDE87040A2
:103D100080F282804FF0000001F1C04101F00041CB
:103D200070479EEA0C0F0CEA131518BF95EA0C0FAA
:103D300006D04FF0000081EA030E0EF0004170BD86
:103D400000F01CF88900013E00F007B800F009B847
:103D50004FEA430C5FEA5C5C08D081EA030100F0A3
:103D60005BB84FEA410C5FEA5C5CF6D14FF00000B3
:103D7000014970470000FF070000F87F0EF1020EB6
:103D80002EF0030E5EF8046B364205D4012A43EB95
:103D9000030515F5001F12D8012841EB010C1CF595
:103DA000001F0CD80ED14FEAD17C15F5001F0CEB8B
:103DB0004C0C0CF1020C08BF4CEBD37C04E04FF030
:103DC000080C01E04FEAD37C0CEB4C0526FA05F613
:103DD00006F00706B6F1040C06D20EEB860CBDE821
:103DE00070404CF0010C6047DFE80CF0090B020258
:103DF0004FF000414FF00000A1F5002170BD1946C1
:103E00001046012851EB010418BFD4F5001484BFFB
:103E1000002001F0004170BD0808A0F500114FEA34
:103E20003101704753EA010C17D41CF5801F58BFAD
:103E3000BCF5801F00F106808B4218BF704708BF99
:103E40008242704707D713F5801F58BF11F5801FB6
:103E500019D48B4270479B4270471CF5801F08D5D0
:103E6000BCF5801FF7D5994218BF704708BF904234
:103E700070474FF4001C1CEB430F38BF1CEB410F85
:103E800001D2994270470FB40CBC03BCFFF7C1BE0E
:103E900010B591EA030F48BF83F000433FF524AC0F
:103EA000841A71EB030C07D212198CF0004C43EB0F
:103EB0000C03001B61EB0C01DFF8A4E14FEA115485
:103EC000A4EB135C1EEA430F18BF9EEA445F00F0A8
:103ED000B08023EA6E03524221EA0451C3EB6E0321
:103EE00038BF5B1EDCF1200E25D322FA0CFE10EB4E
:103EF0000E0043FA0CFE41EB0E01CCF1200E03FA4A
:103F00000EFE10EB0E0051F10001CCF1200E29D471
:103F100012FA0EF201EB0451BDE8104058BF704791
:103F2000401C1CBFB2F1004F704700280CBF491C59
:103F300020F00100704712EB020E43EB030218BFA2
:103F40004FF0010E4EEA4202ACF1200CDCF11E0EE5
:103F500054D943FA0CFE10EB0E0051F1FF31CCF1B5
:103F60001E0ED5D50EF1010E12FA0EFE404141EBA8
:103F7000010101EB445C5FEA5C5C10D910EBDE7080
:103F800001EB045138BFBEF1004FBDE8104018BF2F
:103F9000704700280CBF491C20F00100704730D248
:103FA0004FEAD42C11F5001124F400641BD0B1FAAF
:103FB00081F20B3AA41AA41ED2F12003914030FAE8
:103FC00003F31943904001EBCC71002C01EB045139
:103FD000BDE81040A8BF704701F1C0414FF000009C
:103FE00001F000417047B0FA80F310FA03F100D1FC
:103FF00010BDE41A173C4805C90AE4E701EB045177
:1040000010BD491001EB0451BDE810404FEA3000EB
:1040100002E04FF0000170474A0008BF0042F8D0AC
:10402000B2F5001F28BF704701F000414FF00000BB
:1040300070479EEA445F07D011EA5E0FBDE810406A
:1040400004BF002100207047BDE8104070B5FFF7A5
:1040500095FE00BF40DFF63E83F0004110467047FA
:104060000000E0FF0CF00F03092B08BF082000F050
:1040700059800A2B0BD0082B18BF704708BF1CF0C3
:10408000400F0AD04FF000004FF0000170471CF0C5
:10409000400F18BF4FF0004070471CF0100F08D0C1
:1040A00020F0704300F07F4242EAD3014FEA4370B0
:1040B000704700F0604021F07F4242EA000201F0C8
:1040C0007F4040EA727070474FF0FF0C4CF4E06C98
:1040D0001CEA11531CBF9CEA030C9445C2BFDA4290
:1040E00001EB02517047002B0DD0BCF1000F0FD037
:1040F000002A01F00041A4BF41F0E04141F07F619E
:104100004FF00000704701F000414FF00000704791
:1041100050EA01334FF09B0C18BF4CF0806C7FF4D9
:1041200083AB70471CF4801F11D01CF4E02F03D028
:104130006FEACC31490070474FF04050EFF30082F6
:1041400022F0704242EA000282F3008870474FF08A
:1041500000007047B1190008B52700086D1E00085F
:10416000811E00081D1F000899210008F92400087D
:1041700061200008691F0008E5210008E525000806
:10418000010A0008852700087523000800000000C8
:10419000E1110008B4410008000000203C000000CC
:1041A0006C010008F04100083C000020340A0000C7
:1041B000880100080100000000000000000000006D
:1041C00000000000000001000000000000000000EE
:1041D000000000008C00002000011402040608000A
:1041E000000000010203040102030406070809009D
:0400000508000131BD
:00000001FF
