:020000040800F2
:10000000E8090020CD010008D50100089507000887
:1000100045080008F1040008DF1500080000000092
:10002000000000000000000000000000DF010008E8
:10003000E101000800000000E3010008E5010008FC
:10004000E7010008E7010008E7010008E7010008F0
:10005000E7010008E7010008E7010008E7010008E0
:10006000E7010008E7010008E7010008E7010008D0
:10007000E7010008E7010008E7010008E7010008C0
:10008000E7010008E7010008E7010008E7010008B0
:10009000E7010008E7010008E7010008E7010008A0
:1000A000E7010008510E0008E7010008E701000819
:1000B000E7010008E7010008E7010008E701000880
:1000C000E7010008E7010008E7010008E701000870
:1000D000E7010008E7010008E7010008E701000860
:1000E000E7010008E7010008E7010008E701000850
:1000F000E7010008C10E0008790E0008E7010008BA
:10010000E7010008E7010008E7010008E70100082F
:10011000E7010008E7010008E7010008E70100081F
:10012000E7010008E7010008E7010008E70100080F
:1001300000F002F800F03AF80AA090E8000C8244BF
:100140008344AAF10107DA4501D100F02FF8AFF29C
:10015000090EBAE80F0013F0010F18BFFB1A43F0A5
:1001600001031847FC1400001C150000103A24BFBE
:1001700078C878C1FAD8520724BF30C830C144BF0C
:1001800004680C607047000000230024002500264E
:10019000103A28BF78C1FBD8520728BF30C148BFEA
:1001A0000B6070471FB51FBD10B510BD00F04EF9B4
:1001B0001146FFF7F7FF01F019FA00F06CF903B4EC
:1001C000FFF7F2FF03BC00F071F900000948804717
:1001D00009480047FEE7FEE7FEE7FEE7FEE7FEE729
:1001E000FEE7FEE7FEE7FEE704480549054A064B41
:1001F00070470000190D000831010008E8030020D5
:10020000E8090020E8050020E8050020431A28BF7F
:100210009A4240F26780032A1044114440F226803B
:1002200010F0030F1EBF11F8013D521E00F8013DF2
:1002300010F0030F7FF4F6AF11F0030300F0AA8073
:10024000083AC0F00B8051F8043D083A51F804CD4B
:1002500040F8043D40F804CDFFF7F3BF121D5CBF2A
:1002600051F8043D40F8043DAFF30080D20724BFAD
:1002700011F8013D11F801CD48BF11F8012C24BF40
:1002800000F8013D00F801CD48BF00F8012C70478F
:100290004FF0000200B5134694469646203922BF1F
:1002A000A0E80C50A0E80C50B1F12001BFF4F7AF6A
:1002B000090728BFA0E80C5048BF0CC05DF804EB4C
:1002C000890028BF40F8042B08BF704748BF20F8BA
:1002D000022B11F0804F18BF00F8012B70477047B8
:1002E00070477047032A40F2308010F0030C00F092
:1002F000158011F8013BBCF1020F624498BF11F860
:1003000001CB00F8013B38BF11F8013BA2F1040218
:1003100098BF00F801CB38BF00F8013B11F0030390
:1003200000F06280083AC0F0088051F8043B083AB7
:1003300051F804CBA0E80810F5E7121D5CBF51F896
:10034000043B40F8043BAFF30080D20724BF11F810
:10035000013B11F801CB48BF11F8012B24BF00F875
:10036000013B00F801CB48BF00F8012B7047431A4E
:1003700028BF9A4240F23880104410F0030F114415
:100380001EBF11F8013D521E00F8013D10F0030F91
:100390007FF4F6AF103AC0F00A8010B531E918507A
:1003A000103A20E91850BFF4F9AFBDE810405307E8
:1003B00024BF31E9081020E9081044BF51F8043D7A
:1003C00040F8043D12F0030F08BF7047D20728BF62
:1003D00031F8023D48BF11F8012C28BF20F8023D3A
:1003E00048BF00F8012C704710B5203AC0F00B80D0
:1003F000B1E81850203AA0E81850B1E81850A0E829
:100400001850BFF4F5AF5FEA027C24BFB1E8185082
:10041000A0E8185044BF18C918C0BDE810405FEAF2
:10042000827C24BF51F8043B40F8043B08BF70476E
:10043000D20728BF31F8023B48BF11F8012B28BF73
:1004400020F8023B48BF00F8012B7047754600F0CA
:1004500029F8AE4605006946534620F00700854658
:1004600018B020B5FFF7C0FEBDE820404FF00006F1
:100470004FF000074FF000084FF0000B21F007018C
:10048000AC46ACE8C009ACE8C009ACE8C009ACE8CF
:10049000C0098D4670470446AFF300802046FFF741
:1004A0008EFE000000487047840300200149182098
:1004B000ABBEFEE726000200704710B501214FF0E9
:1004C000C05000F027FABDE81040012000F01CBA2F
:1004D00008B5024908440090008808BD006C00403F
:1004E00008B5024A10440090016008BD006C00404D
:1004F00003210420FFF7F4FF00F0DCF930B41349C6
:100500000278134B0C7802F00F01012C04D0120773
:1005100018D00E290ED010E00F2904D253F8211064
:1005200091B90B200BE081780029FAD10849091F05
:10053000096809E0B0F8012022B10648007830BC13
:1005400000F0A6BA53F8211030BC08470C00002078
:10055000241600080800002070B5164C032202EB98
:10056000820304EB830393F9005093F90160B542D1
:1005700001D19D78CDB102EB820504EB850494F99D
:10058000004003EB4405641E1C70AC880480521CC0
:100590000A7093F90000002801DA07201870987893
:1005A00008B100209870012070BD521ED7D50020E0
:1005B00070BD00003400002010B500F02DFA00F0EE
:1005C00065F800F077FF00F0B7FEBDE8104000F0DE
:1005D00083B900000548016841F01001016003483B
:1005E0001030016841F4E0210160704714ED00E033
:1005F000F0B5CC78002204F00F03E40601D58C7826
:1006000023430C784FF00F0C14F0FF0F4FF0010E46
:100610001BD005680E880EFA02F42640A64210D1BF
:1006200096000CFA06F725EA070703FA06F5CE78D6
:100630003D43282E02D0482E02D002E0446100E063
:100640000461521C082AE5D305600A88FF2A1CD9D8
:100650004468002202F108060EFA06F50E882E40C4
:10066000AE420ED196000CFA06F7BC4303FA06F729
:10067000CE783C43282E00D14561CE78482E00D15B
:100680000561521C082AE5D34460F0BDF8B54FF46B
:100690008060ADF80000154F04258DF803506946C1
:1006A0003846FFF7A5FF4FF44070ADF80000032671
:1006B0008DF8026018248DF8034069463846FFF72C
:1006C00097FFA801ADF800008DF803506946384641
:1006D000FFF78EFF2001ADF800008DF802608DF865
:1006E000034069460248FFF783FFF8BD0008014058
:1006F000001001402DE9F047DFF8949000250646F0
:10070000B9F800102C462F4641F00401A9F800105A
:10071000DFF87C80A8F10C082021404600F0EEFEB6
:100720000028F9D0404600F047FFC10509D5002454
:100730002746254610F0F00FEED1C5B23570741C77
:10074000EAE7002CE8D031780F22B2EB111F09D074
:10075000F11C8C420FD204F8010B2844C5B2DBE730
:100760000024D9E7711C8C4203D1C1B28F19FF1C40
:10077000F1E7BC42EFD1C0B2A842F1D1B9F8001004
:1007800021F00401A9F80010A01BBDE8F0870000CB
:100790000C38014006210420FFF7A2FE00F08AF881
:1007A000B0F8011031B101290AD002290ED00B2076
:1007B00000F06EB90749012008700021084603E0E7
:1007C0000078082100F00F0000F066B90821024807
:1007D00000F042B90C0000200000002070B5174C5A
:1007E0002178012901D00D2013E0154AE1689142DA
:1007F000C17801EB410101D102F5C07202EB810227
:1008000041780C23491EB1FBF3F503FB151121B10F
:100810006420BDE8704000F03BB9012105E04318B9
:100820005518DB7805F8013C491C43788B42F6DC0F
:10083000002000F02DF90120A07070BD0C000020F8
:100840008400002004210846FFF74AFE00F032F839
:1008500030B50F23C27801780125F2B1144A12682D
:1008600001F1E02102F4E062C2F5E062120AC2F195
:100870000404D3404278A24084781C4014432201EF
:1008800081F80024007800F01F018D4040098000AD
:1008900000F1E020C0F8005130BD01F01F0085409C
:1008A0004809800000F1E020C0F8805130BD000010
:1008B0000CED00E0BFF34F8F05480168054A01F4D5
:1008C000E06111430160BFF34F8F00BFFDE70000FF
:1008D0000CED00E00400FA0508B519208DF80000C1
:1008E00001208DF803006846FFF7B2FF2D208DF838
:1008F00000006846FFF7ACFF2E208DF80000684628
:10090000FFF7A6FF08BD000001490862704700001C
:1009100000000E42044A0029D16901D0014300E0E1
:100920008143D1617047000000100240044A002951
:10093000916901D0014300E081439161704700005B
:10094000001002400248416A41F0807141627047E4
:100950000010024030B5204A5168204B11F00C01C4
:1009600003D0042901D0082901D0036012E05168A6
:10097000536801F470114FF0020413F4803F04EB4C
:10098000914102D053689B0301D5154B00E0134BF6
:100990005943016051680F2303EA1111114B5C5C4C
:1009A0000168E14041605468072505EA14241C5D94
:1009B00021FA04F48460546805EAD4241B5DD9400C
:1009C000C1605268032303EA9232064B1B1F9A5CF4
:1009D000B1FBF2F1016130BD0010024000127A005B
:1009E00000093D0022000020034600205909094A61
:1009F00001290AD002290AD0516A03F01F020123FB
:100A000093400B4200D0012070471168F5E7116A4E
:100A1000F3E700000010024010B5012146F6150072
:100A2000FFF784FF4FF4C06000F00CF8BDE8104001
:100A3000042000F001B800000149C87170470000AF
:100A400000100240034A516821F4E0610143516003
:100A5000704700000010024010B5C2B00C469DF86F
:100A60000010621E21F0F00141F00F018DF800101E
:100A7000611E8DF8011001788DF80210014601A861
:100A8000FFF7C4FBA11C684600F060F842B010BD3F
:100A900001460020AFF3008000B5C1B09DF80020F2
:100AA00060F3030222F0F0008DF80000ADF80110B1
:100AB0000321684600F04AF841B000BD10B5FFF7C9
:100AC00089FDFFF7FAFC7C20FFF78EFF144C01280C
:100AD00019D07B20FFF788FF01281DD07A20FFF76F
:100AE00083FF012818D07E20FFF77EFF012815D054
:100AF0007D20FFF779FF012810D007202070BDE886
:100B00001040FFF71FBF0420FFF7E2FC2070002118
:100B10000420FFF7E5FCF2E70120EFE70220EDE714
:100B2000080000200349B0F8010008810020FFF709
:100B3000AFBF00000C0000200349B0F8010048815D
:100B40000020FFF7A5BF00000C0000202DE9F041B8
:100B5000164F884606468021384600F0CFFC002814
:100B6000F9D03578384645F4807100F029FD01242C
:100B70000DE08021384600F0C1FC0028F9D0315D3D
:100B80004819C5B2384600F01BFD641CE4B2444568
:100B9000EFD38021384600F0B1FC0028F9D0294677
:100BA0003846BDE8F04100F00BBD000000380140C0
:100BB0000CB50022264800920192016841F4803170
:100BC00001604FF4A063016801F4003101910099C4
:100BD000491C0091019911B900999942F3D101681A
:100BE000890333D5012101911A490A6842F01002A4
:100BF0000A600A6822F003020A600A6842F00102F1
:100C00000A604168416041684160416841F4806127
:100C10004160416821F47C114160416841F48811D0
:100C20004160016841F08071016001688901FCD573
:100C3000416821F003014160416841F002014160D7
:100C40004168C1F381010229FAD10CBD01920CBDAA
:100C5000001002400020024070B5174C0546207875
:100C6000012802D0154800780BE068782179884285
:100C7000E0780AD128B1E1886079BDE87040FFF7DB
:100C80000BBFBDE87040FFF703BF08B10020E07064
:100C90000949491D481CFFF75FFC30B1E1886079C4
:100CA000FFF7FAFE0120E07002E00020FFF7F0FEFF
:100CB0006878207170BD00000C0000200800002042
:100CC000F0B50022124E0A2713464FF0010CA6F58C
:100CD000C075642402EB420006EB800106F820C0D8
:100CE00005F820C005EB80004B7043704F804780B3
:100CF0008B808380CC80C4800B8103814F81521C08
:100D00004781202AE6DB034820214170C560F0BD01
:100D1000040200200C0000200F4810B5016841F0CB
:100D20000101016041680D4A1140416001680C4AAF
:100D300011400160016821F480210160416821F4C3
:100D4000FE0141604FF41F018160FFF731FF05494B
:100D50004FF00060086010BD001002400000FFF876
:100D6000FFFFF6FE08ED00E070B5048C24F00104EE
:100D70000484058B048C4FF6FF7606EA03131343B5
:100D800025F0F3050E4A2B4390420ED00D4A9042B7
:100D90000BD0B0F1804F08D00B4A904205D00B4ADF
:100DA000904202D00A4A904202D124F0020201E0AD
:100DB00024F00A020A4342F001010383018470BD5A
:100DC000002C0140003401400004004000080040B5
:100DD000000C0040F0B5048C24F010040484078B50
:100DE000048C4FF6FF7527F4734705EA03333B4342
:100DF00005EA02221A43114B05EA011698420ED069
:100E00000F4B98420BD0B0F1804F08D00D4B984259
:100E100005D00D4B984202D00C4B984205D124F0DE
:100E20002001314341F0100104E024F0A0030B4302
:100E300043F0100102830184F0BD0000002C01404A
:100E4000003401400004004000080040000C004055
:100E500010B5074C0121204600F073F81021204600
:100E600000F0E4F90348012141700021017010BD38
:100E7000002C01401C0000200E4810B5018821F014
:100E8000010101800B4944310A8822F400420A80A2
:100E9000022100F056F808490878421C0A700749F8
:100EA0000988884205D105481C38018841F00101B4
:100EB000018010BD003401401C000020302C014096
:100EC0000E4810B5018841F0010101800B48303017
:100ED000018841F40041018008484021143800F0A5
:100EE00030F807480024417821B14470502105486A
:100EF00000F09CF903482430048010BD14340140F4
:100F00001C000020002C014010B50A884B88CC88BA
:100F10001A438B8823431A430B891A434B898989C7
:100F20001A430A43A0F8442010BD002101804180EB
:100F30008180C1800181418181817047C9430182E3
:100F40007047C943018270472DE9F84F0D460446AA
:100F50000888434FDFF80CC1DFF80C81DFF80C91F3
:100F60004988AA882B894FF0804A48B3042830D09A
:100F70004FF6FF760828934634D0208C9E4620F406
:100F800080502084A38B208C06EA0132009223F447
:100F9000734306EA0B221A4306EA0E331343BC429C
:100FA0000AD0644508D0544506D0444504D04C4589
:100FB00002D02F4A944245D120F40050009943E0DA
:100FC0002046FFF7D1FEE9882046BDE8F84F00F043
:100FD0003DB92046FFF7FEFEE9882046BDE8F84F00
:100FE00000F03CB9208C20F480702084B4F81CE020
:100FF000208C06EA031306EA01222EF0F30E43EAE0
:101000000B0343EA0E030092BC420AD0644508D0A9
:10101000544506D0444504D04C4502D0144A94426D
:1010200003D120F40070009901E020F4206008430F
:1010300040F48070A3832084E9882046BDE8F84FFF
:1010400000F018B920F40240084340F48050A38314
:101050002084E9882046BDE8F84F00F013B900006D
:10106000002C014000340140000400400008004012
:10107000000C0040002A828901D00A4300E08A4324
:101080008281704730B5028C22F001020284028C0A
:101090008388048B22F0020224F073050C882C4311
:1010A0000D8915434A882A43114DA8420BD0114D92
:1010B000A84208D0104DA84205D0104DA84202D039
:1010C0000F4DA8420DD122F008054A8923F4407340
:1010D0002A4322F004058A882A438D891D43CB893F
:1010E0002B4383800483C9888186028430BD00003D
:1010F000002C014000340140004001400044014008
:101100000048014070B5028C22F010020284028C6B
:101110008388048B0D8824F4E6464FF6FF7404EAB6
:10112000052535430E8922F0200204EA06161643EF
:101130004A8804EA02123243104EB04202D0104EE6
:10114000B04215D122F080064A8923F4406304EAB4
:101150000212324322F040068A8804EA0212324325
:101160008E8904EA86061E43CB8904EA830333434F
:1011700083800583C9880187028470BD002C0140EB
:101180000034014070B5028C22F480720284028C1B
:101190008388848B0D8824F0730425430E894FF6D1
:1011A000FF7422F4007204EA062616434A8804EA11
:1011B00002223243104EB04202D0104EB04215D13E
:1011C00022F400664A8923F4405304EA022232439F
:1011D00022F480668A8804EA022232438E8904EA75
:1011E00006161E43CB8904EA0313334383808583A9
:1011F000C9888187028470BD002C01400034014001
:10120000028922F070020A4302817047028922F0AB
:101210008002028102890A4302817047028822F01B
:101220000802028002880A4302807047828822F006
:101230007002828082880A4382807047028922F08D
:101240000702028102890A4302817047028B22F061
:101250000C020283028B0A4302837047028B22F442
:1012600040620283028B4FF6FF7303EA01210A43B7
:1012700002837047828B22F00C028283828B0A43A6
:1012800082837047828B22F440628283828B4FF686
:10129000FF7303EA01210A438283704730B5028855
:1012A0001B4C1C4DA0420DD0A8420BD0B0F1804F7A
:1012B00008D0194B984205D0184B984202D0184BD1
:1012C000984203D122F070034A881A43154B984282
:1012D00006D0154B984203D022F44073CA881A43B3
:1012E00002808A8882850A880285A0420AD0A842A4
:1012F00008D00E4A904205D00D4A904202D00D4AC5
:10130000904201D1097A01860121818230BD00001D
:10131000002C01400034014000040040000800405F
:10132000000C00400010004000140040004001404C
:1013300000440140004801402DE9F04F8FB04BF6CA
:1013400080300024ADF810000A26584FADF8146024
:10135000ADF81240ADF816408DF8184004A9384693
:10136000FFF79CFFADF81C40ADF822400125ADF819
:101370002440ADF81E40ADF8205007A93846FFF7CD
:10138000E3FD4FF0700AADF800A0ADF80240ADF8F3
:101390000840ADF8066069463846FFF7B3FE0821FD
:1013A0003846FFF73BFF10213846FFF73FFF40214B
:1013B0003846FFF725FF06213846FFF73FFF80211B
:1013C0003846FFF723FF01213846FFF7B7FD01221A
:1013D00011463846FFF74EFE3020ADF810004FF6AC
:1013E000FF70ADF81400DFF8C8B0ADF81240ADF8EA
:1013F00016408DF8184004A95846FFF74FFF280201
:10140000ADF80C00602602274000ADF80060ADF892
:101410000440ADF808704FF00808ADF80E004FF02A
:101420006409ADF80250ADF80A80ADF8069069463F
:101430005846FFF767FEADF800A0ADF80440ADF8E0
:101440000870ADF80250ADF80A80ADF80690694614
:101450005846FFF797FEC820ADF80060ADF80600CB
:10146000ADF80240ADF8084069465846FFF70AFE5D
:101470000AA8FFF75AFDE802ADF828000AA9584665
:10148000FFF742FD00215846FFF7BAFE06215846F5
:10149000FFF7D4FE42215846FFF750FD01224221BA
:1014A0005846FFF7E7FD0FB0BDE8F08F002C014074
:1014B000003401401FB5684600F086F846F2A810D7
:1014C00000904FF48050ADF804000020054CADF8BA
:1014D00008006946204600F019F80121204600F076
:1014E00003F81FBD003801400029818902D041F472
:1014F000005101E021F40051818170470246002033
:1015000012880A4200D001207047000030B504461E
:10151000008A85B00D464CF6FF710840E98801430A
:101520002182A0894EF6F3110840A9882A89114327
:101530006A8902431143A181A08A4FF6FF41084006
:10154000A9890143A1826846FFF704FA1948844239
:1015500001D1039800E00298A189090400EBC001C1
:1015600001EB0010296801D5490000E08900B0FBBB
:10157000F1F06422B0FBF2F109010B096FF01805DC
:101580006B4300EB8300A3891D044FF0320306D5A3
:1015900003EBC000B0FBF2F000F0070005E003EB46
:1015A0000010B0FBF2F000F00F000843208105B0FE
:1015B00030BD0000003801408088C0F3080070474B
:1015C000C1F30801818070474FF41651016000217A
:1015D0008180C18001810C22428181817047052177
:1015E0000420FEF77DFFFFF765F90000C2B04FF45D
:1015F00082716846FEF74CFE08494FF4013048609E
:10160000FFF75CFAFEF7D8FFFFF75AFB6846FFF7D3
:1016100071F86846FEF772FFF8E70000002004E06A
:10162000DD070008590C0008250B0008390B0008DD
:1016300000000000000000000000000000000000AA
:10164000000000000000000000000000000000009A
:10165000000000000000000000000000A1070008DA
:101660008016000800000020340000006C01000813
:10167000B416000834000020B409000088010008F6
:101680000100000000000000000000000000000059
:101690000000000000000000000000000001020443
:1016A000060800000000010203040102030406070B
:0416B0000809000025
:0400000508000131BD
:00000001FF
